{"contracts/Flashloan_OApp.sol":{"FlashloanOApp":{"abi":[{"inputs":[{"internalType":"address","name":"_endpoint","type":"address"}],"stateMutability":"nonpayable","type":"constructor"},{"inputs":[],"name":"InvalidDelegate","type":"error"},{"inputs":[],"name":"InvalidEndpointCall","type":"error"},{"inputs":[],"name":"LzTokenUnavailable","type":"error"},{"inputs":[{"internalType":"uint32","name":"eid","type":"uint32"}],"name":"NoPeer","type":"error"},{"inputs":[{"internalType":"uint256","name":"msgValue","type":"uint256"}],"name":"NotEnoughNative","type":"error"},{"inputs":[{"internalType":"address","name":"addr","type":"address"}],"name":"OnlyEndpoint","type":"error"},{"inputs":[{"internalType":"uint32","name":"eid","type":"uint32"},{"internalType":"bytes32","name":"sender","type":"bytes32"}],"name":"OnlyPeer","type":"error"},{"inputs":[{"internalType":"address","name":"owner","type":"address"}],"name":"OwnableInvalidOwner","type":"error"},{"inputs":[{"internalType":"address","name":"account","type":"address"}],"name":"OwnableUnauthorizedAccount","type":"error"},{"inputs":[{"internalType":"address","name":"token","type":"address"}],"name":"SafeERC20FailedOperation","type":"error"},{"anonymous":false,"inputs":[{"indexed":true,"internalType":"address","name":"previousOwner","type":"address"},{"indexed":true,"internalType":"address","name":"newOwner","type":"address"}],"name":"OwnershipTransferred","type":"event"},{"anonymous":false,"inputs":[{"indexed":false,"internalType":"uint32","name":"eid","type":"uint32"},{"indexed":false,"internalType":"bytes32","name":"peer","type":"bytes32"}],"name":"PeerSet","type":"event"},{"inputs":[],"name":"SEND","outputs":[{"internalType":"uint16","name":"","type":"uint16"}],"stateMutability":"view","type":"function"},{"inputs":[{"components":[{"internalType":"uint32","name":"srcEid","type":"uint32"},{"internalType":"bytes32","name":"sender","type":"bytes32"},{"internalType":"uint64","name":"nonce","type":"uint64"}],"internalType":"struct Origin","name":"origin","type":"tuple"}],"name":"allowInitializePath","outputs":[{"internalType":"bool","name":"","type":"bool"}],"stateMutability":"view","type":"function"},{"inputs":[],"name":"count","outputs":[{"internalType":"uint256","name":"","type":"uint256"}],"stateMutability":"view","type":"function"},{"inputs":[],"name":"data","outputs":[{"internalType":"string","name":"","type":"string"}],"stateMutability":"view","type":"function"},{"inputs":[],"name":"endpoint","outputs":[{"internalType":"contract ILayerZeroEndpointV2","name":"","type":"address"}],"stateMutability":"view","type":"function"},{"inputs":[{"components":[{"internalType":"uint32","name":"srcEid","type":"uint32"},{"internalType":"bytes32","name":"sender","type":"bytes32"},{"internalType":"uint64","name":"nonce","type":"uint64"}],"internalType":"struct Origin","name":"","type":"tuple"},{"internalType":"bytes","name":"","type":"bytes"},{"internalType":"address","name":"_sender","type":"address"}],"name":"isComposeMsgSender","outputs":[{"internalType":"bool","name":"","type":"bool"}],"stateMutability":"view","type":"function"},{"inputs":[],"name":"liquidationSimulator","outputs":[{"internalType":"address","name":"","type":"address"}],"stateMutability":"view","type":"function"},{"inputs":[{"components":[{"internalType":"uint32","name":"srcEid","type":"uint32"},{"internalType":"bytes32","name":"sender","type":"bytes32"},{"internalType":"uint64","name":"nonce","type":"uint64"}],"internalType":"struct Origin","name":"_origin","type":"tuple"},{"internalType":"bytes32","name":"_guid","type":"bytes32"},{"internalType":"bytes","name":"_message","type":"bytes"},{"internalType":"address","name":"_executor","type":"address"},{"internalType":"bytes","name":"_extraData","type":"bytes"}],"name":"lzReceive","outputs":[],"stateMutability":"payable","type":"function"},{"inputs":[{"internalType":"uint32","name":"","type":"uint32"},{"internalType":"bytes32","name":"","type":"bytes32"}],"name":"nextNonce","outputs":[{"internalType":"uint64","name":"nonce","type":"uint64"}],"stateMutability":"view","type":"function"},{"inputs":[],"name":"oAppVersion","outputs":[{"internalType":"uint64","name":"senderVersion","type":"uint64"},{"internalType":"uint64","name":"receiverVersion","type":"uint64"}],"stateMutability":"pure","type":"function"},{"inputs":[],"name":"owner","outputs":[{"internalType":"address","name":"","type":"address"}],"stateMutability":"view","type":"function"},{"inputs":[{"internalType":"uint32","name":"eid","type":"uint32"}],"name":"peers","outputs":[{"internalType":"bytes32","name":"peer","type":"bytes32"}],"stateMutability":"view","type":"function"},{"inputs":[],"name":"renounceOwnership","outputs":[],"stateMutability":"nonpayable","type":"function"},{"inputs":[{"internalType":"uint32","name":"_dstEid","type":"uint32"},{"internalType":"string","name":"_message","type":"string"},{"internalType":"bytes","name":"_options","type":"bytes"}],"name":"send","outputs":[],"stateMutability":"payable","type":"function"},{"inputs":[{"internalType":"uint256","name":"_count","type":"uint256"}],"name":"setCount","outputs":[],"stateMutability":"nonpayable","type":"function"},{"inputs":[{"internalType":"address","name":"_delegate","type":"address"}],"name":"setDelegate","outputs":[],"stateMutability":"nonpayable","type":"function"},{"inputs":[{"internalType":"uint32","name":"_eid","type":"uint32"},{"internalType":"bytes32","name":"_peer","type":"bytes32"}],"name":"setPeer","outputs":[],"stateMutability":"nonpayable","type":"function"},{"inputs":[{"internalType":"address","name":"newOwner","type":"address"}],"name":"transferOwnership","outputs":[],"stateMutability":"nonpayable","type":"function"}],"evm":{"bytecode":{"linkReferences":{},"object":"60a060405234801561001057600080fd5b50604051612461380380612461833981810160405281019061003291906102f1565b8033818133600073ffffffffffffffffffffffffffffffffffffffff168173ffffffffffffffffffffffffffffffffffffffff16036100a95760006040517f1e4fbdf70000000000000000000000000000000000000000000000000000000081526004016100a0919061032d565b60405180910390fd5b6100b8816101ca60201b60201c565b508173ffffffffffffffffffffffffffffffffffffffff1660808173ffffffffffffffffffffffffffffffffffffffff1681525050600073ffffffffffffffffffffffffffffffffffffffff168173ffffffffffffffffffffffffffffffffffffffff1603610153576040517fb586360400000000000000000000000000000000000000000000000000000000815260040160405180910390fd5b60805173ffffffffffffffffffffffffffffffffffffffff1663ca5eb5e1826040518263ffffffff1660e01b815260040161018e919061032d565b600060405180830381600087803b1580156101a857600080fd5b505af11580156101bc573d6000803e3d6000fd5b505050505050505050610348565b60008060009054906101000a900473ffffffffffffffffffffffffffffffffffffffff169050816000806101000a81548173ffffffffffffffffffffffffffffffffffffffff021916908373ffffffffffffffffffffffffffffffffffffffff1602179055508173ffffffffffffffffffffffffffffffffffffffff168173ffffffffffffffffffffffffffffffffffffffff167f8be0079c531659141344cd1fd0a4f28419497f9722a3daafe3b4186f6b6457e060405160405180910390a35050565b600080fd5b600073ffffffffffffffffffffffffffffffffffffffff82169050919050565b60006102be82610293565b9050919050565b6102ce816102b3565b81146102d957600080fd5b50565b6000815190506102eb816102c5565b92915050565b6000602082840312156103075761030661028e565b5b6000610315848285016102dc565b91505092915050565b610327816102b3565b82525050565b6000602082019050610342600083018461031e565b92915050565b6080516120db6103866000396000818161044201528181610577015281816106ef01528181610b7301528181610e430152610f3e01526120db6000f3fe6080604052600436106101095760003560e01c806382413eac11610095578063ca5eb5e111610064578063ca5eb5e11461034f578063d14e62b814610378578063e0539e58146103a1578063f2fde38b146103bd578063ff7bd03d146103e657610109565b806382413eac1461027f5780638da5cb5b146102bc578063bb0b6a53146102e7578063bb6d625d1461032457610109565b80633400288b116100dc5780633400288b146101ac5780635e280f11146101d5578063715018a61461020057806373d4a13a146102175780637d25a05e1461024257610109565b806306661abd1461010e57806313137d651461013957806317442b70146101555780631f5e133414610181575b600080fd5b34801561011a57600080fd5b50610123610423565b6040516101309190611114565b60405180910390f35b610153600480360381019061014e9190611260565b610429565b005b34801561016157600080fd5b5061016a61054b565b60405161017892919061133f565b60405180910390f35b34801561018d57600080fd5b5061019661055a565b6040516101a39190611385565b60405180910390f35b3480156101b857600080fd5b506101d360048036038101906101ce91906113dc565b61055f565b005b3480156101e157600080fd5b506101ea610575565b6040516101f7919061147b565b60405180910390f35b34801561020c57600080fd5b50610215610599565b005b34801561022357600080fd5b5061022c6105ad565b6040516102399190611526565b60405180910390f35b34801561024e57600080fd5b50610269600480360381019061026491906113dc565b61063b565b6040516102769190611548565b60405180910390f35b34801561028b57600080fd5b506102a660048036038101906102a19190611563565b610643565b6040516102b391906115f2565b60405180910390f35b3480156102c857600080fd5b506102d161067e565b6040516102de919061161c565b60405180910390f35b3480156102f357600080fd5b5061030e60048036038101906103099190611637565b6106a7565b60405161031b9190611673565b60405180910390f35b34801561033057600080fd5b506103396106bf565b604051610346919061161c565b60405180910390f35b34801561035b57600080fd5b506103766004803603810190610371919061168e565b6106e5565b005b34801561038457600080fd5b5061039f600480360381019061039a91906116e7565b61077b565b005b6103bb60048036038101906103b69190611844565b610785565b005b3480156103c957600080fd5b506103e460048036038101906103df919061168e565b610817565b005b3480156103f257600080fd5b5061040d600480360381019061040891906118d4565b61089d565b60405161041a91906115f2565b60405180910390f35b60035481565b3373ffffffffffffffffffffffffffffffffffffffff167f000000000000000000000000000000000000000000000000000000000000000073ffffffffffffffffffffffffffffffffffffffff16146104b957336040517f91ac5e4f0000000000000000000000000000000000000000000000000000000081526004016104b0919061161c565b60405180910390fd5b86602001356104d98860000160208101906104d49190611637565b6108de565b14610533578660000160208101906104f19190611637565b87602001356040517fc26bebcc00000000000000000000000000000000000000000000000000000000815260040161052a929190611910565b60405180910390fd5b61054287878787878787610953565b50505050505050565b60008060016002915091509091565b600181565b610567610991565b6105718282610a18565b5050565b7f000000000000000000000000000000000000000000000000000000000000000081565b6105a1610991565b6105ab6000610a79565b565b600280546105ba90611968565b80601f01602080910402602001604051908101604052809291908181526020018280546105e690611968565b80156106335780601f1061060857610100808354040283529160200191610633565b820191906000526020600020905b81548152906001019060200180831161061657829003601f168201915b505050505081565b600092915050565b60003073ffffffffffffffffffffffffffffffffffffffff168273ffffffffffffffffffffffffffffffffffffffff16149050949350505050565b60008060009054906101000a900473ffffffffffffffffffffffffffffffffffffffff16905090565b60016020528060005260406000206000915090505481565b600460009054906101000a900473ffffffffffffffffffffffffffffffffffffffff1681565b6106ed610991565b7f000000000000000000000000000000000000000000000000000000000000000073ffffffffffffffffffffffffffffffffffffffff1663ca5eb5e1826040518263ffffffff1660e01b8152600401610746919061161c565b600060405180830381600087803b15801561076057600080fd5b505af1158015610774573d6000803e3d6000fd5b5050505050565b8060038190555050565b6000836040516020016107989190611526565b604051602081830303815290604052905061080f858285858080601f016020809104026020016040519081016040528093929190818152602001838380828437600081840152601f19601f820116905080830192505050505050506040518060400160405280348152602001600081525033610b3d565b505050505050565b61081f610991565b600073ffffffffffffffffffffffffffffffffffffffff168173ffffffffffffffffffffffffffffffffffffffff16036108915760006040517f1e4fbdf7000000000000000000000000000000000000000000000000000000008152600401610888919061161c565b60405180910390fd5b61089a81610a79565b50565b60008160200135600160008460000160208101906108bb9190611637565b63ffffffff1663ffffffff16815260200190815260200160002054149050919050565b600080600160008463ffffffff1663ffffffff1681526020019081526020016000205490506000801b810361094a57826040517ff6ff4fb70000000000000000000000000000000000000000000000000000000081526004016109419190611999565b60405180910390fd5b80915050919050565b6000858581019061096491906119b4565b905080600290816109759190611b9f565b5061097f81610c59565b610987610ddf565b5050505050505050565b610999610de9565b73ffffffffffffffffffffffffffffffffffffffff166109b761067e565b73ffffffffffffffffffffffffffffffffffffffff1614610a16576109da610de9565b6040517f118cdaa7000000000000000000000000000000000000000000000000000000008152600401610a0d919061161c565b60405180910390fd5b565b80600160008463ffffffff1663ffffffff168152602001908152602001600020819055507f238399d427b947898edb290f5ff0f9109849b1c3ba196a42e35f00c50a54b98b8282604051610a6d929190611910565b60405180910390a15050565b60008060009054906101000a900473ffffffffffffffffffffffffffffffffffffffff169050816000806101000a81548173ffffffffffffffffffffffffffffffffffffffff021916908373ffffffffffffffffffffffffffffffffffffffff1602179055508173ffffffffffffffffffffffffffffffffffffffff168173ffffffffffffffffffffffffffffffffffffffff167f8be0079c531659141344cd1fd0a4f28419497f9722a3daafe3b4186f6b6457e060405160405180910390a35050565b610b456110ad565b6000610b548460000151610df1565b9050600084602001511115610b7157610b708460200151610e3f565b5b7f000000000000000000000000000000000000000000000000000000000000000073ffffffffffffffffffffffffffffffffffffffff16632637a450826040518060a001604052808b63ffffffff168152602001610bce8c6108de565b81526020018a815260200189815260200160008960200151111515815250866040518463ffffffff1660e01b8152600401610c0a929190611d70565b60806040518083038185885af1158015610c28573d6000803e3d6000fd5b50505050506040513d601f19601f82011682018060405250810190610c4d9190611eaf565b91505095945050505050565b600080600083806020019051810190610c729190611f1a565b9250925092506000600460009054906101000a900473ffffffffffffffffffffffffffffffffffffffff1673ffffffffffffffffffffffffffffffffffffffff16848484604051602401610cc893929190611f6d565b6040516020818303038152906040527f31438225000000000000000000000000000000000000000000000000000000007bffffffffffffffffffffffffffffffffffffffffffffffffffffffff19166020820180517bffffffffffffffffffffffffffffffffffffffffffffffffffffffff8381831617835250505050604051610d529190611fe0565b6000604051808303816000865af19150503d8060008114610d8f576040519150601f19603f3d011682016040523d82523d6000602084013e610d94565b606091505b5050905080610dd8576040517f08c379a0000000000000000000000000000000000000000000000000000000008152600401610dcf90612043565b60405180910390fd5b5050505050565b600a600381905550565b600033905090565b6000813414610e3757346040517f9f704120000000000000000000000000000000000000000000000000000000008152600401610e2e9190611114565b60405180910390fd5b819050919050565b60007f000000000000000000000000000000000000000000000000000000000000000073ffffffffffffffffffffffffffffffffffffffff1663e4fe1d946040518163ffffffff1660e01b8152600401602060405180830381865afa158015610eac573d6000803e3d6000fd5b505050506040513d601f19601f82011682018060405250810190610ed09190612078565b9050600073ffffffffffffffffffffffffffffffffffffffff168173ffffffffffffffffffffffffffffffffffffffff1603610f38576040517f5373352a00000000000000000000000000000000000000000000000000000000815260040160405180910390fd5b610f85337f0000000000000000000000000000000000000000000000000000000000000000848473ffffffffffffffffffffffffffffffffffffffff16610f89909392919063ffffffff16565b5050565b611005848573ffffffffffffffffffffffffffffffffffffffff166323b872dd868686604051602401610fbe93929190611f6d565b604051602081830303815290604052915060e01b6020820180517bffffffffffffffffffffffffffffffffffffffffffffffffffffffff838183161783525050505061100b565b50505050565b600080602060008451602086016000885af18061102e576040513d6000823e3d81fd5b3d925060005191505060008214611049576001811415611065565b60008473ffffffffffffffffffffffffffffffffffffffff163b145b156110a757836040517f5274afe700000000000000000000000000000000000000000000000000000000815260040161109e919061161c565b60405180910390fd5b50505050565b604051806060016040528060008019168152602001600067ffffffffffffffff1681526020016110db6110e1565b81525090565b604051806040016040528060008152602001600081525090565b6000819050919050565b61110e816110fb565b82525050565b60006020820190506111296000830184611105565b92915050565b6000604051905090565b600080fd5b600080fd5b600080fd5b60006060828403121561115e5761115d611143565b5b81905092915050565b6000819050919050565b61117a81611167565b811461118557600080fd5b50565b60008135905061119781611171565b92915050565b600080fd5b600080fd5b600080fd5b60008083601f8401126111c2576111c161119d565b5b8235905067ffffffffffffffff8111156111df576111de6111a2565b5b6020830191508360018202830111156111fb576111fa6111a7565b5b9250929050565b600073ffffffffffffffffffffffffffffffffffffffff82169050919050565b600061122d82611202565b9050919050565b61123d81611222565b811461124857600080fd5b50565b60008135905061125a81611234565b92915050565b600080600080600080600060e0888a03121561127f5761127e611139565b5b600061128d8a828b01611148565b975050606061129e8a828b01611188565b965050608088013567ffffffffffffffff8111156112bf576112be61113e565b5b6112cb8a828b016111ac565b955095505060a06112de8a828b0161124b565b93505060c088013567ffffffffffffffff8111156112ff576112fe61113e565b5b61130b8a828b016111ac565b925092505092959891949750929550565b600067ffffffffffffffff82169050919050565b6113398161131c565b82525050565b60006040820190506113546000830185611330565b6113616020830184611330565b9392505050565b600061ffff82169050919050565b61137f81611368565b82525050565b600060208201905061139a6000830184611376565b92915050565b600063ffffffff82169050919050565b6113b9816113a0565b81146113c457600080fd5b50565b6000813590506113d6816113b0565b92915050565b600080604083850312156113f3576113f2611139565b5b6000611401858286016113c7565b925050602061141285828601611188565b9150509250929050565b6000819050919050565b600061144161143c61143784611202565b61141c565b611202565b9050919050565b600061145382611426565b9050919050565b600061146582611448565b9050919050565b6114758161145a565b82525050565b6000602082019050611490600083018461146c565b92915050565b600081519050919050565b600082825260208201905092915050565b60005b838110156114d05780820151818401526020810190506114b5565b60008484015250505050565b6000601f19601f8301169050919050565b60006114f882611496565b61150281856114a1565b93506115128185602086016114b2565b61151b816114dc565b840191505092915050565b6000602082019050818103600083015261154081846114ed565b905092915050565b600060208201905061155d6000830184611330565b92915050565b60008060008060a0858703121561157d5761157c611139565b5b600061158b87828801611148565b945050606085013567ffffffffffffffff8111156115ac576115ab61113e565b5b6115b8878288016111ac565b935093505060806115cb8782880161124b565b91505092959194509250565b60008115159050919050565b6115ec816115d7565b82525050565b600060208201905061160760008301846115e3565b92915050565b61161681611222565b82525050565b6000602082019050611631600083018461160d565b92915050565b60006020828403121561164d5761164c611139565b5b600061165b848285016113c7565b91505092915050565b61166d81611167565b82525050565b60006020820190506116886000830184611664565b92915050565b6000602082840312156116a4576116a3611139565b5b60006116b28482850161124b565b91505092915050565b6116c4816110fb565b81146116cf57600080fd5b50565b6000813590506116e1816116bb565b92915050565b6000602082840312156116fd576116fc611139565b5b600061170b848285016116d2565b91505092915050565b600080fd5b7f4e487b7100000000000000000000000000000000000000000000000000000000600052604160045260246000fd5b611751826114dc565b810181811067ffffffffffffffff821117156117705761176f611719565b5b80604052505050565b600061178361112f565b905061178f8282611748565b919050565b600067ffffffffffffffff8211156117af576117ae611719565b5b6117b8826114dc565b9050602081019050919050565b82818337600083830152505050565b60006117e76117e284611794565b611779565b90508281526020810184848401111561180357611802611714565b5b61180e8482856117c5565b509392505050565b600082601f83011261182b5761182a61119d565b5b813561183b8482602086016117d4565b91505092915050565b6000806000806060858703121561185e5761185d611139565b5b600061186c878288016113c7565b945050602085013567ffffffffffffffff81111561188d5761188c61113e565b5b61189987828801611816565b935050604085013567ffffffffffffffff8111156118ba576118b961113e565b5b6118c6878288016111ac565b925092505092959194509250565b6000606082840312156118ea576118e9611139565b5b60006118f884828501611148565b91505092915050565b61190a816113a0565b82525050565b60006040820190506119256000830185611901565b6119326020830184611664565b9392505050565b7f4e487b7100000000000000000000000000000000000000000000000000000000600052602260045260246000fd5b6000600282049050600182168061198057607f821691505b60208210810361199357611992611939565b5b50919050565b60006020820190506119ae6000830184611901565b92915050565b6000602082840312156119ca576119c9611139565b5b600082013567ffffffffffffffff8111156119e8576119e761113e565b5b6119f484828501611816565b91505092915050565b60008190508160005260206000209050919050565b60006020601f8301049050919050565b600082821b905092915050565b600060088302611a5f7fffffffffffffffffffffffffffffffffffffffffffffffffffffffffffffffff82611a22565b611a698683611a22565b95508019841693508086168417925050509392505050565b6000611a9c611a97611a92846110fb565b61141c565b6110fb565b9050919050565b6000819050919050565b611ab683611a81565b611aca611ac282611aa3565b848454611a2f565b825550505050565b600090565b611adf611ad2565b611aea818484611aad565b505050565b5b81811015611b0e57611b03600082611ad7565b600181019050611af0565b5050565b601f821115611b5357611b24816119fd565b611b2d84611a12565b81016020851015611b3c578190505b611b50611b4885611a12565b830182611aef565b50505b505050565b600082821c905092915050565b6000611b7660001984600802611b58565b1980831691505092915050565b6000611b8f8383611b65565b9150826002028217905092915050565b611ba882611496565b67ffffffffffffffff811115611bc157611bc0611719565b5b611bcb8254611968565b611bd6828285611b12565b600060209050601f831160018114611c095760008415611bf7578287015190505b611c018582611b83565b865550611c69565b601f198416611c17866119fd565b60005b82811015611c3f57848901518255600182019150602085019450602081019050611c1a565b86831015611c5c5784890151611c58601f891682611b65565b8355505b6001600288020188555050505b505050505050565b611c7a816113a0565b82525050565b611c8981611167565b82525050565b600081519050919050565b600082825260208201905092915050565b6000611cb682611c8f565b611cc08185611c9a565b9350611cd08185602086016114b2565b611cd9816114dc565b840191505092915050565b611ced816115d7565b82525050565b600060a083016000830151611d0b6000860182611c71565b506020830151611d1e6020860182611c80565b5060408301518482036040860152611d368282611cab565b91505060608301518482036060860152611d508282611cab565b9150506080830151611d656080860182611ce4565b508091505092915050565b60006040820190508181036000830152611d8a8185611cf3565b9050611d99602083018461160d565b9392505050565b600080fd5b600081519050611db481611171565b92915050565b611dc38161131c565b8114611dce57600080fd5b50565b600081519050611de081611dba565b92915050565b600081519050611df5816116bb565b92915050565b600060408284031215611e1157611e10611da0565b5b611e1b6040611779565b90506000611e2b84828501611de6565b6000830152506020611e3f84828501611de6565b60208301525092915050565b600060808284031215611e6157611e60611da0565b5b611e6b6060611779565b90506000611e7b84828501611da5565b6000830152506020611e8f84828501611dd1565b6020830152506040611ea384828501611dfb565b60408301525092915050565b600060808284031215611ec557611ec4611139565b5b6000611ed384828501611e4b565b91505092915050565b6000611ee782611202565b9050919050565b611ef781611edc565b8114611f0257600080fd5b50565b600081519050611f1481611eee565b92915050565b600080600060608486031215611f3357611f32611139565b5b6000611f4186828701611f05565b9350506020611f5286828701611f05565b9250506040611f6386828701611de6565b9150509250925092565b6000606082019050611f82600083018661160d565b611f8f602083018561160d565b611f9c6040830184611105565b949350505050565b600081905092915050565b6000611fba82611c8f565b611fc48185611fa4565b9350611fd48185602086016114b2565b80840191505092915050565b6000611fec8284611faf565b915081905092915050565b7f73696d756c6174654c69717569646174696f6e2063616c6c206661696c656400600082015250565b600061202d601f836114a1565b915061203882611ff7565b602082019050919050565b6000602082019050818103600083015261205c81612020565b9050919050565b60008151905061207281611234565b92915050565b60006020828403121561208e5761208d611139565b5b600061209c84828501612063565b9150509291505056fea26469706673582212204ad1770d578139123a6da11c05cc826d9197a98f4c68b4c0684f04c24d6d46e664736f6c634300081b0033","opcodes":"PUSH1 0xA0 PUSH1 0x40 MSTORE CALLVALUE DUP1 ISZERO PUSH2 0x10 JUMPI PUSH1 0x0 DUP1 REVERT JUMPDEST POP PUSH1 0x40 MLOAD PUSH2 0x2461 CODESIZE SUB DUP1 PUSH2 0x2461 DUP4 CODECOPY DUP2 DUP2 ADD PUSH1 0x40 MSTORE DUP2 ADD SWAP1 PUSH2 0x32 SWAP2 SWAP1 PUSH2 0x2F1 JUMP JUMPDEST DUP1 CALLER DUP2 DUP2 CALLER PUSH1 0x0 PUSH20 0xFFFFFFFFFFFFFFFFFFFFFFFFFFFFFFFFFFFFFFFF AND DUP2 PUSH20 0xFFFFFFFFFFFFFFFFFFFFFFFFFFFFFFFFFFFFFFFF AND SUB PUSH2 0xA9 JUMPI PUSH1 0x0 PUSH1 0x40 MLOAD PUSH32 0x1E4FBDF700000000000000000000000000000000000000000000000000000000 DUP2 MSTORE PUSH1 0x4 ADD PUSH2 0xA0 SWAP2 SWAP1 PUSH2 0x32D JUMP JUMPDEST PUSH1 0x40 MLOAD DUP1 SWAP2 SUB SWAP1 REVERT JUMPDEST PUSH2 0xB8 DUP2 PUSH2 0x1CA PUSH1 0x20 SHL PUSH1 0x20 SHR JUMP JUMPDEST POP DUP2 PUSH20 0xFFFFFFFFFFFFFFFFFFFFFFFFFFFFFFFFFFFFFFFF AND PUSH1 0x80 DUP2 PUSH20 0xFFFFFFFFFFFFFFFFFFFFFFFFFFFFFFFFFFFFFFFF AND DUP2 MSTORE POP POP PUSH1 0x0 PUSH20 0xFFFFFFFFFFFFFFFFFFFFFFFFFFFFFFFFFFFFFFFF AND DUP2 PUSH20 0xFFFFFFFFFFFFFFFFFFFFFFFFFFFFFFFFFFFFFFFF AND SUB PUSH2 0x153 JUMPI PUSH1 0x40 MLOAD PUSH32 0xB586360400000000000000000000000000000000000000000000000000000000 DUP2 MSTORE PUSH1 0x4 ADD PUSH1 0x40 MLOAD DUP1 SWAP2 SUB SWAP1 REVERT JUMPDEST PUSH1 0x80 MLOAD PUSH20 0xFFFFFFFFFFFFFFFFFFFFFFFFFFFFFFFFFFFFFFFF AND PUSH4 0xCA5EB5E1 DUP3 PUSH1 0x40 MLOAD DUP3 PUSH4 0xFFFFFFFF AND PUSH1 0xE0 SHL DUP2 MSTORE PUSH1 0x4 ADD PUSH2 0x18E SWAP2 SWAP1 PUSH2 0x32D JUMP JUMPDEST PUSH1 0x0 PUSH1 0x40 MLOAD DUP1 DUP4 SUB DUP2 PUSH1 0x0 DUP8 DUP1 EXTCODESIZE ISZERO DUP1 ISZERO PUSH2 0x1A8 JUMPI PUSH1 0x0 DUP1 REVERT JUMPDEST POP GAS CALL ISZERO DUP1 ISZERO PUSH2 0x1BC JUMPI RETURNDATASIZE PUSH1 0x0 DUP1 RETURNDATACOPY RETURNDATASIZE PUSH1 0x0 REVERT JUMPDEST POP POP POP POP POP POP POP POP POP PUSH2 0x348 JUMP JUMPDEST PUSH1 0x0 DUP1 PUSH1 0x0 SWAP1 SLOAD SWAP1 PUSH2 0x100 EXP SWAP1 DIV PUSH20 0xFFFFFFFFFFFFFFFFFFFFFFFFFFFFFFFFFFFFFFFF AND SWAP1 POP DUP2 PUSH1 0x0 DUP1 PUSH2 0x100 EXP DUP2 SLOAD DUP2 PUSH20 0xFFFFFFFFFFFFFFFFFFFFFFFFFFFFFFFFFFFFFFFF MUL NOT AND SWAP1 DUP4 PUSH20 0xFFFFFFFFFFFFFFFFFFFFFFFFFFFFFFFFFFFFFFFF AND MUL OR SWAP1 SSTORE POP DUP2 PUSH20 0xFFFFFFFFFFFFFFFFFFFFFFFFFFFFFFFFFFFFFFFF AND DUP2 PUSH20 0xFFFFFFFFFFFFFFFFFFFFFFFFFFFFFFFFFFFFFFFF AND PUSH32 0x8BE0079C531659141344CD1FD0A4F28419497F9722A3DAAFE3B4186F6B6457E0 PUSH1 0x40 MLOAD PUSH1 0x40 MLOAD DUP1 SWAP2 SUB SWAP1 LOG3 POP POP JUMP JUMPDEST PUSH1 0x0 DUP1 REVERT JUMPDEST PUSH1 0x0 PUSH20 0xFFFFFFFFFFFFFFFFFFFFFFFFFFFFFFFFFFFFFFFF DUP3 AND SWAP1 POP SWAP2 SWAP1 POP JUMP JUMPDEST PUSH1 0x0 PUSH2 0x2BE DUP3 PUSH2 0x293 JUMP JUMPDEST SWAP1 POP SWAP2 SWAP1 POP JUMP JUMPDEST PUSH2 0x2CE DUP2 PUSH2 0x2B3 JUMP JUMPDEST DUP2 EQ PUSH2 0x2D9 JUMPI PUSH1 0x0 DUP1 REVERT JUMPDEST POP JUMP JUMPDEST PUSH1 0x0 DUP2 MLOAD SWAP1 POP PUSH2 0x2EB DUP2 PUSH2 0x2C5 JUMP JUMPDEST SWAP3 SWAP2 POP POP JUMP JUMPDEST PUSH1 0x0 PUSH1 0x20 DUP3 DUP5 SUB SLT ISZERO PUSH2 0x307 JUMPI PUSH2 0x306 PUSH2 0x28E JUMP JUMPDEST JUMPDEST PUSH1 0x0 PUSH2 0x315 DUP5 DUP3 DUP6 ADD PUSH2 0x2DC JUMP JUMPDEST SWAP2 POP POP SWAP3 SWAP2 POP POP JUMP JUMPDEST PUSH2 0x327 DUP2 PUSH2 0x2B3 JUMP JUMPDEST DUP3 MSTORE POP POP JUMP JUMPDEST PUSH1 0x0 PUSH1 0x20 DUP3 ADD SWAP1 POP PUSH2 0x342 PUSH1 0x0 DUP4 ADD DUP5 PUSH2 0x31E JUMP JUMPDEST SWAP3 SWAP2 POP POP JUMP JUMPDEST PUSH1 0x80 MLOAD PUSH2 0x20DB PUSH2 0x386 PUSH1 0x0 CODECOPY PUSH1 0x0 DUP2 DUP2 PUSH2 0x442 ADD MSTORE DUP2 DUP2 PUSH2 0x577 ADD MSTORE DUP2 DUP2 PUSH2 0x6EF ADD MSTORE DUP2 DUP2 PUSH2 0xB73 ADD MSTORE DUP2 DUP2 PUSH2 0xE43 ADD MSTORE PUSH2 0xF3E ADD MSTORE PUSH2 0x20DB PUSH1 0x0 RETURN INVALID PUSH1 0x80 PUSH1 0x40 MSTORE PUSH1 0x4 CALLDATASIZE LT PUSH2 0x109 JUMPI PUSH1 0x0 CALLDATALOAD PUSH1 0xE0 SHR DUP1 PUSH4 0x82413EAC GT PUSH2 0x95 JUMPI DUP1 PUSH4 0xCA5EB5E1 GT PUSH2 0x64 JUMPI DUP1 PUSH4 0xCA5EB5E1 EQ PUSH2 0x34F JUMPI DUP1 PUSH4 0xD14E62B8 EQ PUSH2 0x378 JUMPI DUP1 PUSH4 0xE0539E58 EQ PUSH2 0x3A1 JUMPI DUP1 PUSH4 0xF2FDE38B EQ PUSH2 0x3BD JUMPI DUP1 PUSH4 0xFF7BD03D EQ PUSH2 0x3E6 JUMPI PUSH2 0x109 JUMP JUMPDEST DUP1 PUSH4 0x82413EAC EQ PUSH2 0x27F JUMPI DUP1 PUSH4 0x8DA5CB5B EQ PUSH2 0x2BC JUMPI DUP1 PUSH4 0xBB0B6A53 EQ PUSH2 0x2E7 JUMPI DUP1 PUSH4 0xBB6D625D EQ PUSH2 0x324 JUMPI PUSH2 0x109 JUMP JUMPDEST DUP1 PUSH4 0x3400288B GT PUSH2 0xDC JUMPI DUP1 PUSH4 0x3400288B EQ PUSH2 0x1AC JUMPI DUP1 PUSH4 0x5E280F11 EQ PUSH2 0x1D5 JUMPI DUP1 PUSH4 0x715018A6 EQ PUSH2 0x200 JUMPI DUP1 PUSH4 0x73D4A13A EQ PUSH2 0x217 JUMPI DUP1 PUSH4 0x7D25A05E EQ PUSH2 0x242 JUMPI PUSH2 0x109 JUMP JUMPDEST DUP1 PUSH4 0x6661ABD EQ PUSH2 0x10E JUMPI DUP1 PUSH4 0x13137D65 EQ PUSH2 0x139 JUMPI DUP1 PUSH4 0x17442B70 EQ PUSH2 0x155 JUMPI DUP1 PUSH4 0x1F5E1334 EQ PUSH2 0x181 JUMPI JUMPDEST PUSH1 0x0 DUP1 REVERT JUMPDEST CALLVALUE DUP1 ISZERO PUSH2 0x11A JUMPI PUSH1 0x0 DUP1 REVERT JUMPDEST POP PUSH2 0x123 PUSH2 0x423 JUMP JUMPDEST PUSH1 0x40 MLOAD PUSH2 0x130 SWAP2 SWAP1 PUSH2 0x1114 JUMP JUMPDEST PUSH1 0x40 MLOAD DUP1 SWAP2 SUB SWAP1 RETURN JUMPDEST PUSH2 0x153 PUSH1 0x4 DUP1 CALLDATASIZE SUB DUP2 ADD SWAP1 PUSH2 0x14E SWAP2 SWAP1 PUSH2 0x1260 JUMP JUMPDEST PUSH2 0x429 JUMP JUMPDEST STOP JUMPDEST CALLVALUE DUP1 ISZERO PUSH2 0x161 JUMPI PUSH1 0x0 DUP1 REVERT JUMPDEST POP PUSH2 0x16A PUSH2 0x54B JUMP JUMPDEST PUSH1 0x40 MLOAD PUSH2 0x178 SWAP3 SWAP2 SWAP1 PUSH2 0x133F JUMP JUMPDEST PUSH1 0x40 MLOAD DUP1 SWAP2 SUB SWAP1 RETURN JUMPDEST CALLVALUE DUP1 ISZERO PUSH2 0x18D JUMPI PUSH1 0x0 DUP1 REVERT JUMPDEST POP PUSH2 0x196 PUSH2 0x55A JUMP JUMPDEST PUSH1 0x40 MLOAD PUSH2 0x1A3 SWAP2 SWAP1 PUSH2 0x1385 JUMP JUMPDEST PUSH1 0x40 MLOAD DUP1 SWAP2 SUB SWAP1 RETURN JUMPDEST CALLVALUE DUP1 ISZERO PUSH2 0x1B8 JUMPI PUSH1 0x0 DUP1 REVERT JUMPDEST POP PUSH2 0x1D3 PUSH1 0x4 DUP1 CALLDATASIZE SUB DUP2 ADD SWAP1 PUSH2 0x1CE SWAP2 SWAP1 PUSH2 0x13DC JUMP JUMPDEST PUSH2 0x55F JUMP JUMPDEST STOP JUMPDEST CALLVALUE DUP1 ISZERO PUSH2 0x1E1 JUMPI PUSH1 0x0 DUP1 REVERT JUMPDEST POP PUSH2 0x1EA PUSH2 0x575 JUMP JUMPDEST PUSH1 0x40 MLOAD PUSH2 0x1F7 SWAP2 SWAP1 PUSH2 0x147B JUMP JUMPDEST PUSH1 0x40 MLOAD DUP1 SWAP2 SUB SWAP1 RETURN JUMPDEST CALLVALUE DUP1 ISZERO PUSH2 0x20C JUMPI PUSH1 0x0 DUP1 REVERT JUMPDEST POP PUSH2 0x215 PUSH2 0x599 JUMP JUMPDEST STOP JUMPDEST CALLVALUE DUP1 ISZERO PUSH2 0x223 JUMPI PUSH1 0x0 DUP1 REVERT JUMPDEST POP PUSH2 0x22C PUSH2 0x5AD JUMP JUMPDEST PUSH1 0x40 MLOAD PUSH2 0x239 SWAP2 SWAP1 PUSH2 0x1526 JUMP JUMPDEST PUSH1 0x40 MLOAD DUP1 SWAP2 SUB SWAP1 RETURN JUMPDEST CALLVALUE DUP1 ISZERO PUSH2 0x24E JUMPI PUSH1 0x0 DUP1 REVERT JUMPDEST POP PUSH2 0x269 PUSH1 0x4 DUP1 CALLDATASIZE SUB DUP2 ADD SWAP1 PUSH2 0x264 SWAP2 SWAP1 PUSH2 0x13DC JUMP JUMPDEST PUSH2 0x63B JUMP JUMPDEST PUSH1 0x40 MLOAD PUSH2 0x276 SWAP2 SWAP1 PUSH2 0x1548 JUMP JUMPDEST PUSH1 0x40 MLOAD DUP1 SWAP2 SUB SWAP1 RETURN JUMPDEST CALLVALUE DUP1 ISZERO PUSH2 0x28B JUMPI PUSH1 0x0 DUP1 REVERT JUMPDEST POP PUSH2 0x2A6 PUSH1 0x4 DUP1 CALLDATASIZE SUB DUP2 ADD SWAP1 PUSH2 0x2A1 SWAP2 SWAP1 PUSH2 0x1563 JUMP JUMPDEST PUSH2 0x643 JUMP JUMPDEST PUSH1 0x40 MLOAD PUSH2 0x2B3 SWAP2 SWAP1 PUSH2 0x15F2 JUMP JUMPDEST PUSH1 0x40 MLOAD DUP1 SWAP2 SUB SWAP1 RETURN JUMPDEST CALLVALUE DUP1 ISZERO PUSH2 0x2C8 JUMPI PUSH1 0x0 DUP1 REVERT JUMPDEST POP PUSH2 0x2D1 PUSH2 0x67E JUMP JUMPDEST PUSH1 0x40 MLOAD PUSH2 0x2DE SWAP2 SWAP1 PUSH2 0x161C JUMP JUMPDEST PUSH1 0x40 MLOAD DUP1 SWAP2 SUB SWAP1 RETURN JUMPDEST CALLVALUE DUP1 ISZERO PUSH2 0x2F3 JUMPI PUSH1 0x0 DUP1 REVERT JUMPDEST POP PUSH2 0x30E PUSH1 0x4 DUP1 CALLDATASIZE SUB DUP2 ADD SWAP1 PUSH2 0x309 SWAP2 SWAP1 PUSH2 0x1637 JUMP JUMPDEST PUSH2 0x6A7 JUMP JUMPDEST PUSH1 0x40 MLOAD PUSH2 0x31B SWAP2 SWAP1 PUSH2 0x1673 JUMP JUMPDEST PUSH1 0x40 MLOAD DUP1 SWAP2 SUB SWAP1 RETURN JUMPDEST CALLVALUE DUP1 ISZERO PUSH2 0x330 JUMPI PUSH1 0x0 DUP1 REVERT JUMPDEST POP PUSH2 0x339 PUSH2 0x6BF JUMP JUMPDEST PUSH1 0x40 MLOAD PUSH2 0x346 SWAP2 SWAP1 PUSH2 0x161C JUMP JUMPDEST PUSH1 0x40 MLOAD DUP1 SWAP2 SUB SWAP1 RETURN JUMPDEST CALLVALUE DUP1 ISZERO PUSH2 0x35B JUMPI PUSH1 0x0 DUP1 REVERT JUMPDEST POP PUSH2 0x376 PUSH1 0x4 DUP1 CALLDATASIZE SUB DUP2 ADD SWAP1 PUSH2 0x371 SWAP2 SWAP1 PUSH2 0x168E JUMP JUMPDEST PUSH2 0x6E5 JUMP JUMPDEST STOP JUMPDEST CALLVALUE DUP1 ISZERO PUSH2 0x384 JUMPI PUSH1 0x0 DUP1 REVERT JUMPDEST POP PUSH2 0x39F PUSH1 0x4 DUP1 CALLDATASIZE SUB DUP2 ADD SWAP1 PUSH2 0x39A SWAP2 SWAP1 PUSH2 0x16E7 JUMP JUMPDEST PUSH2 0x77B JUMP JUMPDEST STOP JUMPDEST PUSH2 0x3BB PUSH1 0x4 DUP1 CALLDATASIZE SUB DUP2 ADD SWAP1 PUSH2 0x3B6 SWAP2 SWAP1 PUSH2 0x1844 JUMP JUMPDEST PUSH2 0x785 JUMP JUMPDEST STOP JUMPDEST CALLVALUE DUP1 ISZERO PUSH2 0x3C9 JUMPI PUSH1 0x0 DUP1 REVERT JUMPDEST POP PUSH2 0x3E4 PUSH1 0x4 DUP1 CALLDATASIZE SUB DUP2 ADD SWAP1 PUSH2 0x3DF SWAP2 SWAP1 PUSH2 0x168E JUMP JUMPDEST PUSH2 0x817 JUMP JUMPDEST STOP JUMPDEST CALLVALUE DUP1 ISZERO PUSH2 0x3F2 JUMPI PUSH1 0x0 DUP1 REVERT JUMPDEST POP PUSH2 0x40D PUSH1 0x4 DUP1 CALLDATASIZE SUB DUP2 ADD SWAP1 PUSH2 0x408 SWAP2 SWAP1 PUSH2 0x18D4 JUMP JUMPDEST PUSH2 0x89D JUMP JUMPDEST PUSH1 0x40 MLOAD PUSH2 0x41A SWAP2 SWAP1 PUSH2 0x15F2 JUMP JUMPDEST PUSH1 0x40 MLOAD DUP1 SWAP2 SUB SWAP1 RETURN JUMPDEST PUSH1 0x3 SLOAD DUP2 JUMP JUMPDEST CALLER PUSH20 0xFFFFFFFFFFFFFFFFFFFFFFFFFFFFFFFFFFFFFFFF AND PUSH32 0x0 PUSH20 0xFFFFFFFFFFFFFFFFFFFFFFFFFFFFFFFFFFFFFFFF AND EQ PUSH2 0x4B9 JUMPI CALLER PUSH1 0x40 MLOAD PUSH32 0x91AC5E4F00000000000000000000000000000000000000000000000000000000 DUP2 MSTORE PUSH1 0x4 ADD PUSH2 0x4B0 SWAP2 SWAP1 PUSH2 0x161C JUMP JUMPDEST PUSH1 0x40 MLOAD DUP1 SWAP2 SUB SWAP1 REVERT JUMPDEST DUP7 PUSH1 0x20 ADD CALLDATALOAD PUSH2 0x4D9 DUP9 PUSH1 0x0 ADD PUSH1 0x20 DUP2 ADD SWAP1 PUSH2 0x4D4 SWAP2 SWAP1 PUSH2 0x1637 JUMP JUMPDEST PUSH2 0x8DE JUMP JUMPDEST EQ PUSH2 0x533 JUMPI DUP7 PUSH1 0x0 ADD PUSH1 0x20 DUP2 ADD SWAP1 PUSH2 0x4F1 SWAP2 SWAP1 PUSH2 0x1637 JUMP JUMPDEST DUP8 PUSH1 0x20 ADD CALLDATALOAD PUSH1 0x40 MLOAD PUSH32 0xC26BEBCC00000000000000000000000000000000000000000000000000000000 DUP2 MSTORE PUSH1 0x4 ADD PUSH2 0x52A SWAP3 SWAP2 SWAP1 PUSH2 0x1910 JUMP JUMPDEST PUSH1 0x40 MLOAD DUP1 SWAP2 SUB SWAP1 REVERT JUMPDEST PUSH2 0x542 DUP8 DUP8 DUP8 DUP8 DUP8 DUP8 DUP8 PUSH2 0x953 JUMP JUMPDEST POP POP POP POP POP POP POP JUMP JUMPDEST PUSH1 0x0 DUP1 PUSH1 0x1 PUSH1 0x2 SWAP2 POP SWAP2 POP SWAP1 SWAP2 JUMP JUMPDEST PUSH1 0x1 DUP2 JUMP JUMPDEST PUSH2 0x567 PUSH2 0x991 JUMP JUMPDEST PUSH2 0x571 DUP3 DUP3 PUSH2 0xA18 JUMP JUMPDEST POP POP JUMP JUMPDEST PUSH32 0x0 DUP2 JUMP JUMPDEST PUSH2 0x5A1 PUSH2 0x991 JUMP JUMPDEST PUSH2 0x5AB PUSH1 0x0 PUSH2 0xA79 JUMP JUMPDEST JUMP JUMPDEST PUSH1 0x2 DUP1 SLOAD PUSH2 0x5BA SWAP1 PUSH2 0x1968 JUMP JUMPDEST DUP1 PUSH1 0x1F ADD PUSH1 0x20 DUP1 SWAP2 DIV MUL PUSH1 0x20 ADD PUSH1 0x40 MLOAD SWAP1 DUP2 ADD PUSH1 0x40 MSTORE DUP1 SWAP3 SWAP2 SWAP1 DUP2 DUP2 MSTORE PUSH1 0x20 ADD DUP3 DUP1 SLOAD PUSH2 0x5E6 SWAP1 PUSH2 0x1968 JUMP JUMPDEST DUP1 ISZERO PUSH2 0x633 JUMPI DUP1 PUSH1 0x1F LT PUSH2 0x608 JUMPI PUSH2 0x100 DUP1 DUP4 SLOAD DIV MUL DUP4 MSTORE SWAP2 PUSH1 0x20 ADD SWAP2 PUSH2 0x633 JUMP JUMPDEST DUP3 ADD SWAP2 SWAP1 PUSH1 0x0 MSTORE PUSH1 0x20 PUSH1 0x0 KECCAK256 SWAP1 JUMPDEST DUP2 SLOAD DUP2 MSTORE SWAP1 PUSH1 0x1 ADD SWAP1 PUSH1 0x20 ADD DUP1 DUP4 GT PUSH2 0x616 JUMPI DUP3 SWAP1 SUB PUSH1 0x1F AND DUP3 ADD SWAP2 JUMPDEST POP POP POP POP POP DUP2 JUMP JUMPDEST PUSH1 0x0 SWAP3 SWAP2 POP POP JUMP JUMPDEST PUSH1 0x0 ADDRESS PUSH20 0xFFFFFFFFFFFFFFFFFFFFFFFFFFFFFFFFFFFFFFFF AND DUP3 PUSH20 0xFFFFFFFFFFFFFFFFFFFFFFFFFFFFFFFFFFFFFFFF AND EQ SWAP1 POP SWAP5 SWAP4 POP POP POP POP JUMP JUMPDEST PUSH1 0x0 DUP1 PUSH1 0x0 SWAP1 SLOAD SWAP1 PUSH2 0x100 EXP SWAP1 DIV PUSH20 0xFFFFFFFFFFFFFFFFFFFFFFFFFFFFFFFFFFFFFFFF AND SWAP1 POP SWAP1 JUMP JUMPDEST PUSH1 0x1 PUSH1 0x20 MSTORE DUP1 PUSH1 0x0 MSTORE PUSH1 0x40 PUSH1 0x0 KECCAK256 PUSH1 0x0 SWAP2 POP SWAP1 POP SLOAD DUP2 JUMP JUMPDEST PUSH1 0x4 PUSH1 0x0 SWAP1 SLOAD SWAP1 PUSH2 0x100 EXP SWAP1 DIV PUSH20 0xFFFFFFFFFFFFFFFFFFFFFFFFFFFFFFFFFFFFFFFF AND DUP2 JUMP JUMPDEST PUSH2 0x6ED PUSH2 0x991 JUMP JUMPDEST PUSH32 0x0 PUSH20 0xFFFFFFFFFFFFFFFFFFFFFFFFFFFFFFFFFFFFFFFF AND PUSH4 0xCA5EB5E1 DUP3 PUSH1 0x40 MLOAD DUP3 PUSH4 0xFFFFFFFF AND PUSH1 0xE0 SHL DUP2 MSTORE PUSH1 0x4 ADD PUSH2 0x746 SWAP2 SWAP1 PUSH2 0x161C JUMP JUMPDEST PUSH1 0x0 PUSH1 0x40 MLOAD DUP1 DUP4 SUB DUP2 PUSH1 0x0 DUP8 DUP1 EXTCODESIZE ISZERO DUP1 ISZERO PUSH2 0x760 JUMPI PUSH1 0x0 DUP1 REVERT JUMPDEST POP GAS CALL ISZERO DUP1 ISZERO PUSH2 0x774 JUMPI RETURNDATASIZE PUSH1 0x0 DUP1 RETURNDATACOPY RETURNDATASIZE PUSH1 0x0 REVERT JUMPDEST POP POP POP POP POP JUMP JUMPDEST DUP1 PUSH1 0x3 DUP2 SWAP1 SSTORE POP POP JUMP JUMPDEST PUSH1 0x0 DUP4 PUSH1 0x40 MLOAD PUSH1 0x20 ADD PUSH2 0x798 SWAP2 SWAP1 PUSH2 0x1526 JUMP JUMPDEST PUSH1 0x40 MLOAD PUSH1 0x20 DUP2 DUP4 SUB SUB DUP2 MSTORE SWAP1 PUSH1 0x40 MSTORE SWAP1 POP PUSH2 0x80F DUP6 DUP3 DUP6 DUP6 DUP1 DUP1 PUSH1 0x1F ADD PUSH1 0x20 DUP1 SWAP2 DIV MUL PUSH1 0x20 ADD PUSH1 0x40 MLOAD SWAP1 DUP2 ADD PUSH1 0x40 MSTORE DUP1 SWAP4 SWAP3 SWAP2 SWAP1 DUP2 DUP2 MSTORE PUSH1 0x20 ADD DUP4 DUP4 DUP1 DUP3 DUP5 CALLDATACOPY PUSH1 0x0 DUP2 DUP5 ADD MSTORE PUSH1 0x1F NOT PUSH1 0x1F DUP3 ADD AND SWAP1 POP DUP1 DUP4 ADD SWAP3 POP POP POP POP POP POP POP PUSH1 0x40 MLOAD DUP1 PUSH1 0x40 ADD PUSH1 0x40 MSTORE DUP1 CALLVALUE DUP2 MSTORE PUSH1 0x20 ADD PUSH1 0x0 DUP2 MSTORE POP CALLER PUSH2 0xB3D JUMP JUMPDEST POP POP POP POP POP POP JUMP JUMPDEST PUSH2 0x81F PUSH2 0x991 JUMP JUMPDEST PUSH1 0x0 PUSH20 0xFFFFFFFFFFFFFFFFFFFFFFFFFFFFFFFFFFFFFFFF AND DUP2 PUSH20 0xFFFFFFFFFFFFFFFFFFFFFFFFFFFFFFFFFFFFFFFF AND SUB PUSH2 0x891 JUMPI PUSH1 0x0 PUSH1 0x40 MLOAD PUSH32 0x1E4FBDF700000000000000000000000000000000000000000000000000000000 DUP2 MSTORE PUSH1 0x4 ADD PUSH2 0x888 SWAP2 SWAP1 PUSH2 0x161C JUMP JUMPDEST PUSH1 0x40 MLOAD DUP1 SWAP2 SUB SWAP1 REVERT JUMPDEST PUSH2 0x89A DUP2 PUSH2 0xA79 JUMP JUMPDEST POP JUMP JUMPDEST PUSH1 0x0 DUP2 PUSH1 0x20 ADD CALLDATALOAD PUSH1 0x1 PUSH1 0x0 DUP5 PUSH1 0x0 ADD PUSH1 0x20 DUP2 ADD SWAP1 PUSH2 0x8BB SWAP2 SWAP1 PUSH2 0x1637 JUMP JUMPDEST PUSH4 0xFFFFFFFF AND PUSH4 0xFFFFFFFF AND DUP2 MSTORE PUSH1 0x20 ADD SWAP1 DUP2 MSTORE PUSH1 0x20 ADD PUSH1 0x0 KECCAK256 SLOAD EQ SWAP1 POP SWAP2 SWAP1 POP JUMP JUMPDEST PUSH1 0x0 DUP1 PUSH1 0x1 PUSH1 0x0 DUP5 PUSH4 0xFFFFFFFF AND PUSH4 0xFFFFFFFF AND DUP2 MSTORE PUSH1 0x20 ADD SWAP1 DUP2 MSTORE PUSH1 0x20 ADD PUSH1 0x0 KECCAK256 SLOAD SWAP1 POP PUSH1 0x0 DUP1 SHL DUP2 SUB PUSH2 0x94A JUMPI DUP3 PUSH1 0x40 MLOAD PUSH32 0xF6FF4FB700000000000000000000000000000000000000000000000000000000 DUP2 MSTORE PUSH1 0x4 ADD PUSH2 0x941 SWAP2 SWAP1 PUSH2 0x1999 JUMP JUMPDEST PUSH1 0x40 MLOAD DUP1 SWAP2 SUB SWAP1 REVERT JUMPDEST DUP1 SWAP2 POP POP SWAP2 SWAP1 POP JUMP JUMPDEST PUSH1 0x0 DUP6 DUP6 DUP2 ADD SWAP1 PUSH2 0x964 SWAP2 SWAP1 PUSH2 0x19B4 JUMP JUMPDEST SWAP1 POP DUP1 PUSH1 0x2 SWAP1 DUP2 PUSH2 0x975 SWAP2 SWAP1 PUSH2 0x1B9F JUMP JUMPDEST POP PUSH2 0x97F DUP2 PUSH2 0xC59 JUMP JUMPDEST PUSH2 0x987 PUSH2 0xDDF JUMP JUMPDEST POP POP POP POP POP POP POP POP JUMP JUMPDEST PUSH2 0x999 PUSH2 0xDE9 JUMP JUMPDEST PUSH20 0xFFFFFFFFFFFFFFFFFFFFFFFFFFFFFFFFFFFFFFFF AND PUSH2 0x9B7 PUSH2 0x67E JUMP JUMPDEST PUSH20 0xFFFFFFFFFFFFFFFFFFFFFFFFFFFFFFFFFFFFFFFF AND EQ PUSH2 0xA16 JUMPI PUSH2 0x9DA PUSH2 0xDE9 JUMP JUMPDEST PUSH1 0x40 MLOAD PUSH32 0x118CDAA700000000000000000000000000000000000000000000000000000000 DUP2 MSTORE PUSH1 0x4 ADD PUSH2 0xA0D SWAP2 SWAP1 PUSH2 0x161C JUMP JUMPDEST PUSH1 0x40 MLOAD DUP1 SWAP2 SUB SWAP1 REVERT JUMPDEST JUMP JUMPDEST DUP1 PUSH1 0x1 PUSH1 0x0 DUP5 PUSH4 0xFFFFFFFF AND PUSH4 0xFFFFFFFF AND DUP2 MSTORE PUSH1 0x20 ADD SWAP1 DUP2 MSTORE PUSH1 0x20 ADD PUSH1 0x0 KECCAK256 DUP2 SWAP1 SSTORE POP PUSH32 0x238399D427B947898EDB290F5FF0F9109849B1C3BA196A42E35F00C50A54B98B DUP3 DUP3 PUSH1 0x40 MLOAD PUSH2 0xA6D SWAP3 SWAP2 SWAP1 PUSH2 0x1910 JUMP JUMPDEST PUSH1 0x40 MLOAD DUP1 SWAP2 SUB SWAP1 LOG1 POP POP JUMP JUMPDEST PUSH1 0x0 DUP1 PUSH1 0x0 SWAP1 SLOAD SWAP1 PUSH2 0x100 EXP SWAP1 DIV PUSH20 0xFFFFFFFFFFFFFFFFFFFFFFFFFFFFFFFFFFFFFFFF AND SWAP1 POP DUP2 PUSH1 0x0 DUP1 PUSH2 0x100 EXP DUP2 SLOAD DUP2 PUSH20 0xFFFFFFFFFFFFFFFFFFFFFFFFFFFFFFFFFFFFFFFF MUL NOT AND SWAP1 DUP4 PUSH20 0xFFFFFFFFFFFFFFFFFFFFFFFFFFFFFFFFFFFFFFFF AND MUL OR SWAP1 SSTORE POP DUP2 PUSH20 0xFFFFFFFFFFFFFFFFFFFFFFFFFFFFFFFFFFFFFFFF AND DUP2 PUSH20 0xFFFFFFFFFFFFFFFFFFFFFFFFFFFFFFFFFFFFFFFF AND PUSH32 0x8BE0079C531659141344CD1FD0A4F28419497F9722A3DAAFE3B4186F6B6457E0 PUSH1 0x40 MLOAD PUSH1 0x40 MLOAD DUP1 SWAP2 SUB SWAP1 LOG3 POP POP JUMP JUMPDEST PUSH2 0xB45 PUSH2 0x10AD JUMP JUMPDEST PUSH1 0x0 PUSH2 0xB54 DUP5 PUSH1 0x0 ADD MLOAD PUSH2 0xDF1 JUMP JUMPDEST SWAP1 POP PUSH1 0x0 DUP5 PUSH1 0x20 ADD MLOAD GT ISZERO PUSH2 0xB71 JUMPI PUSH2 0xB70 DUP5 PUSH1 0x20 ADD MLOAD PUSH2 0xE3F JUMP JUMPDEST JUMPDEST PUSH32 0x0 PUSH20 0xFFFFFFFFFFFFFFFFFFFFFFFFFFFFFFFFFFFFFFFF AND PUSH4 0x2637A450 DUP3 PUSH1 0x40 MLOAD DUP1 PUSH1 0xA0 ADD PUSH1 0x40 MSTORE DUP1 DUP12 PUSH4 0xFFFFFFFF AND DUP2 MSTORE PUSH1 0x20 ADD PUSH2 0xBCE DUP13 PUSH2 0x8DE JUMP JUMPDEST DUP2 MSTORE PUSH1 0x20 ADD DUP11 DUP2 MSTORE PUSH1 0x20 ADD DUP10 DUP2 MSTORE PUSH1 0x20 ADD PUSH1 0x0 DUP10 PUSH1 0x20 ADD MLOAD GT ISZERO ISZERO DUP2 MSTORE POP DUP7 PUSH1 0x40 MLOAD DUP5 PUSH4 0xFFFFFFFF AND PUSH1 0xE0 SHL DUP2 MSTORE PUSH1 0x4 ADD PUSH2 0xC0A SWAP3 SWAP2 SWAP1 PUSH2 0x1D70 JUMP JUMPDEST PUSH1 0x80 PUSH1 0x40 MLOAD DUP1 DUP4 SUB DUP2 DUP6 DUP9 GAS CALL ISZERO DUP1 ISZERO PUSH2 0xC28 JUMPI RETURNDATASIZE PUSH1 0x0 DUP1 RETURNDATACOPY RETURNDATASIZE PUSH1 0x0 REVERT JUMPDEST POP POP POP POP POP PUSH1 0x40 MLOAD RETURNDATASIZE PUSH1 0x1F NOT PUSH1 0x1F DUP3 ADD AND DUP3 ADD DUP1 PUSH1 0x40 MSTORE POP DUP2 ADD SWAP1 PUSH2 0xC4D SWAP2 SWAP1 PUSH2 0x1EAF JUMP JUMPDEST SWAP2 POP POP SWAP6 SWAP5 POP POP POP POP POP JUMP JUMPDEST PUSH1 0x0 DUP1 PUSH1 0x0 DUP4 DUP1 PUSH1 0x20 ADD SWAP1 MLOAD DUP2 ADD SWAP1 PUSH2 0xC72 SWAP2 SWAP1 PUSH2 0x1F1A JUMP JUMPDEST SWAP3 POP SWAP3 POP SWAP3 POP PUSH1 0x0 PUSH1 0x4 PUSH1 0x0 SWAP1 SLOAD SWAP1 PUSH2 0x100 EXP SWAP1 DIV PUSH20 0xFFFFFFFFFFFFFFFFFFFFFFFFFFFFFFFFFFFFFFFF AND PUSH20 0xFFFFFFFFFFFFFFFFFFFFFFFFFFFFFFFFFFFFFFFF AND DUP5 DUP5 DUP5 PUSH1 0x40 MLOAD PUSH1 0x24 ADD PUSH2 0xCC8 SWAP4 SWAP3 SWAP2 SWAP1 PUSH2 0x1F6D JUMP JUMPDEST PUSH1 0x40 MLOAD PUSH1 0x20 DUP2 DUP4 SUB SUB DUP2 MSTORE SWAP1 PUSH1 0x40 MSTORE PUSH32 0x3143822500000000000000000000000000000000000000000000000000000000 PUSH28 0xFFFFFFFFFFFFFFFFFFFFFFFFFFFFFFFFFFFFFFFFFFFFFFFFFFFFFFFF NOT AND PUSH1 0x20 DUP3 ADD DUP1 MLOAD PUSH28 0xFFFFFFFFFFFFFFFFFFFFFFFFFFFFFFFFFFFFFFFFFFFFFFFFFFFFFFFF DUP4 DUP2 DUP4 AND OR DUP4 MSTORE POP POP POP POP PUSH1 0x40 MLOAD PUSH2 0xD52 SWAP2 SWAP1 PUSH2 0x1FE0 JUMP JUMPDEST PUSH1 0x0 PUSH1 0x40 MLOAD DUP1 DUP4 SUB DUP2 PUSH1 0x0 DUP7 GAS CALL SWAP2 POP POP RETURNDATASIZE DUP1 PUSH1 0x0 DUP2 EQ PUSH2 0xD8F JUMPI PUSH1 0x40 MLOAD SWAP2 POP PUSH1 0x1F NOT PUSH1 0x3F RETURNDATASIZE ADD AND DUP3 ADD PUSH1 0x40 MSTORE RETURNDATASIZE DUP3 MSTORE RETURNDATASIZE PUSH1 0x0 PUSH1 0x20 DUP5 ADD RETURNDATACOPY PUSH2 0xD94 JUMP JUMPDEST PUSH1 0x60 SWAP2 POP JUMPDEST POP POP SWAP1 POP DUP1 PUSH2 0xDD8 JUMPI PUSH1 0x40 MLOAD PUSH32 0x8C379A000000000000000000000000000000000000000000000000000000000 DUP2 MSTORE PUSH1 0x4 ADD PUSH2 0xDCF SWAP1 PUSH2 0x2043 JUMP JUMPDEST PUSH1 0x40 MLOAD DUP1 SWAP2 SUB SWAP1 REVERT JUMPDEST POP POP POP POP POP JUMP JUMPDEST PUSH1 0xA PUSH1 0x3 DUP2 SWAP1 SSTORE POP JUMP JUMPDEST PUSH1 0x0 CALLER SWAP1 POP SWAP1 JUMP JUMPDEST PUSH1 0x0 DUP2 CALLVALUE EQ PUSH2 0xE37 JUMPI CALLVALUE PUSH1 0x40 MLOAD PUSH32 0x9F70412000000000000000000000000000000000000000000000000000000000 DUP2 MSTORE PUSH1 0x4 ADD PUSH2 0xE2E SWAP2 SWAP1 PUSH2 0x1114 JUMP JUMPDEST PUSH1 0x40 MLOAD DUP1 SWAP2 SUB SWAP1 REVERT JUMPDEST DUP2 SWAP1 POP SWAP2 SWAP1 POP JUMP JUMPDEST PUSH1 0x0 PUSH32 0x0 PUSH20 0xFFFFFFFFFFFFFFFFFFFFFFFFFFFFFFFFFFFFFFFF AND PUSH4 0xE4FE1D94 PUSH1 0x40 MLOAD DUP2 PUSH4 0xFFFFFFFF AND PUSH1 0xE0 SHL DUP2 MSTORE PUSH1 0x4 ADD PUSH1 0x20 PUSH1 0x40 MLOAD DUP1 DUP4 SUB DUP2 DUP7 GAS STATICCALL ISZERO DUP1 ISZERO PUSH2 0xEAC JUMPI RETURNDATASIZE PUSH1 0x0 DUP1 RETURNDATACOPY RETURNDATASIZE PUSH1 0x0 REVERT JUMPDEST POP POP POP POP PUSH1 0x40 MLOAD RETURNDATASIZE PUSH1 0x1F NOT PUSH1 0x1F DUP3 ADD AND DUP3 ADD DUP1 PUSH1 0x40 MSTORE POP DUP2 ADD SWAP1 PUSH2 0xED0 SWAP2 SWAP1 PUSH2 0x2078 JUMP JUMPDEST SWAP1 POP PUSH1 0x0 PUSH20 0xFFFFFFFFFFFFFFFFFFFFFFFFFFFFFFFFFFFFFFFF AND DUP2 PUSH20 0xFFFFFFFFFFFFFFFFFFFFFFFFFFFFFFFFFFFFFFFF AND SUB PUSH2 0xF38 JUMPI PUSH1 0x40 MLOAD PUSH32 0x5373352A00000000000000000000000000000000000000000000000000000000 DUP2 MSTORE PUSH1 0x4 ADD PUSH1 0x40 MLOAD DUP1 SWAP2 SUB SWAP1 REVERT JUMPDEST PUSH2 0xF85 CALLER PUSH32 0x0 DUP5 DUP5 PUSH20 0xFFFFFFFFFFFFFFFFFFFFFFFFFFFFFFFFFFFFFFFF AND PUSH2 0xF89 SWAP1 SWAP4 SWAP3 SWAP2 SWAP1 PUSH4 0xFFFFFFFF AND JUMP JUMPDEST POP POP JUMP JUMPDEST PUSH2 0x1005 DUP5 DUP6 PUSH20 0xFFFFFFFFFFFFFFFFFFFFFFFFFFFFFFFFFFFFFFFF AND PUSH4 0x23B872DD DUP7 DUP7 DUP7 PUSH1 0x40 MLOAD PUSH1 0x24 ADD PUSH2 0xFBE SWAP4 SWAP3 SWAP2 SWAP1 PUSH2 0x1F6D JUMP JUMPDEST PUSH1 0x40 MLOAD PUSH1 0x20 DUP2 DUP4 SUB SUB DUP2 MSTORE SWAP1 PUSH1 0x40 MSTORE SWAP2 POP PUSH1 0xE0 SHL PUSH1 0x20 DUP3 ADD DUP1 MLOAD PUSH28 0xFFFFFFFFFFFFFFFFFFFFFFFFFFFFFFFFFFFFFFFFFFFFFFFFFFFFFFFF DUP4 DUP2 DUP4 AND OR DUP4 MSTORE POP POP POP POP PUSH2 0x100B JUMP JUMPDEST POP POP POP POP JUMP JUMPDEST PUSH1 0x0 DUP1 PUSH1 0x20 PUSH1 0x0 DUP5 MLOAD PUSH1 0x20 DUP7 ADD PUSH1 0x0 DUP9 GAS CALL DUP1 PUSH2 0x102E JUMPI PUSH1 0x40 MLOAD RETURNDATASIZE PUSH1 0x0 DUP3 RETURNDATACOPY RETURNDATASIZE DUP2 REVERT JUMPDEST RETURNDATASIZE SWAP3 POP PUSH1 0x0 MLOAD SWAP2 POP POP PUSH1 0x0 DUP3 EQ PUSH2 0x1049 JUMPI PUSH1 0x1 DUP2 EQ ISZERO PUSH2 0x1065 JUMP JUMPDEST PUSH1 0x0 DUP5 PUSH20 0xFFFFFFFFFFFFFFFFFFFFFFFFFFFFFFFFFFFFFFFF AND EXTCODESIZE EQ JUMPDEST ISZERO PUSH2 0x10A7 JUMPI DUP4 PUSH1 0x40 MLOAD PUSH32 0x5274AFE700000000000000000000000000000000000000000000000000000000 DUP2 MSTORE PUSH1 0x4 ADD PUSH2 0x109E SWAP2 SWAP1 PUSH2 0x161C JUMP JUMPDEST PUSH1 0x40 MLOAD DUP1 SWAP2 SUB SWAP1 REVERT JUMPDEST POP POP POP POP JUMP JUMPDEST PUSH1 0x40 MLOAD DUP1 PUSH1 0x60 ADD PUSH1 0x40 MSTORE DUP1 PUSH1 0x0 DUP1 NOT AND DUP2 MSTORE PUSH1 0x20 ADD PUSH1 0x0 PUSH8 0xFFFFFFFFFFFFFFFF AND DUP2 MSTORE PUSH1 0x20 ADD PUSH2 0x10DB PUSH2 0x10E1 JUMP JUMPDEST DUP2 MSTORE POP SWAP1 JUMP JUMPDEST PUSH1 0x40 MLOAD DUP1 PUSH1 0x40 ADD PUSH1 0x40 MSTORE DUP1 PUSH1 0x0 DUP2 MSTORE PUSH1 0x20 ADD PUSH1 0x0 DUP2 MSTORE POP SWAP1 JUMP JUMPDEST PUSH1 0x0 DUP2 SWAP1 POP SWAP2 SWAP1 POP JUMP JUMPDEST PUSH2 0x110E DUP2 PUSH2 0x10FB JUMP JUMPDEST DUP3 MSTORE POP POP JUMP JUMPDEST PUSH1 0x0 PUSH1 0x20 DUP3 ADD SWAP1 POP PUSH2 0x1129 PUSH1 0x0 DUP4 ADD DUP5 PUSH2 0x1105 JUMP JUMPDEST SWAP3 SWAP2 POP POP JUMP JUMPDEST PUSH1 0x0 PUSH1 0x40 MLOAD SWAP1 POP SWAP1 JUMP JUMPDEST PUSH1 0x0 DUP1 REVERT JUMPDEST PUSH1 0x0 DUP1 REVERT JUMPDEST PUSH1 0x0 DUP1 REVERT JUMPDEST PUSH1 0x0 PUSH1 0x60 DUP3 DUP5 SUB SLT ISZERO PUSH2 0x115E JUMPI PUSH2 0x115D PUSH2 0x1143 JUMP JUMPDEST JUMPDEST DUP2 SWAP1 POP SWAP3 SWAP2 POP POP JUMP JUMPDEST PUSH1 0x0 DUP2 SWAP1 POP SWAP2 SWAP1 POP JUMP JUMPDEST PUSH2 0x117A DUP2 PUSH2 0x1167 JUMP JUMPDEST DUP2 EQ PUSH2 0x1185 JUMPI PUSH1 0x0 DUP1 REVERT JUMPDEST POP JUMP JUMPDEST PUSH1 0x0 DUP2 CALLDATALOAD SWAP1 POP PUSH2 0x1197 DUP2 PUSH2 0x1171 JUMP JUMPDEST SWAP3 SWAP2 POP POP JUMP JUMPDEST PUSH1 0x0 DUP1 REVERT JUMPDEST PUSH1 0x0 DUP1 REVERT JUMPDEST PUSH1 0x0 DUP1 REVERT JUMPDEST PUSH1 0x0 DUP1 DUP4 PUSH1 0x1F DUP5 ADD SLT PUSH2 0x11C2 JUMPI PUSH2 0x11C1 PUSH2 0x119D JUMP JUMPDEST JUMPDEST DUP3 CALLDATALOAD SWAP1 POP PUSH8 0xFFFFFFFFFFFFFFFF DUP2 GT ISZERO PUSH2 0x11DF JUMPI PUSH2 0x11DE PUSH2 0x11A2 JUMP JUMPDEST JUMPDEST PUSH1 0x20 DUP4 ADD SWAP2 POP DUP4 PUSH1 0x1 DUP3 MUL DUP4 ADD GT ISZERO PUSH2 0x11FB JUMPI PUSH2 0x11FA PUSH2 0x11A7 JUMP JUMPDEST JUMPDEST SWAP3 POP SWAP3 SWAP1 POP JUMP JUMPDEST PUSH1 0x0 PUSH20 0xFFFFFFFFFFFFFFFFFFFFFFFFFFFFFFFFFFFFFFFF DUP3 AND SWAP1 POP SWAP2 SWAP1 POP JUMP JUMPDEST PUSH1 0x0 PUSH2 0x122D DUP3 PUSH2 0x1202 JUMP JUMPDEST SWAP1 POP SWAP2 SWAP1 POP JUMP JUMPDEST PUSH2 0x123D DUP2 PUSH2 0x1222 JUMP JUMPDEST DUP2 EQ PUSH2 0x1248 JUMPI PUSH1 0x0 DUP1 REVERT JUMPDEST POP JUMP JUMPDEST PUSH1 0x0 DUP2 CALLDATALOAD SWAP1 POP PUSH2 0x125A DUP2 PUSH2 0x1234 JUMP JUMPDEST SWAP3 SWAP2 POP POP JUMP JUMPDEST PUSH1 0x0 DUP1 PUSH1 0x0 DUP1 PUSH1 0x0 DUP1 PUSH1 0x0 PUSH1 0xE0 DUP9 DUP11 SUB SLT ISZERO PUSH2 0x127F JUMPI PUSH2 0x127E PUSH2 0x1139 JUMP JUMPDEST JUMPDEST PUSH1 0x0 PUSH2 0x128D DUP11 DUP3 DUP12 ADD PUSH2 0x1148 JUMP JUMPDEST SWAP8 POP POP PUSH1 0x60 PUSH2 0x129E DUP11 DUP3 DUP12 ADD PUSH2 0x1188 JUMP JUMPDEST SWAP7 POP POP PUSH1 0x80 DUP9 ADD CALLDATALOAD PUSH8 0xFFFFFFFFFFFFFFFF DUP2 GT ISZERO PUSH2 0x12BF JUMPI PUSH2 0x12BE PUSH2 0x113E JUMP JUMPDEST JUMPDEST PUSH2 0x12CB DUP11 DUP3 DUP12 ADD PUSH2 0x11AC JUMP JUMPDEST SWAP6 POP SWAP6 POP POP PUSH1 0xA0 PUSH2 0x12DE DUP11 DUP3 DUP12 ADD PUSH2 0x124B JUMP JUMPDEST SWAP4 POP POP PUSH1 0xC0 DUP9 ADD CALLDATALOAD PUSH8 0xFFFFFFFFFFFFFFFF DUP2 GT ISZERO PUSH2 0x12FF JUMPI PUSH2 0x12FE PUSH2 0x113E JUMP JUMPDEST JUMPDEST PUSH2 0x130B DUP11 DUP3 DUP12 ADD PUSH2 0x11AC JUMP JUMPDEST SWAP3 POP SWAP3 POP POP SWAP3 SWAP6 SWAP9 SWAP2 SWAP5 SWAP8 POP SWAP3 SWAP6 POP JUMP JUMPDEST PUSH1 0x0 PUSH8 0xFFFFFFFFFFFFFFFF DUP3 AND SWAP1 POP SWAP2 SWAP1 POP JUMP JUMPDEST PUSH2 0x1339 DUP2 PUSH2 0x131C JUMP JUMPDEST DUP3 MSTORE POP POP JUMP JUMPDEST PUSH1 0x0 PUSH1 0x40 DUP3 ADD SWAP1 POP PUSH2 0x1354 PUSH1 0x0 DUP4 ADD DUP6 PUSH2 0x1330 JUMP JUMPDEST PUSH2 0x1361 PUSH1 0x20 DUP4 ADD DUP5 PUSH2 0x1330 JUMP JUMPDEST SWAP4 SWAP3 POP POP POP JUMP JUMPDEST PUSH1 0x0 PUSH2 0xFFFF DUP3 AND SWAP1 POP SWAP2 SWAP1 POP JUMP JUMPDEST PUSH2 0x137F DUP2 PUSH2 0x1368 JUMP JUMPDEST DUP3 MSTORE POP POP JUMP JUMPDEST PUSH1 0x0 PUSH1 0x20 DUP3 ADD SWAP1 POP PUSH2 0x139A PUSH1 0x0 DUP4 ADD DUP5 PUSH2 0x1376 JUMP JUMPDEST SWAP3 SWAP2 POP POP JUMP JUMPDEST PUSH1 0x0 PUSH4 0xFFFFFFFF DUP3 AND SWAP1 POP SWAP2 SWAP1 POP JUMP JUMPDEST PUSH2 0x13B9 DUP2 PUSH2 0x13A0 JUMP JUMPDEST DUP2 EQ PUSH2 0x13C4 JUMPI PUSH1 0x0 DUP1 REVERT JUMPDEST POP JUMP JUMPDEST PUSH1 0x0 DUP2 CALLDATALOAD SWAP1 POP PUSH2 0x13D6 DUP2 PUSH2 0x13B0 JUMP JUMPDEST SWAP3 SWAP2 POP POP JUMP JUMPDEST PUSH1 0x0 DUP1 PUSH1 0x40 DUP4 DUP6 SUB SLT ISZERO PUSH2 0x13F3 JUMPI PUSH2 0x13F2 PUSH2 0x1139 JUMP JUMPDEST JUMPDEST PUSH1 0x0 PUSH2 0x1401 DUP6 DUP3 DUP7 ADD PUSH2 0x13C7 JUMP JUMPDEST SWAP3 POP POP PUSH1 0x20 PUSH2 0x1412 DUP6 DUP3 DUP7 ADD PUSH2 0x1188 JUMP JUMPDEST SWAP2 POP POP SWAP3 POP SWAP3 SWAP1 POP JUMP JUMPDEST PUSH1 0x0 DUP2 SWAP1 POP SWAP2 SWAP1 POP JUMP JUMPDEST PUSH1 0x0 PUSH2 0x1441 PUSH2 0x143C PUSH2 0x1437 DUP5 PUSH2 0x1202 JUMP JUMPDEST PUSH2 0x141C JUMP JUMPDEST PUSH2 0x1202 JUMP JUMPDEST SWAP1 POP SWAP2 SWAP1 POP JUMP JUMPDEST PUSH1 0x0 PUSH2 0x1453 DUP3 PUSH2 0x1426 JUMP JUMPDEST SWAP1 POP SWAP2 SWAP1 POP JUMP JUMPDEST PUSH1 0x0 PUSH2 0x1465 DUP3 PUSH2 0x1448 JUMP JUMPDEST SWAP1 POP SWAP2 SWAP1 POP JUMP JUMPDEST PUSH2 0x1475 DUP2 PUSH2 0x145A JUMP JUMPDEST DUP3 MSTORE POP POP JUMP JUMPDEST PUSH1 0x0 PUSH1 0x20 DUP3 ADD SWAP1 POP PUSH2 0x1490 PUSH1 0x0 DUP4 ADD DUP5 PUSH2 0x146C JUMP JUMPDEST SWAP3 SWAP2 POP POP JUMP JUMPDEST PUSH1 0x0 DUP2 MLOAD SWAP1 POP SWAP2 SWAP1 POP JUMP JUMPDEST PUSH1 0x0 DUP3 DUP3 MSTORE PUSH1 0x20 DUP3 ADD SWAP1 POP SWAP3 SWAP2 POP POP JUMP JUMPDEST PUSH1 0x0 JUMPDEST DUP4 DUP2 LT ISZERO PUSH2 0x14D0 JUMPI DUP1 DUP3 ADD MLOAD DUP2 DUP5 ADD MSTORE PUSH1 0x20 DUP2 ADD SWAP1 POP PUSH2 0x14B5 JUMP JUMPDEST PUSH1 0x0 DUP5 DUP5 ADD MSTORE POP POP POP POP JUMP JUMPDEST PUSH1 0x0 PUSH1 0x1F NOT PUSH1 0x1F DUP4 ADD AND SWAP1 POP SWAP2 SWAP1 POP JUMP JUMPDEST PUSH1 0x0 PUSH2 0x14F8 DUP3 PUSH2 0x1496 JUMP JUMPDEST PUSH2 0x1502 DUP2 DUP6 PUSH2 0x14A1 JUMP JUMPDEST SWAP4 POP PUSH2 0x1512 DUP2 DUP6 PUSH1 0x20 DUP7 ADD PUSH2 0x14B2 JUMP JUMPDEST PUSH2 0x151B DUP2 PUSH2 0x14DC JUMP JUMPDEST DUP5 ADD SWAP2 POP POP SWAP3 SWAP2 POP POP JUMP JUMPDEST PUSH1 0x0 PUSH1 0x20 DUP3 ADD SWAP1 POP DUP2 DUP2 SUB PUSH1 0x0 DUP4 ADD MSTORE PUSH2 0x1540 DUP2 DUP5 PUSH2 0x14ED JUMP JUMPDEST SWAP1 POP SWAP3 SWAP2 POP POP JUMP JUMPDEST PUSH1 0x0 PUSH1 0x20 DUP3 ADD SWAP1 POP PUSH2 0x155D PUSH1 0x0 DUP4 ADD DUP5 PUSH2 0x1330 JUMP JUMPDEST SWAP3 SWAP2 POP POP JUMP JUMPDEST PUSH1 0x0 DUP1 PUSH1 0x0 DUP1 PUSH1 0xA0 DUP6 DUP8 SUB SLT ISZERO PUSH2 0x157D JUMPI PUSH2 0x157C PUSH2 0x1139 JUMP JUMPDEST JUMPDEST PUSH1 0x0 PUSH2 0x158B DUP8 DUP3 DUP9 ADD PUSH2 0x1148 JUMP JUMPDEST SWAP5 POP POP PUSH1 0x60 DUP6 ADD CALLDATALOAD PUSH8 0xFFFFFFFFFFFFFFFF DUP2 GT ISZERO PUSH2 0x15AC JUMPI PUSH2 0x15AB PUSH2 0x113E JUMP JUMPDEST JUMPDEST PUSH2 0x15B8 DUP8 DUP3 DUP9 ADD PUSH2 0x11AC JUMP JUMPDEST SWAP4 POP SWAP4 POP POP PUSH1 0x80 PUSH2 0x15CB DUP8 DUP3 DUP9 ADD PUSH2 0x124B JUMP JUMPDEST SWAP2 POP POP SWAP3 SWAP6 SWAP2 SWAP5 POP SWAP3 POP JUMP JUMPDEST PUSH1 0x0 DUP2 ISZERO ISZERO SWAP1 POP SWAP2 SWAP1 POP JUMP JUMPDEST PUSH2 0x15EC DUP2 PUSH2 0x15D7 JUMP JUMPDEST DUP3 MSTORE POP POP JUMP JUMPDEST PUSH1 0x0 PUSH1 0x20 DUP3 ADD SWAP1 POP PUSH2 0x1607 PUSH1 0x0 DUP4 ADD DUP5 PUSH2 0x15E3 JUMP JUMPDEST SWAP3 SWAP2 POP POP JUMP JUMPDEST PUSH2 0x1616 DUP2 PUSH2 0x1222 JUMP JUMPDEST DUP3 MSTORE POP POP JUMP JUMPDEST PUSH1 0x0 PUSH1 0x20 DUP3 ADD SWAP1 POP PUSH2 0x1631 PUSH1 0x0 DUP4 ADD DUP5 PUSH2 0x160D JUMP JUMPDEST SWAP3 SWAP2 POP POP JUMP JUMPDEST PUSH1 0x0 PUSH1 0x20 DUP3 DUP5 SUB SLT ISZERO PUSH2 0x164D JUMPI PUSH2 0x164C PUSH2 0x1139 JUMP JUMPDEST JUMPDEST PUSH1 0x0 PUSH2 0x165B DUP5 DUP3 DUP6 ADD PUSH2 0x13C7 JUMP JUMPDEST SWAP2 POP POP SWAP3 SWAP2 POP POP JUMP JUMPDEST PUSH2 0x166D DUP2 PUSH2 0x1167 JUMP JUMPDEST DUP3 MSTORE POP POP JUMP JUMPDEST PUSH1 0x0 PUSH1 0x20 DUP3 ADD SWAP1 POP PUSH2 0x1688 PUSH1 0x0 DUP4 ADD DUP5 PUSH2 0x1664 JUMP JUMPDEST SWAP3 SWAP2 POP POP JUMP JUMPDEST PUSH1 0x0 PUSH1 0x20 DUP3 DUP5 SUB SLT ISZERO PUSH2 0x16A4 JUMPI PUSH2 0x16A3 PUSH2 0x1139 JUMP JUMPDEST JUMPDEST PUSH1 0x0 PUSH2 0x16B2 DUP5 DUP3 DUP6 ADD PUSH2 0x124B JUMP JUMPDEST SWAP2 POP POP SWAP3 SWAP2 POP POP JUMP JUMPDEST PUSH2 0x16C4 DUP2 PUSH2 0x10FB JUMP JUMPDEST DUP2 EQ PUSH2 0x16CF JUMPI PUSH1 0x0 DUP1 REVERT JUMPDEST POP JUMP JUMPDEST PUSH1 0x0 DUP2 CALLDATALOAD SWAP1 POP PUSH2 0x16E1 DUP2 PUSH2 0x16BB JUMP JUMPDEST SWAP3 SWAP2 POP POP JUMP JUMPDEST PUSH1 0x0 PUSH1 0x20 DUP3 DUP5 SUB SLT ISZERO PUSH2 0x16FD JUMPI PUSH2 0x16FC PUSH2 0x1139 JUMP JUMPDEST JUMPDEST PUSH1 0x0 PUSH2 0x170B DUP5 DUP3 DUP6 ADD PUSH2 0x16D2 JUMP JUMPDEST SWAP2 POP POP SWAP3 SWAP2 POP POP JUMP JUMPDEST PUSH1 0x0 DUP1 REVERT JUMPDEST PUSH32 0x4E487B7100000000000000000000000000000000000000000000000000000000 PUSH1 0x0 MSTORE PUSH1 0x41 PUSH1 0x4 MSTORE PUSH1 0x24 PUSH1 0x0 REVERT JUMPDEST PUSH2 0x1751 DUP3 PUSH2 0x14DC JUMP JUMPDEST DUP2 ADD DUP2 DUP2 LT PUSH8 0xFFFFFFFFFFFFFFFF DUP3 GT OR ISZERO PUSH2 0x1770 JUMPI PUSH2 0x176F PUSH2 0x1719 JUMP JUMPDEST JUMPDEST DUP1 PUSH1 0x40 MSTORE POP POP POP JUMP JUMPDEST PUSH1 0x0 PUSH2 0x1783 PUSH2 0x112F JUMP JUMPDEST SWAP1 POP PUSH2 0x178F DUP3 DUP3 PUSH2 0x1748 JUMP JUMPDEST SWAP2 SWAP1 POP JUMP JUMPDEST PUSH1 0x0 PUSH8 0xFFFFFFFFFFFFFFFF DUP3 GT ISZERO PUSH2 0x17AF JUMPI PUSH2 0x17AE PUSH2 0x1719 JUMP JUMPDEST JUMPDEST PUSH2 0x17B8 DUP3 PUSH2 0x14DC JUMP JUMPDEST SWAP1 POP PUSH1 0x20 DUP2 ADD SWAP1 POP SWAP2 SWAP1 POP JUMP JUMPDEST DUP3 DUP2 DUP4 CALLDATACOPY PUSH1 0x0 DUP4 DUP4 ADD MSTORE POP POP POP JUMP JUMPDEST PUSH1 0x0 PUSH2 0x17E7 PUSH2 0x17E2 DUP5 PUSH2 0x1794 JUMP JUMPDEST PUSH2 0x1779 JUMP JUMPDEST SWAP1 POP DUP3 DUP2 MSTORE PUSH1 0x20 DUP2 ADD DUP5 DUP5 DUP5 ADD GT ISZERO PUSH2 0x1803 JUMPI PUSH2 0x1802 PUSH2 0x1714 JUMP JUMPDEST JUMPDEST PUSH2 0x180E DUP5 DUP3 DUP6 PUSH2 0x17C5 JUMP JUMPDEST POP SWAP4 SWAP3 POP POP POP JUMP JUMPDEST PUSH1 0x0 DUP3 PUSH1 0x1F DUP4 ADD SLT PUSH2 0x182B JUMPI PUSH2 0x182A PUSH2 0x119D JUMP JUMPDEST JUMPDEST DUP2 CALLDATALOAD PUSH2 0x183B DUP5 DUP3 PUSH1 0x20 DUP7 ADD PUSH2 0x17D4 JUMP JUMPDEST SWAP2 POP POP SWAP3 SWAP2 POP POP JUMP JUMPDEST PUSH1 0x0 DUP1 PUSH1 0x0 DUP1 PUSH1 0x60 DUP6 DUP8 SUB SLT ISZERO PUSH2 0x185E JUMPI PUSH2 0x185D PUSH2 0x1139 JUMP JUMPDEST JUMPDEST PUSH1 0x0 PUSH2 0x186C DUP8 DUP3 DUP9 ADD PUSH2 0x13C7 JUMP JUMPDEST SWAP5 POP POP PUSH1 0x20 DUP6 ADD CALLDATALOAD PUSH8 0xFFFFFFFFFFFFFFFF DUP2 GT ISZERO PUSH2 0x188D JUMPI PUSH2 0x188C PUSH2 0x113E JUMP JUMPDEST JUMPDEST PUSH2 0x1899 DUP8 DUP3 DUP9 ADD PUSH2 0x1816 JUMP JUMPDEST SWAP4 POP POP PUSH1 0x40 DUP6 ADD CALLDATALOAD PUSH8 0xFFFFFFFFFFFFFFFF DUP2 GT ISZERO PUSH2 0x18BA JUMPI PUSH2 0x18B9 PUSH2 0x113E JUMP JUMPDEST JUMPDEST PUSH2 0x18C6 DUP8 DUP3 DUP9 ADD PUSH2 0x11AC JUMP JUMPDEST SWAP3 POP SWAP3 POP POP SWAP3 SWAP6 SWAP2 SWAP5 POP SWAP3 POP JUMP JUMPDEST PUSH1 0x0 PUSH1 0x60 DUP3 DUP5 SUB SLT ISZERO PUSH2 0x18EA JUMPI PUSH2 0x18E9 PUSH2 0x1139 JUMP JUMPDEST JUMPDEST PUSH1 0x0 PUSH2 0x18F8 DUP5 DUP3 DUP6 ADD PUSH2 0x1148 JUMP JUMPDEST SWAP2 POP POP SWAP3 SWAP2 POP POP JUMP JUMPDEST PUSH2 0x190A DUP2 PUSH2 0x13A0 JUMP JUMPDEST DUP3 MSTORE POP POP JUMP JUMPDEST PUSH1 0x0 PUSH1 0x40 DUP3 ADD SWAP1 POP PUSH2 0x1925 PUSH1 0x0 DUP4 ADD DUP6 PUSH2 0x1901 JUMP JUMPDEST PUSH2 0x1932 PUSH1 0x20 DUP4 ADD DUP5 PUSH2 0x1664 JUMP JUMPDEST SWAP4 SWAP3 POP POP POP JUMP JUMPDEST PUSH32 0x4E487B7100000000000000000000000000000000000000000000000000000000 PUSH1 0x0 MSTORE PUSH1 0x22 PUSH1 0x4 MSTORE PUSH1 0x24 PUSH1 0x0 REVERT JUMPDEST PUSH1 0x0 PUSH1 0x2 DUP3 DIV SWAP1 POP PUSH1 0x1 DUP3 AND DUP1 PUSH2 0x1980 JUMPI PUSH1 0x7F DUP3 AND SWAP2 POP JUMPDEST PUSH1 0x20 DUP3 LT DUP2 SUB PUSH2 0x1993 JUMPI PUSH2 0x1992 PUSH2 0x1939 JUMP JUMPDEST JUMPDEST POP SWAP2 SWAP1 POP JUMP JUMPDEST PUSH1 0x0 PUSH1 0x20 DUP3 ADD SWAP1 POP PUSH2 0x19AE PUSH1 0x0 DUP4 ADD DUP5 PUSH2 0x1901 JUMP JUMPDEST SWAP3 SWAP2 POP POP JUMP JUMPDEST PUSH1 0x0 PUSH1 0x20 DUP3 DUP5 SUB SLT ISZERO PUSH2 0x19CA JUMPI PUSH2 0x19C9 PUSH2 0x1139 JUMP JUMPDEST JUMPDEST PUSH1 0x0 DUP3 ADD CALLDATALOAD PUSH8 0xFFFFFFFFFFFFFFFF DUP2 GT ISZERO PUSH2 0x19E8 JUMPI PUSH2 0x19E7 PUSH2 0x113E JUMP JUMPDEST JUMPDEST PUSH2 0x19F4 DUP5 DUP3 DUP6 ADD PUSH2 0x1816 JUMP JUMPDEST SWAP2 POP POP SWAP3 SWAP2 POP POP JUMP JUMPDEST PUSH1 0x0 DUP2 SWAP1 POP DUP2 PUSH1 0x0 MSTORE PUSH1 0x20 PUSH1 0x0 KECCAK256 SWAP1 POP SWAP2 SWAP1 POP JUMP JUMPDEST PUSH1 0x0 PUSH1 0x20 PUSH1 0x1F DUP4 ADD DIV SWAP1 POP SWAP2 SWAP1 POP JUMP JUMPDEST PUSH1 0x0 DUP3 DUP3 SHL SWAP1 POP SWAP3 SWAP2 POP POP JUMP JUMPDEST PUSH1 0x0 PUSH1 0x8 DUP4 MUL PUSH2 0x1A5F PUSH32 0xFFFFFFFFFFFFFFFFFFFFFFFFFFFFFFFFFFFFFFFFFFFFFFFFFFFFFFFFFFFFFFFF DUP3 PUSH2 0x1A22 JUMP JUMPDEST PUSH2 0x1A69 DUP7 DUP4 PUSH2 0x1A22 JUMP JUMPDEST SWAP6 POP DUP1 NOT DUP5 AND SWAP4 POP DUP1 DUP7 AND DUP5 OR SWAP3 POP POP POP SWAP4 SWAP3 POP POP POP JUMP JUMPDEST PUSH1 0x0 PUSH2 0x1A9C PUSH2 0x1A97 PUSH2 0x1A92 DUP5 PUSH2 0x10FB JUMP JUMPDEST PUSH2 0x141C JUMP JUMPDEST PUSH2 0x10FB JUMP JUMPDEST SWAP1 POP SWAP2 SWAP1 POP JUMP JUMPDEST PUSH1 0x0 DUP2 SWAP1 POP SWAP2 SWAP1 POP JUMP JUMPDEST PUSH2 0x1AB6 DUP4 PUSH2 0x1A81 JUMP JUMPDEST PUSH2 0x1ACA PUSH2 0x1AC2 DUP3 PUSH2 0x1AA3 JUMP JUMPDEST DUP5 DUP5 SLOAD PUSH2 0x1A2F JUMP JUMPDEST DUP3 SSTORE POP POP POP POP JUMP JUMPDEST PUSH1 0x0 SWAP1 JUMP JUMPDEST PUSH2 0x1ADF PUSH2 0x1AD2 JUMP JUMPDEST PUSH2 0x1AEA DUP2 DUP5 DUP5 PUSH2 0x1AAD JUMP JUMPDEST POP POP POP JUMP JUMPDEST JUMPDEST DUP2 DUP2 LT ISZERO PUSH2 0x1B0E JUMPI PUSH2 0x1B03 PUSH1 0x0 DUP3 PUSH2 0x1AD7 JUMP JUMPDEST PUSH1 0x1 DUP2 ADD SWAP1 POP PUSH2 0x1AF0 JUMP JUMPDEST POP POP JUMP JUMPDEST PUSH1 0x1F DUP3 GT ISZERO PUSH2 0x1B53 JUMPI PUSH2 0x1B24 DUP2 PUSH2 0x19FD JUMP JUMPDEST PUSH2 0x1B2D DUP5 PUSH2 0x1A12 JUMP JUMPDEST DUP2 ADD PUSH1 0x20 DUP6 LT ISZERO PUSH2 0x1B3C JUMPI DUP2 SWAP1 POP JUMPDEST PUSH2 0x1B50 PUSH2 0x1B48 DUP6 PUSH2 0x1A12 JUMP JUMPDEST DUP4 ADD DUP3 PUSH2 0x1AEF JUMP JUMPDEST POP POP JUMPDEST POP POP POP JUMP JUMPDEST PUSH1 0x0 DUP3 DUP3 SHR SWAP1 POP SWAP3 SWAP2 POP POP JUMP JUMPDEST PUSH1 0x0 PUSH2 0x1B76 PUSH1 0x0 NOT DUP5 PUSH1 0x8 MUL PUSH2 0x1B58 JUMP JUMPDEST NOT DUP1 DUP4 AND SWAP2 POP POP SWAP3 SWAP2 POP POP JUMP JUMPDEST PUSH1 0x0 PUSH2 0x1B8F DUP4 DUP4 PUSH2 0x1B65 JUMP JUMPDEST SWAP2 POP DUP3 PUSH1 0x2 MUL DUP3 OR SWAP1 POP SWAP3 SWAP2 POP POP JUMP JUMPDEST PUSH2 0x1BA8 DUP3 PUSH2 0x1496 JUMP JUMPDEST PUSH8 0xFFFFFFFFFFFFFFFF DUP2 GT ISZERO PUSH2 0x1BC1 JUMPI PUSH2 0x1BC0 PUSH2 0x1719 JUMP JUMPDEST JUMPDEST PUSH2 0x1BCB DUP3 SLOAD PUSH2 0x1968 JUMP JUMPDEST PUSH2 0x1BD6 DUP3 DUP3 DUP6 PUSH2 0x1B12 JUMP JUMPDEST PUSH1 0x0 PUSH1 0x20 SWAP1 POP PUSH1 0x1F DUP4 GT PUSH1 0x1 DUP2 EQ PUSH2 0x1C09 JUMPI PUSH1 0x0 DUP5 ISZERO PUSH2 0x1BF7 JUMPI DUP3 DUP8 ADD MLOAD SWAP1 POP JUMPDEST PUSH2 0x1C01 DUP6 DUP3 PUSH2 0x1B83 JUMP JUMPDEST DUP7 SSTORE POP PUSH2 0x1C69 JUMP JUMPDEST PUSH1 0x1F NOT DUP5 AND PUSH2 0x1C17 DUP7 PUSH2 0x19FD JUMP JUMPDEST PUSH1 0x0 JUMPDEST DUP3 DUP2 LT ISZERO PUSH2 0x1C3F JUMPI DUP5 DUP10 ADD MLOAD DUP3 SSTORE PUSH1 0x1 DUP3 ADD SWAP2 POP PUSH1 0x20 DUP6 ADD SWAP5 POP PUSH1 0x20 DUP2 ADD SWAP1 POP PUSH2 0x1C1A JUMP JUMPDEST DUP7 DUP4 LT ISZERO PUSH2 0x1C5C JUMPI DUP5 DUP10 ADD MLOAD PUSH2 0x1C58 PUSH1 0x1F DUP10 AND DUP3 PUSH2 0x1B65 JUMP JUMPDEST DUP4 SSTORE POP JUMPDEST PUSH1 0x1 PUSH1 0x2 DUP9 MUL ADD DUP9 SSTORE POP POP POP JUMPDEST POP POP POP POP POP POP JUMP JUMPDEST PUSH2 0x1C7A DUP2 PUSH2 0x13A0 JUMP JUMPDEST DUP3 MSTORE POP POP JUMP JUMPDEST PUSH2 0x1C89 DUP2 PUSH2 0x1167 JUMP JUMPDEST DUP3 MSTORE POP POP JUMP JUMPDEST PUSH1 0x0 DUP2 MLOAD SWAP1 POP SWAP2 SWAP1 POP JUMP JUMPDEST PUSH1 0x0 DUP3 DUP3 MSTORE PUSH1 0x20 DUP3 ADD SWAP1 POP SWAP3 SWAP2 POP POP JUMP JUMPDEST PUSH1 0x0 PUSH2 0x1CB6 DUP3 PUSH2 0x1C8F JUMP JUMPDEST PUSH2 0x1CC0 DUP2 DUP6 PUSH2 0x1C9A JUMP JUMPDEST SWAP4 POP PUSH2 0x1CD0 DUP2 DUP6 PUSH1 0x20 DUP7 ADD PUSH2 0x14B2 JUMP JUMPDEST PUSH2 0x1CD9 DUP2 PUSH2 0x14DC JUMP JUMPDEST DUP5 ADD SWAP2 POP POP SWAP3 SWAP2 POP POP JUMP JUMPDEST PUSH2 0x1CED DUP2 PUSH2 0x15D7 JUMP JUMPDEST DUP3 MSTORE POP POP JUMP JUMPDEST PUSH1 0x0 PUSH1 0xA0 DUP4 ADD PUSH1 0x0 DUP4 ADD MLOAD PUSH2 0x1D0B PUSH1 0x0 DUP7 ADD DUP3 PUSH2 0x1C71 JUMP JUMPDEST POP PUSH1 0x20 DUP4 ADD MLOAD PUSH2 0x1D1E PUSH1 0x20 DUP7 ADD DUP3 PUSH2 0x1C80 JUMP JUMPDEST POP PUSH1 0x40 DUP4 ADD MLOAD DUP5 DUP3 SUB PUSH1 0x40 DUP7 ADD MSTORE PUSH2 0x1D36 DUP3 DUP3 PUSH2 0x1CAB JUMP JUMPDEST SWAP2 POP POP PUSH1 0x60 DUP4 ADD MLOAD DUP5 DUP3 SUB PUSH1 0x60 DUP7 ADD MSTORE PUSH2 0x1D50 DUP3 DUP3 PUSH2 0x1CAB JUMP JUMPDEST SWAP2 POP POP PUSH1 0x80 DUP4 ADD MLOAD PUSH2 0x1D65 PUSH1 0x80 DUP7 ADD DUP3 PUSH2 0x1CE4 JUMP JUMPDEST POP DUP1 SWAP2 POP POP SWAP3 SWAP2 POP POP JUMP JUMPDEST PUSH1 0x0 PUSH1 0x40 DUP3 ADD SWAP1 POP DUP2 DUP2 SUB PUSH1 0x0 DUP4 ADD MSTORE PUSH2 0x1D8A DUP2 DUP6 PUSH2 0x1CF3 JUMP JUMPDEST SWAP1 POP PUSH2 0x1D99 PUSH1 0x20 DUP4 ADD DUP5 PUSH2 0x160D JUMP JUMPDEST SWAP4 SWAP3 POP POP POP JUMP JUMPDEST PUSH1 0x0 DUP1 REVERT JUMPDEST PUSH1 0x0 DUP2 MLOAD SWAP1 POP PUSH2 0x1DB4 DUP2 PUSH2 0x1171 JUMP JUMPDEST SWAP3 SWAP2 POP POP JUMP JUMPDEST PUSH2 0x1DC3 DUP2 PUSH2 0x131C JUMP JUMPDEST DUP2 EQ PUSH2 0x1DCE JUMPI PUSH1 0x0 DUP1 REVERT JUMPDEST POP JUMP JUMPDEST PUSH1 0x0 DUP2 MLOAD SWAP1 POP PUSH2 0x1DE0 DUP2 PUSH2 0x1DBA JUMP JUMPDEST SWAP3 SWAP2 POP POP JUMP JUMPDEST PUSH1 0x0 DUP2 MLOAD SWAP1 POP PUSH2 0x1DF5 DUP2 PUSH2 0x16BB JUMP JUMPDEST SWAP3 SWAP2 POP POP JUMP JUMPDEST PUSH1 0x0 PUSH1 0x40 DUP3 DUP5 SUB SLT ISZERO PUSH2 0x1E11 JUMPI PUSH2 0x1E10 PUSH2 0x1DA0 JUMP JUMPDEST JUMPDEST PUSH2 0x1E1B PUSH1 0x40 PUSH2 0x1779 JUMP JUMPDEST SWAP1 POP PUSH1 0x0 PUSH2 0x1E2B DUP5 DUP3 DUP6 ADD PUSH2 0x1DE6 JUMP JUMPDEST PUSH1 0x0 DUP4 ADD MSTORE POP PUSH1 0x20 PUSH2 0x1E3F DUP5 DUP3 DUP6 ADD PUSH2 0x1DE6 JUMP JUMPDEST PUSH1 0x20 DUP4 ADD MSTORE POP SWAP3 SWAP2 POP POP JUMP JUMPDEST PUSH1 0x0 PUSH1 0x80 DUP3 DUP5 SUB SLT ISZERO PUSH2 0x1E61 JUMPI PUSH2 0x1E60 PUSH2 0x1DA0 JUMP JUMPDEST JUMPDEST PUSH2 0x1E6B PUSH1 0x60 PUSH2 0x1779 JUMP JUMPDEST SWAP1 POP PUSH1 0x0 PUSH2 0x1E7B DUP5 DUP3 DUP6 ADD PUSH2 0x1DA5 JUMP JUMPDEST PUSH1 0x0 DUP4 ADD MSTORE POP PUSH1 0x20 PUSH2 0x1E8F DUP5 DUP3 DUP6 ADD PUSH2 0x1DD1 JUMP JUMPDEST PUSH1 0x20 DUP4 ADD MSTORE POP PUSH1 0x40 PUSH2 0x1EA3 DUP5 DUP3 DUP6 ADD PUSH2 0x1DFB JUMP JUMPDEST PUSH1 0x40 DUP4 ADD MSTORE POP SWAP3 SWAP2 POP POP JUMP JUMPDEST PUSH1 0x0 PUSH1 0x80 DUP3 DUP5 SUB SLT ISZERO PUSH2 0x1EC5 JUMPI PUSH2 0x1EC4 PUSH2 0x1139 JUMP JUMPDEST JUMPDEST PUSH1 0x0 PUSH2 0x1ED3 DUP5 DUP3 DUP6 ADD PUSH2 0x1E4B JUMP JUMPDEST SWAP2 POP POP SWAP3 SWAP2 POP POP JUMP JUMPDEST PUSH1 0x0 PUSH2 0x1EE7 DUP3 PUSH2 0x1202 JUMP JUMPDEST SWAP1 POP SWAP2 SWAP1 POP JUMP JUMPDEST PUSH2 0x1EF7 DUP2 PUSH2 0x1EDC JUMP JUMPDEST DUP2 EQ PUSH2 0x1F02 JUMPI PUSH1 0x0 DUP1 REVERT JUMPDEST POP JUMP JUMPDEST PUSH1 0x0 DUP2 MLOAD SWAP1 POP PUSH2 0x1F14 DUP2 PUSH2 0x1EEE JUMP JUMPDEST SWAP3 SWAP2 POP POP JUMP JUMPDEST PUSH1 0x0 DUP1 PUSH1 0x0 PUSH1 0x60 DUP5 DUP7 SUB SLT ISZERO PUSH2 0x1F33 JUMPI PUSH2 0x1F32 PUSH2 0x1139 JUMP JUMPDEST JUMPDEST PUSH1 0x0 PUSH2 0x1F41 DUP7 DUP3 DUP8 ADD PUSH2 0x1F05 JUMP JUMPDEST SWAP4 POP POP PUSH1 0x20 PUSH2 0x1F52 DUP7 DUP3 DUP8 ADD PUSH2 0x1F05 JUMP JUMPDEST SWAP3 POP POP PUSH1 0x40 PUSH2 0x1F63 DUP7 DUP3 DUP8 ADD PUSH2 0x1DE6 JUMP JUMPDEST SWAP2 POP POP SWAP3 POP SWAP3 POP SWAP3 JUMP JUMPDEST PUSH1 0x0 PUSH1 0x60 DUP3 ADD SWAP1 POP PUSH2 0x1F82 PUSH1 0x0 DUP4 ADD DUP7 PUSH2 0x160D JUMP JUMPDEST PUSH2 0x1F8F PUSH1 0x20 DUP4 ADD DUP6 PUSH2 0x160D JUMP JUMPDEST PUSH2 0x1F9C PUSH1 0x40 DUP4 ADD DUP5 PUSH2 0x1105 JUMP JUMPDEST SWAP5 SWAP4 POP POP POP POP JUMP JUMPDEST PUSH1 0x0 DUP2 SWAP1 POP SWAP3 SWAP2 POP POP JUMP JUMPDEST PUSH1 0x0 PUSH2 0x1FBA DUP3 PUSH2 0x1C8F JUMP JUMPDEST PUSH2 0x1FC4 DUP2 DUP6 PUSH2 0x1FA4 JUMP JUMPDEST SWAP4 POP PUSH2 0x1FD4 DUP2 DUP6 PUSH1 0x20 DUP7 ADD PUSH2 0x14B2 JUMP JUMPDEST DUP1 DUP5 ADD SWAP2 POP POP SWAP3 SWAP2 POP POP JUMP JUMPDEST PUSH1 0x0 PUSH2 0x1FEC DUP3 DUP5 PUSH2 0x1FAF JUMP JUMPDEST SWAP2 POP DUP2 SWAP1 POP SWAP3 SWAP2 POP POP JUMP JUMPDEST PUSH32 0x73696D756C6174654C69717569646174696F6E2063616C6C206661696C656400 PUSH1 0x0 DUP3 ADD MSTORE POP JUMP JUMPDEST PUSH1 0x0 PUSH2 0x202D PUSH1 0x1F DUP4 PUSH2 0x14A1 JUMP JUMPDEST SWAP2 POP PUSH2 0x2038 DUP3 PUSH2 0x1FF7 JUMP JUMPDEST PUSH1 0x20 DUP3 ADD SWAP1 POP SWAP2 SWAP1 POP JUMP JUMPDEST PUSH1 0x0 PUSH1 0x20 DUP3 ADD SWAP1 POP DUP2 DUP2 SUB PUSH1 0x0 DUP4 ADD MSTORE PUSH2 0x205C DUP2 PUSH2 0x2020 JUMP JUMPDEST SWAP1 POP SWAP2 SWAP1 POP JUMP JUMPDEST PUSH1 0x0 DUP2 MLOAD SWAP1 POP PUSH2 0x2072 DUP2 PUSH2 0x1234 JUMP JUMPDEST SWAP3 SWAP2 POP POP JUMP JUMPDEST PUSH1 0x0 PUSH1 0x20 DUP3 DUP5 SUB SLT ISZERO PUSH2 0x208E JUMPI PUSH2 0x208D PUSH2 0x1139 JUMP JUMPDEST JUMPDEST PUSH1 0x0 PUSH2 0x209C DUP5 DUP3 DUP6 ADD PUSH2 0x2063 JUMP JUMPDEST SWAP2 POP POP SWAP3 SWAP2 POP POP JUMP INVALID LOG2 PUSH5 0x6970667358 0x22 SLT KECCAK256 BLOBBASEFEE 0xD1 PUSH24 0xD578139123A6DA11C05CC826D9197A98F4C68B4C0684F04 0xC2 0x4D PUSH14 0x46E664736F6C634300081B003300 "},"methodIdentifiers":{"SEND()":"1f5e1334","allowInitializePath((uint32,bytes32,uint64))":"ff7bd03d","count()":"06661abd","data()":"73d4a13a","endpoint()":"5e280f11","isComposeMsgSender((uint32,bytes32,uint64),bytes,address)":"82413eac","liquidationSimulator()":"bb6d625d","lzReceive((uint32,bytes32,uint64),bytes32,bytes,address,bytes)":"13137d65","nextNonce(uint32,bytes32)":"7d25a05e","oAppVersion()":"17442b70","owner()":"8da5cb5b","peers(uint32)":"bb0b6a53","renounceOwnership()":"715018a6","send(uint32,string,bytes)":"e0539e58","setCount(uint256)":"d14e62b8","setDelegate(address)":"ca5eb5e1","setPeer(uint32,bytes32)":"3400288b","transferOwnership(address)":"f2fde38b"}}}}}