{
  "_format": "hh-sol-artifact-1",
  "contractName": "TreasuryOApp",
  "sourceName": "contracts/Treasury_OApp.sol",
  "abi": [
    {
      "inputs": [
        {
          "internalType": "address",
          "name": "_endpoint",
          "type": "address"
        }
      ],
      "stateMutability": "nonpayable",
      "type": "constructor"
    },
    {
      "inputs": [],
      "name": "InvalidDelegate",
      "type": "error"
    },
    {
      "inputs": [],
      "name": "InvalidEndpointCall",
      "type": "error"
    },
    {
      "inputs": [],
      "name": "LzTokenUnavailable",
      "type": "error"
    },
    {
      "inputs": [
        {
          "internalType": "uint32",
          "name": "eid",
          "type": "uint32"
        }
      ],
      "name": "NoPeer",
      "type": "error"
    },
    {
      "inputs": [
        {
          "internalType": "uint256",
          "name": "msgValue",
          "type": "uint256"
        }
      ],
      "name": "NotEnoughNative",
      "type": "error"
    },
    {
      "inputs": [
        {
          "internalType": "address",
          "name": "addr",
          "type": "address"
        }
      ],
      "name": "OnlyEndpoint",
      "type": "error"
    },
    {
      "inputs": [
        {
          "internalType": "uint32",
          "name": "eid",
          "type": "uint32"
        },
        {
          "internalType": "bytes32",
          "name": "sender",
          "type": "bytes32"
        }
      ],
      "name": "OnlyPeer",
      "type": "error"
    },
    {
      "inputs": [
        {
          "internalType": "address",
          "name": "owner",
          "type": "address"
        }
      ],
      "name": "OwnableInvalidOwner",
      "type": "error"
    },
    {
      "inputs": [
        {
          "internalType": "address",
          "name": "account",
          "type": "address"
        }
      ],
      "name": "OwnableUnauthorizedAccount",
      "type": "error"
    },
    {
      "inputs": [
        {
          "internalType": "address",
          "name": "token",
          "type": "address"
        }
      ],
      "name": "SafeERC20FailedOperation",
      "type": "error"
    },
    {
      "anonymous": false,
      "inputs": [
        {
          "indexed": true,
          "internalType": "address",
          "name": "previousOwner",
          "type": "address"
        },
        {
          "indexed": true,
          "internalType": "address",
          "name": "newOwner",
          "type": "address"
        }
      ],
      "name": "OwnershipTransferred",
      "type": "event"
    },
    {
      "anonymous": false,
      "inputs": [
        {
          "indexed": false,
          "internalType": "uint32",
          "name": "eid",
          "type": "uint32"
        },
        {
          "indexed": false,
          "internalType": "bytes32",
          "name": "peer",
          "type": "bytes32"
        }
      ],
      "name": "PeerSet",
      "type": "event"
    },
    {
      "inputs": [],
      "name": "SEND",
      "outputs": [
        {
          "internalType": "uint16",
          "name": "",
          "type": "uint16"
        }
      ],
      "stateMutability": "view",
      "type": "function"
    },
    {
      "inputs": [
        {
          "components": [
            {
              "internalType": "uint32",
              "name": "srcEid",
              "type": "uint32"
            },
            {
              "internalType": "bytes32",
              "name": "sender",
              "type": "bytes32"
            },
            {
              "internalType": "uint64",
              "name": "nonce",
              "type": "uint64"
            }
          ],
          "internalType": "struct Origin",
          "name": "origin",
          "type": "tuple"
        }
      ],
      "name": "allowInitializePath",
      "outputs": [
        {
          "internalType": "bool",
          "name": "",
          "type": "bool"
        }
      ],
      "stateMutability": "view",
      "type": "function"
    },
    {
      "inputs": [],
      "name": "data",
      "outputs": [
        {
          "internalType": "string",
          "name": "",
          "type": "string"
        }
      ],
      "stateMutability": "view",
      "type": "function"
    },
    {
      "inputs": [],
      "name": "endpoint",
      "outputs": [
        {
          "internalType": "contract ILayerZeroEndpointV2",
          "name": "",
          "type": "address"
        }
      ],
      "stateMutability": "view",
      "type": "function"
    },
    {
      "inputs": [
        {
          "components": [
            {
              "internalType": "uint32",
              "name": "srcEid",
              "type": "uint32"
            },
            {
              "internalType": "bytes32",
              "name": "sender",
              "type": "bytes32"
            },
            {
              "internalType": "uint64",
              "name": "nonce",
              "type": "uint64"
            }
          ],
          "internalType": "struct Origin",
          "name": "",
          "type": "tuple"
        },
        {
          "internalType": "bytes",
          "name": "",
          "type": "bytes"
        },
        {
          "internalType": "address",
          "name": "_sender",
          "type": "address"
        }
      ],
      "name": "isComposeMsgSender",
      "outputs": [
        {
          "internalType": "bool",
          "name": "",
          "type": "bool"
        }
      ],
      "stateMutability": "view",
      "type": "function"
    },
    {
      "inputs": [
        {
          "components": [
            {
              "internalType": "uint32",
              "name": "srcEid",
              "type": "uint32"
            },
            {
              "internalType": "bytes32",
              "name": "sender",
              "type": "bytes32"
            },
            {
              "internalType": "uint64",
              "name": "nonce",
              "type": "uint64"
            }
          ],
          "internalType": "struct Origin",
          "name": "_origin",
          "type": "tuple"
        },
        {
          "internalType": "bytes32",
          "name": "_guid",
          "type": "bytes32"
        },
        {
          "internalType": "bytes",
          "name": "_message",
          "type": "bytes"
        },
        {
          "internalType": "address",
          "name": "_executor",
          "type": "address"
        },
        {
          "internalType": "bytes",
          "name": "_extraData",
          "type": "bytes"
        }
      ],
      "name": "lzReceive",
      "outputs": [],
      "stateMutability": "payable",
      "type": "function"
    },
    {
      "inputs": [
        {
          "internalType": "uint32",
          "name": "",
          "type": "uint32"
        },
        {
          "internalType": "bytes32",
          "name": "",
          "type": "bytes32"
        }
      ],
      "name": "nextNonce",
      "outputs": [
        {
          "internalType": "uint64",
          "name": "nonce",
          "type": "uint64"
        }
      ],
      "stateMutability": "view",
      "type": "function"
    },
    {
      "inputs": [],
      "name": "oAppVersion",
      "outputs": [
        {
          "internalType": "uint64",
          "name": "senderVersion",
          "type": "uint64"
        },
        {
          "internalType": "uint64",
          "name": "receiverVersion",
          "type": "uint64"
        }
      ],
      "stateMutability": "pure",
      "type": "function"
    },
    {
      "inputs": [],
      "name": "owner",
      "outputs": [
        {
          "internalType": "address",
          "name": "",
          "type": "address"
        }
      ],
      "stateMutability": "view",
      "type": "function"
    },
    {
      "inputs": [
        {
          "internalType": "uint32",
          "name": "eid",
          "type": "uint32"
        }
      ],
      "name": "peers",
      "outputs": [
        {
          "internalType": "bytes32",
          "name": "peer",
          "type": "bytes32"
        }
      ],
      "stateMutability": "view",
      "type": "function"
    },
    {
      "inputs": [],
      "name": "renounceOwnership",
      "outputs": [],
      "stateMutability": "nonpayable",
      "type": "function"
    },
    {
      "inputs": [
        {
          "internalType": "uint32",
          "name": "_dstEid",
          "type": "uint32"
        },
        {
          "internalType": "string",
          "name": "_message",
          "type": "string"
        },
        {
          "internalType": "bytes",
          "name": "_options",
          "type": "bytes"
        }
      ],
      "name": "send",
      "outputs": [],
      "stateMutability": "payable",
      "type": "function"
    },
    {
      "inputs": [
        {
          "internalType": "address",
          "name": "_delegate",
          "type": "address"
        }
      ],
      "name": "setDelegate",
      "outputs": [],
      "stateMutability": "nonpayable",
      "type": "function"
    },
    {
      "inputs": [
        {
          "internalType": "uint32",
          "name": "_eid",
          "type": "uint32"
        },
        {
          "internalType": "bytes32",
          "name": "_peer",
          "type": "bytes32"
        }
      ],
      "name": "setPeer",
      "outputs": [],
      "stateMutability": "nonpayable",
      "type": "function"
    },
    {
      "inputs": [
        {
          "internalType": "address",
          "name": "newOwner",
          "type": "address"
        }
      ],
      "name": "transferOwnership",
      "outputs": [],
      "stateMutability": "nonpayable",
      "type": "function"
    }
  ],
  "bytecode": "0x60a060405234801561001057600080fd5b50604051612052380380612052833981810160405281019061003291906102f1565b8033818133600073ffffffffffffffffffffffffffffffffffffffff168173ffffffffffffffffffffffffffffffffffffffff16036100a95760006040517f1e4fbdf70000000000000000000000000000000000000000000000000000000081526004016100a0919061032d565b60405180910390fd5b6100b8816101ca60201b60201c565b508173ffffffffffffffffffffffffffffffffffffffff1660808173ffffffffffffffffffffffffffffffffffffffff1681525050600073ffffffffffffffffffffffffffffffffffffffff168173ffffffffffffffffffffffffffffffffffffffff1603610153576040517fb586360400000000000000000000000000000000000000000000000000000000815260040160405180910390fd5b60805173ffffffffffffffffffffffffffffffffffffffff1663ca5eb5e1826040518263ffffffff1660e01b815260040161018e919061032d565b600060405180830381600087803b1580156101a857600080fd5b505af11580156101bc573d6000803e3d6000fd5b505050505050505050610348565b60008060009054906101000a900473ffffffffffffffffffffffffffffffffffffffff169050816000806101000a81548173ffffffffffffffffffffffffffffffffffffffff021916908373ffffffffffffffffffffffffffffffffffffffff1602179055508173ffffffffffffffffffffffffffffffffffffffff168173ffffffffffffffffffffffffffffffffffffffff167f8be0079c531659141344cd1fd0a4f28419497f9722a3daafe3b4186f6b6457e060405160405180910390a35050565b600080fd5b600073ffffffffffffffffffffffffffffffffffffffff82169050919050565b60006102be82610293565b9050919050565b6102ce816102b3565b81146102d957600080fd5b50565b6000815190506102eb816102c5565b92915050565b6000602082840312156103075761030661028e565b5b6000610315848285016102dc565b91505092915050565b610327816102b3565b82525050565b6000602082019050610342600083018461031e565b92915050565b608051611ccc6103866000396000818161039c015281816104d10152818161062301528181610a8601528181610bc60152610cc10152611ccc6000f3fe6080604052600436106100e85760003560e01c80637d25a05e1161008a578063ca5eb5e111610059578063ca5eb5e1146102d8578063e0539e5814610301578063f2fde38b1461031d578063ff7bd03d14610346576100e8565b80637d25a05e146101f657806382413eac146102335780638da5cb5b14610270578063bb0b6a531461029b576100e8565b80633400288b116100c65780633400288b146101605780635e280f1114610189578063715018a6146101b457806373d4a13a146101cb576100e8565b806313137d65146100ed57806317442b70146101095780631f5e133414610135575b600080fd5b61010760048036038101906101029190610faf565b610383565b005b34801561011557600080fd5b5061011e6104a5565b60405161012c92919061108e565b60405180910390f35b34801561014157600080fd5b5061014a6104b4565b60405161015791906110d4565b60405180910390f35b34801561016c57600080fd5b506101876004803603810190610182919061112b565b6104b9565b005b34801561019557600080fd5b5061019e6104cf565b6040516101ab91906111ca565b60405180910390f35b3480156101c057600080fd5b506101c96104f3565b005b3480156101d757600080fd5b506101e0610507565b6040516101ed9190611275565b60405180910390f35b34801561020257600080fd5b5061021d6004803603810190610218919061112b565b610595565b60405161022a9190611297565b60405180910390f35b34801561023f57600080fd5b5061025a600480360381019061025591906112b2565b61059d565b6040516102679190611341565b60405180910390f35b34801561027c57600080fd5b506102856105d8565b604051610292919061136b565b60405180910390f35b3480156102a757600080fd5b506102c260048036038101906102bd9190611386565b610601565b6040516102cf91906113c2565b60405180910390f35b3480156102e457600080fd5b506102ff60048036038101906102fa91906113dd565b610619565b005b61031b6004803603810190610316919061153a565b6106af565b005b34801561032957600080fd5b50610344600480360381019061033f91906113dd565b610741565b005b34801561035257600080fd5b5061036d600480360381019061036891906115ca565b6107c7565b60405161037a9190611341565b60405180910390f35b3373ffffffffffffffffffffffffffffffffffffffff167f000000000000000000000000000000000000000000000000000000000000000073ffffffffffffffffffffffffffffffffffffffff161461041357336040517f91ac5e4f00000000000000000000000000000000000000000000000000000000815260040161040a919061136b565b60405180910390fd5b866020013561043388600001602081019061042e9190611386565b610808565b1461048d5786600001602081019061044b9190611386565b87602001356040517fc26bebcc000000000000000000000000000000000000000000000000000000008152600401610484929190611606565b60405180910390fd5b61049c8787878787878761087d565b50505050505050565b60008060016002915091509091565b600181565b6104c16108a4565b6104cb828261092b565b5050565b7f000000000000000000000000000000000000000000000000000000000000000081565b6104fb6108a4565b610505600061098c565b565b600280546105149061165e565b80601f01602080910402602001604051908101604052809291908181526020018280546105409061165e565b801561058d5780601f106105625761010080835404028352916020019161058d565b820191906000526020600020905b81548152906001019060200180831161057057829003601f168201915b505050505081565b600092915050565b60003073ffffffffffffffffffffffffffffffffffffffff168273ffffffffffffffffffffffffffffffffffffffff16149050949350505050565b60008060009054906101000a900473ffffffffffffffffffffffffffffffffffffffff16905090565b60016020528060005260406000206000915090505481565b6106216108a4565b7f000000000000000000000000000000000000000000000000000000000000000073ffffffffffffffffffffffffffffffffffffffff1663ca5eb5e1826040518263ffffffff1660e01b815260040161067a919061136b565b600060405180830381600087803b15801561069457600080fd5b505af11580156106a8573d6000803e3d6000fd5b5050505050565b6000836040516020016106c29190611275565b6040516020818303038152906040529050610739858285858080601f016020809104026020016040519081016040528093929190818152602001838380828437600081840152601f19601f820116905080830192505050505050506040518060400160405280348152602001600081525033610a50565b505050505050565b6107496108a4565b600073ffffffffffffffffffffffffffffffffffffffff168173ffffffffffffffffffffffffffffffffffffffff16036107bb5760006040517f1e4fbdf70000000000000000000000000000000000000000000000000000000081526004016107b2919061136b565b60405180910390fd5b6107c48161098c565b50565b60008160200135600160008460000160208101906107e59190611386565b63ffffffff1663ffffffff16815260200190815260200160002054149050919050565b600080600160008463ffffffff1663ffffffff1681526020019081526020016000205490506000801b810361087457826040517ff6ff4fb700000000000000000000000000000000000000000000000000000000815260040161086b919061168f565b60405180910390fd5b80915050919050565b848481019061088c91906116aa565b6002908161089a919061189f565b5050505050505050565b6108ac610b6c565b73ffffffffffffffffffffffffffffffffffffffff166108ca6105d8565b73ffffffffffffffffffffffffffffffffffffffff1614610929576108ed610b6c565b6040517f118cdaa7000000000000000000000000000000000000000000000000000000008152600401610920919061136b565b60405180910390fd5b565b80600160008463ffffffff1663ffffffff168152602001908152602001600020819055507f238399d427b947898edb290f5ff0f9109849b1c3ba196a42e35f00c50a54b98b8282604051610980929190611606565b60405180910390a15050565b60008060009054906101000a900473ffffffffffffffffffffffffffffffffffffffff169050816000806101000a81548173ffffffffffffffffffffffffffffffffffffffff021916908373ffffffffffffffffffffffffffffffffffffffff1602179055508173ffffffffffffffffffffffffffffffffffffffff168173ffffffffffffffffffffffffffffffffffffffff167f8be0079c531659141344cd1fd0a4f28419497f9722a3daafe3b4186f6b6457e060405160405180910390a35050565b610a58610e30565b6000610a678460000151610b74565b9050600084602001511115610a8457610a838460200151610bc2565b5b7f000000000000000000000000000000000000000000000000000000000000000073ffffffffffffffffffffffffffffffffffffffff16632637a450826040518060a001604052808b63ffffffff168152602001610ae18c610808565b81526020018a815260200189815260200160008960200151111515815250866040518463ffffffff1660e01b8152600401610b1d929190611a70565b60806040518083038185885af1158015610b3b573d6000803e3d6000fd5b50505050506040513d601f19601f82011682018060405250810190610b609190611bc6565b91505095945050505050565b600033905090565b6000813414610bba57346040517f9f704120000000000000000000000000000000000000000000000000000000008152600401610bb19190611c02565b60405180910390fd5b819050919050565b60007f000000000000000000000000000000000000000000000000000000000000000073ffffffffffffffffffffffffffffffffffffffff1663e4fe1d946040518163ffffffff1660e01b8152600401602060405180830381865afa158015610c2f573d6000803e3d6000fd5b505050506040513d601f19601f82011682018060405250810190610c539190611c32565b9050600073ffffffffffffffffffffffffffffffffffffffff168173ffffffffffffffffffffffffffffffffffffffff1603610cbb576040517f5373352a00000000000000000000000000000000000000000000000000000000815260040160405180910390fd5b610d08337f0000000000000000000000000000000000000000000000000000000000000000848473ffffffffffffffffffffffffffffffffffffffff16610d0c909392919063ffffffff16565b5050565b610d88848573ffffffffffffffffffffffffffffffffffffffff166323b872dd868686604051602401610d4193929190611c5f565b604051602081830303815290604052915060e01b6020820180517bffffffffffffffffffffffffffffffffffffffffffffffffffffffff8381831617835250505050610d8e565b50505050565b600080602060008451602086016000885af180610db1576040513d6000823e3d81fd5b3d925060005191505060008214610dcc576001811415610de8565b60008473ffffffffffffffffffffffffffffffffffffffff163b145b15610e2a57836040517f5274afe7000000000000000000000000000000000000000000000000000000008152600401610e21919061136b565b60405180910390fd5b50505050565b604051806060016040528060008019168152602001600067ffffffffffffffff168152602001610e5e610e64565b81525090565b604051806040016040528060008152602001600081525090565b6000604051905090565b600080fd5b600080fd5b600080fd5b600060608284031215610ead57610eac610e92565b5b81905092915050565b6000819050919050565b610ec981610eb6565b8114610ed457600080fd5b50565b600081359050610ee681610ec0565b92915050565b600080fd5b600080fd5b600080fd5b60008083601f840112610f1157610f10610eec565b5b8235905067ffffffffffffffff811115610f2e57610f2d610ef1565b5b602083019150836001820283011115610f4a57610f49610ef6565b5b9250929050565b600073ffffffffffffffffffffffffffffffffffffffff82169050919050565b6000610f7c82610f51565b9050919050565b610f8c81610f71565b8114610f9757600080fd5b50565b600081359050610fa981610f83565b92915050565b600080600080600080600060e0888a031215610fce57610fcd610e88565b5b6000610fdc8a828b01610e97565b9750506060610fed8a828b01610ed7565b965050608088013567ffffffffffffffff81111561100e5761100d610e8d565b5b61101a8a828b01610efb565b955095505060a061102d8a828b01610f9a565b93505060c088013567ffffffffffffffff81111561104e5761104d610e8d565b5b61105a8a828b01610efb565b925092505092959891949750929550565b600067ffffffffffffffff82169050919050565b6110888161106b565b82525050565b60006040820190506110a3600083018561107f565b6110b0602083018461107f565b9392505050565b600061ffff82169050919050565b6110ce816110b7565b82525050565b60006020820190506110e960008301846110c5565b92915050565b600063ffffffff82169050919050565b611108816110ef565b811461111357600080fd5b50565b600081359050611125816110ff565b92915050565b6000806040838503121561114257611141610e88565b5b600061115085828601611116565b925050602061116185828601610ed7565b9150509250929050565b6000819050919050565b600061119061118b61118684610f51565b61116b565b610f51565b9050919050565b60006111a282611175565b9050919050565b60006111b482611197565b9050919050565b6111c4816111a9565b82525050565b60006020820190506111df60008301846111bb565b92915050565b600081519050919050565b600082825260208201905092915050565b60005b8381101561121f578082015181840152602081019050611204565b60008484015250505050565b6000601f19601f8301169050919050565b6000611247826111e5565b61125181856111f0565b9350611261818560208601611201565b61126a8161122b565b840191505092915050565b6000602082019050818103600083015261128f818461123c565b905092915050565b60006020820190506112ac600083018461107f565b92915050565b60008060008060a085870312156112cc576112cb610e88565b5b60006112da87828801610e97565b945050606085013567ffffffffffffffff8111156112fb576112fa610e8d565b5b61130787828801610efb565b9350935050608061131a87828801610f9a565b91505092959194509250565b60008115159050919050565b61133b81611326565b82525050565b60006020820190506113566000830184611332565b92915050565b61136581610f71565b82525050565b6000602082019050611380600083018461135c565b92915050565b60006020828403121561139c5761139b610e88565b5b60006113aa84828501611116565b91505092915050565b6113bc81610eb6565b82525050565b60006020820190506113d760008301846113b3565b92915050565b6000602082840312156113f3576113f2610e88565b5b600061140184828501610f9a565b91505092915050565b600080fd5b7f4e487b7100000000000000000000000000000000000000000000000000000000600052604160045260246000fd5b6114478261122b565b810181811067ffffffffffffffff821117156114665761146561140f565b5b80604052505050565b6000611479610e7e565b9050611485828261143e565b919050565b600067ffffffffffffffff8211156114a5576114a461140f565b5b6114ae8261122b565b9050602081019050919050565b82818337600083830152505050565b60006114dd6114d88461148a565b61146f565b9050828152602081018484840111156114f9576114f861140a565b5b6115048482856114bb565b509392505050565b600082601f83011261152157611520610eec565b5b81356115318482602086016114ca565b91505092915050565b6000806000806060858703121561155457611553610e88565b5b600061156287828801611116565b945050602085013567ffffffffffffffff81111561158357611582610e8d565b5b61158f8782880161150c565b935050604085013567ffffffffffffffff8111156115b0576115af610e8d565b5b6115bc87828801610efb565b925092505092959194509250565b6000606082840312156115e0576115df610e88565b5b60006115ee84828501610e97565b91505092915050565b611600816110ef565b82525050565b600060408201905061161b60008301856115f7565b61162860208301846113b3565b9392505050565b7f4e487b7100000000000000000000000000000000000000000000000000000000600052602260045260246000fd5b6000600282049050600182168061167657607f821691505b6020821081036116895761168861162f565b5b50919050565b60006020820190506116a460008301846115f7565b92915050565b6000602082840312156116c0576116bf610e88565b5b600082013567ffffffffffffffff8111156116de576116dd610e8d565b5b6116ea8482850161150c565b91505092915050565b60008190508160005260206000209050919050565b60006020601f8301049050919050565b600082821b905092915050565b6000600883026117557fffffffffffffffffffffffffffffffffffffffffffffffffffffffffffffffff82611718565b61175f8683611718565b95508019841693508086168417925050509392505050565b6000819050919050565b600061179c61179761179284611777565b61116b565b611777565b9050919050565b6000819050919050565b6117b683611781565b6117ca6117c2826117a3565b848454611725565b825550505050565b600090565b6117df6117d2565b6117ea8184846117ad565b505050565b5b8181101561180e576118036000826117d7565b6001810190506117f0565b5050565b601f82111561185357611824816116f3565b61182d84611708565b8101602085101561183c578190505b61185061184885611708565b8301826117ef565b50505b505050565b600082821c905092915050565b600061187660001984600802611858565b1980831691505092915050565b600061188f8383611865565b9150826002028217905092915050565b6118a8826111e5565b67ffffffffffffffff8111156118c1576118c061140f565b5b6118cb825461165e565b6118d6828285611812565b600060209050601f83116001811461190957600084156118f7578287015190505b6119018582611883565b865550611969565b601f198416611917866116f3565b60005b8281101561193f5784890151825560018201915060208501945060208101905061191a565b8683101561195c5784890151611958601f891682611865565b8355505b6001600288020188555050505b505050505050565b61197a816110ef565b82525050565b61198981610eb6565b82525050565b600081519050919050565b600082825260208201905092915050565b60006119b68261198f565b6119c0818561199a565b93506119d0818560208601611201565b6119d98161122b565b840191505092915050565b6119ed81611326565b82525050565b600060a083016000830151611a0b6000860182611971565b506020830151611a1e6020860182611980565b5060408301518482036040860152611a3682826119ab565b91505060608301518482036060860152611a5082826119ab565b9150506080830151611a6560808601826119e4565b508091505092915050565b60006040820190508181036000830152611a8a81856119f3565b9050611a99602083018461135c565b9392505050565b600080fd5b600081519050611ab481610ec0565b92915050565b611ac38161106b565b8114611ace57600080fd5b50565b600081519050611ae081611aba565b92915050565b611aef81611777565b8114611afa57600080fd5b50565b600081519050611b0c81611ae6565b92915050565b600060408284031215611b2857611b27611aa0565b5b611b32604061146f565b90506000611b4284828501611afd565b6000830152506020611b5684828501611afd565b60208301525092915050565b600060808284031215611b7857611b77611aa0565b5b611b82606061146f565b90506000611b9284828501611aa5565b6000830152506020611ba684828501611ad1565b6020830152506040611bba84828501611b12565b60408301525092915050565b600060808284031215611bdc57611bdb610e88565b5b6000611bea84828501611b62565b91505092915050565b611bfc81611777565b82525050565b6000602082019050611c176000830184611bf3565b92915050565b600081519050611c2c81610f83565b92915050565b600060208284031215611c4857611c47610e88565b5b6000611c5684828501611c1d565b91505092915050565b6000606082019050611c74600083018661135c565b611c81602083018561135c565b611c8e6040830184611bf3565b94935050505056fea2646970667358221220f72e65198cd438ca99147f70bcfdc9c3a467db13139e56591364355fcacba84364736f6c634300081b0033",
  "linkReferences": {},
  "deployedLinkReferences": {}
}