{
  "_format": "hh-sol-artifact-1",
  "contractName": "Groth16Verifier",
  "sourceName": "contracts/Verifier.sol",
  "abi": [
    {
      "inputs": [
        {
          "internalType": "uint256[2]",
          "name": "_pA",
          "type": "uint256[2]"
        },
        {
          "internalType": "uint256[2][2]",
          "name": "_pB",
          "type": "uint256[2][2]"
        },
        {
          "internalType": "uint256[2]",
          "name": "_pC",
          "type": "uint256[2]"
        },
        {
          "internalType": "uint256[3]",
          "name": "_pubSignals",
          "type": "uint256[3]"
        }
      ],
      "name": "verifyProof",
      "outputs": [
        {
          "internalType": "bool",
          "name": "",
          "type": "bool"
        }
      ],
      "stateMutability": "view",
      "type": "function"
    }
  ],
  "bytecode": "0x608060405234801561001057600080fd5b506106c8806100206000396000f3fe608060405234801561001057600080fd5b506004361061002b5760003560e01c806311479fea14610030575b600080fd5b61004a600480360381019061004591906105f3565b610060565b6040516100579190610677565b60405180910390f35b600061052d565b7f30644e72e131a029b85045b68181585d97816a916871ca8d3c208c16d87cfd478110610098576000805260206000f35b50565b600060405183815284602082015285604082015260408160608360076107d05a03fa9150816100ce576000805260206000f35b825160408201526020830151606082015260408360808360066107d05a03fa9150816100fe576000805260206000f35b505050505050565b600060808601600087017f0a73129894707446a27ef90f1ef4a0b6d701faa129e5c73c38cd2d912b76344881527f198bd93f27d10745fbfdcfbe01f7cf58fa01dd90d2424cb2dac99bd361f992e660208201526101a960008801357f17c48d170055c2297ae238b1f16b256db0e951c22471962a62c3811130cfdf7d7f1ab26eb83056c4e18a8e161874dc86a35c53b95e285a2e60a13224424164d0918461009b565b6101f960208801357f14a2f9138eed6bd93c2bdedd7371568938aa23cd0022ff44d0c1a8939036d4de7f27b60053a673446e16c58a1dba8d75ede502f46961b5d924bdfeaf1f254949408461009b565b61024960408801357f151295e8a34612f4810d4877af9ca66793ddc7e8cc936d32ec79f0db852167277f073cbeeb484ba643849b839c35834d696ee173936968e58bbdf44233fc3f536e8461009b565b833582527f30644e72e131a029b85045b68181585d97816a916871ca8d3c208c16d87cfd4760208501357f30644e72e131a029b85045b68181585d97816a916871ca8d3c208c16d87cfd4703066020830152843560408301526020850135606083015260408501356080830152606085013560a08301527f0e9367e5bfbc14c1cb115130368fd37c51ab49bf7694b33807d009315b6df49c60c08301527f20fb3b7bf78a9b8212f5bdbd49bcb0cd4347b4519fa37082244064b048d5cd9860e08301527f3031822b1b92f57343122d483a7faa87733eae00bd24c9aab98b57547a8f2af86101008301527f24ff63be2c20133e4011e4794bdfcff9fc8a2aad260e4b011e3abf7c9f853c456101208301527f2d01b7c359866f7ddaeb9157676b0019e75b9dd8d92a0569c87a40ab4bc1fc226101408301527f098c63bf01898960da6b18779fcb624da6fc9e3295ea71e5cd39f3949e3ea9e9610160830152600088015161018083015260206000018801516101a08301527f198e9393920d483a7260bfb731fb5d25f1aa493335a9e71297e485b7aef312c26101c08301527f1800deef121f1e76426a00665e5c4479674322d4f75edadd46debd5cd992f6ed6101e08301527f090689d0585ff075ec9e99ad690c3395bc4b313370b38ef355acdadcd122975b6102008301527f12c85ea5db8c6deb4aab71808dcb408fe3d1e7690c43d37b4ce6cc0166fa7daa610220830152853561024083015260208601356102608301527f15f53ec2de5e092a659c1f93ee02f65ce80b1a68b104dac279cb807f2896685f6102808301527f03f0951374c3af6c60c931892bb6b6fad79bd35ca260b742b2d845131df75fa96102a08301527f3015bc013d4b611881a0499338f3b04685fdedcd6a390dfc2ce7cb0a3835c0cd6102c08301527f1833b463d13ede4e5dc84e194af2c7e4c363d474f1b3809a559a68a2113f2cdb6102e08301526020826103008460086107d05a03fa82518116935050505095945050505050565b60405161038081016040526105456000840135610067565b6105526020840135610067565b61055f6040840135610067565b61056c6060840135610067565b610579818486888a610106565b8060005260206000f35b600080fd5b600080fd5b6000819050826020600202820111156105a9576105a8610588565b5b92915050565b6000819050826040600202820111156105cb576105ca610588565b5b92915050565b6000819050826020600302820111156105ed576105ec610588565b5b92915050565b600080600080610160858703121561060e5761060d610583565b5b600061061c8782880161058d565b945050604061062d878288016105af565b93505060c061063e8782880161058d565b925050610100610650878288016105d1565b91505092959194509250565b60008115159050919050565b6106718161065c565b82525050565b600060208201905061068c6000830184610668565b9291505056fea2646970667358221220bea3e92ec50ac8c796da45d4db2d183857addb662d3267e228353e5c57daa1c564736f6c63430008140033",
  "linkReferences": {},
  "deployedLinkReferences": {}
}