{
    "_format": "hh-sol-artifact-1",
    "contractName": "Trivia",
    "sourceName": "contracts/Trivia.sol",
    "abi": [
        {
            "inputs": [
                {
                    "internalType": "address",
                    "name": "_hasher",
                    "type": "address"
                },
                {
                    "internalType": "address",
                    "name": "_verifier",
                    "type": "address"
                },
                {
                    "internalType": "address",
                    "name": "_usdcToken",
                    "type": "address"
                },
                {
                    "internalType": "address",
                    "name": "_aavePool",
                    "type": "address"
                }
            ],
            "stateMutability": "nonpayable",
            "type": "constructor"
        },
        {
            "inputs": [
                {
                    "internalType": "address",
                    "name": "spender",
                    "type": "address"
                },
                {
                    "internalType": "uint256",
                    "name": "allowance",
                    "type": "uint256"
                },
                {
                    "internalType": "uint256",
                    "name": "needed",
                    "type": "uint256"
                }
            ],
            "name": "ERC20InsufficientAllowance",
            "type": "error"
        },
        {
            "inputs": [
                {
                    "internalType": "address",
                    "name": "sender",
                    "type": "address"
                },
                {
                    "internalType": "uint256",
                    "name": "balance",
                    "type": "uint256"
                },
                {
                    "internalType": "uint256",
                    "name": "needed",
                    "type": "uint256"
                }
            ],
            "name": "ERC20InsufficientBalance",
            "type": "error"
        },
        {
            "inputs": [
                {
                    "internalType": "address",
                    "name": "approver",
                    "type": "address"
                }
            ],
            "name": "ERC20InvalidApprover",
            "type": "error"
        },
        {
            "inputs": [
                {
                    "internalType": "address",
                    "name": "receiver",
                    "type": "address"
                }
            ],
            "name": "ERC20InvalidReceiver",
            "type": "error"
        },
        {
            "inputs": [
                {
                    "internalType": "address",
                    "name": "sender",
                    "type": "address"
                }
            ],
            "name": "ERC20InvalidSender",
            "type": "error"
        },
        {
            "inputs": [
                {
                    "internalType": "address",
                    "name": "spender",
                    "type": "address"
                }
            ],
            "name": "ERC20InvalidSpender",
            "type": "error"
        },
        {
            "inputs": [
                {
                    "internalType": "address",
                    "name": "owner",
                    "type": "address"
                }
            ],
            "name": "OwnableInvalidOwner",
            "type": "error"
        },
        {
            "inputs": [
                {
                    "internalType": "address",
                    "name": "account",
                    "type": "address"
                }
            ],
            "name": "OwnableUnauthorizedAccount",
            "type": "error"
        },
        {
            "anonymous": false,
            "inputs": [
                {
                    "indexed": true,
                    "internalType": "address",
                    "name": "owner",
                    "type": "address"
                },
                {
                    "indexed": true,
                    "internalType": "address",
                    "name": "spender",
                    "type": "address"
                },
                {
                    "indexed": false,
                    "internalType": "uint256",
                    "name": "value",
                    "type": "uint256"
                }
            ],
            "name": "Approval",
            "type": "event"
        },
        {
            "anonymous": false,
            "inputs": [
                {
                    "indexed": true,
                    "internalType": "uint256",
                    "name": "root",
                    "type": "uint256"
                },
                {
                    "indexed": false,
                    "internalType": "uint256[10]",
                    "name": "hashPairings",
                    "type": "uint256[10]"
                },
                {
                    "indexed": false,
                    "internalType": "uint8[10]",
                    "name": "pairDirection",
                    "type": "uint8[10]"
                },
                {
                    "indexed": false,
                    "internalType": "uint256",
                    "name": "amount",
                    "type": "uint256"
                },
                {
                    "indexed": false,
                    "internalType": "uint256",
                    "name": "id",
                    "type": "uint256"
                }
            ],
            "name": "Deposit",
            "type": "event"
        },
        {
            "anonymous": false,
            "inputs": [
                {
                    "indexed": true,
                    "internalType": "address",
                    "name": "previousOwner",
                    "type": "address"
                },
                {
                    "indexed": true,
                    "internalType": "address",
                    "name": "newOwner",
                    "type": "address"
                }
            ],
            "name": "OwnershipTransferred",
            "type": "event"
        },
        {
            "anonymous": false,
            "inputs": [
                {
                    "indexed": true,
                    "internalType": "address",
                    "name": "user",
                    "type": "address"
                },
                {
                    "indexed": false,
                    "internalType": "uint256",
                    "name": "points",
                    "type": "uint256"
                }
            ],
            "name": "PointsUploaded",
            "type": "event"
        },
        {
            "anonymous": false,
            "inputs": [
                {
                    "indexed": true,
                    "internalType": "address",
                    "name": "user",
                    "type": "address"
                },
                {
                    "indexed": false,
                    "internalType": "uint256",
                    "name": "rewardAmount",
                    "type": "uint256"
                }
            ],
            "name": "RewardsDistributed",
            "type": "event"
        },
        {
            "anonymous": false,
            "inputs": [
                {
                    "indexed": true,
                    "internalType": "address",
                    "name": "from",
                    "type": "address"
                },
                {
                    "indexed": true,
                    "internalType": "address",
                    "name": "to",
                    "type": "address"
                },
                {
                    "indexed": false,
                    "internalType": "uint256",
                    "name": "value",
                    "type": "uint256"
                }
            ],
            "name": "Transfer",
            "type": "event"
        },
        {
            "anonymous": false,
            "inputs": [
                {
                    "indexed": true,
                    "internalType": "address",
                    "name": "user",
                    "type": "address"
                },
                {
                    "indexed": true,
                    "internalType": "uint256",
                    "name": "nullifierHash",
                    "type": "uint256"
                },
                {
                    "indexed": false,
                    "internalType": "uint256",
                    "name": "amount",
                    "type": "uint256"
                }
            ],
            "name": "Withdrawal",
            "type": "event"
        },
        {
            "inputs": [],
            "name": "ADDITIONAL_INTEREST_PRECISION",
            "outputs": [
                {
                    "internalType": "uint256",
                    "name": "",
                    "type": "uint256"
                }
            ],
            "stateMutability": "view",
            "type": "function"
        },
        {
            "inputs": [],
            "name": "DECIMALS",
            "outputs": [
                {
                    "internalType": "uint8",
                    "name": "",
                    "type": "uint8"
                }
            ],
            "stateMutability": "view",
            "type": "function"
        },
        {
            "inputs": [],
            "name": "ELIGIBILITY_AMOUNT",
            "outputs": [
                {
                    "internalType": "uint256",
                    "name": "",
                    "type": "uint256"
                }
            ],
            "stateMutability": "view",
            "type": "function"
        },
        {
            "inputs": [],
            "name": "REWARD_SCALE",
            "outputs": [
                {
                    "internalType": "uint256",
                    "name": "",
                    "type": "uint256"
                }
            ],
            "stateMutability": "view",
            "type": "function"
        },
        {
            "inputs": [],
            "name": "WEEK_TIME",
            "outputs": [
                {
                    "internalType": "uint256",
                    "name": "",
                    "type": "uint256"
                }
            ],
            "stateMutability": "view",
            "type": "function"
        },
        {
            "inputs": [],
            "name": "aavePool",
            "outputs": [
                {
                    "internalType": "contract IPool",
                    "name": "",
                    "type": "address"
                }
            ],
            "stateMutability": "view",
            "type": "function"
        },
        {
            "inputs": [
                {
                    "internalType": "address",
                    "name": "owner",
                    "type": "address"
                },
                {
                    "internalType": "address",
                    "name": "spender",
                    "type": "address"
                }
            ],
            "name": "allowance",
            "outputs": [
                {
                    "internalType": "uint256",
                    "name": "",
                    "type": "uint256"
                }
            ],
            "stateMutability": "view",
            "type": "function"
        },
        {
            "inputs": [
                {
                    "internalType": "address",
                    "name": "spender",
                    "type": "address"
                },
                {
                    "internalType": "uint256",
                    "name": "value",
                    "type": "uint256"
                }
            ],
            "name": "approve",
            "outputs": [
                {
                    "internalType": "bool",
                    "name": "",
                    "type": "bool"
                }
            ],
            "stateMutability": "nonpayable",
            "type": "function"
        },
        {
            "inputs": [
                {
                    "internalType": "address",
                    "name": "account",
                    "type": "address"
                }
            ],
            "name": "balanceOf",
            "outputs": [
                {
                    "internalType": "uint256",
                    "name": "",
                    "type": "uint256"
                }
            ],
            "stateMutability": "view",
            "type": "function"
        },
        {
            "inputs": [
                {
                    "internalType": "address",
                    "name": "user",
                    "type": "address"
                }
            ],
            "name": "calcReward",
            "outputs": [
                {
                    "internalType": "uint256",
                    "name": "",
                    "type": "uint256"
                }
            ],
            "stateMutability": "view",
            "type": "function"
        },
        {
            "inputs": [
                {
                    "internalType": "address",
                    "name": "user",
                    "type": "address"
                }
            ],
            "name": "checkEligibility",
            "outputs": [
                {
                    "internalType": "bool",
                    "name": "",
                    "type": "bool"
                }
            ],
            "stateMutability": "view",
            "type": "function"
        },
        {
            "inputs": [],
            "name": "checkTotalInterest",
            "outputs": [
                {
                    "internalType": "uint256",
                    "name": "",
                    "type": "uint256"
                }
            ],
            "stateMutability": "view",
            "type": "function"
        },
        {
            "inputs": [
                {
                    "internalType": "bytes",
                    "name": "",
                    "type": "bytes"
                }
            ],
            "name": "checkUpkeep",
            "outputs": [
                {
                    "internalType": "bool",
                    "name": "upkeepNeeded",
                    "type": "bool"
                },
                {
                    "internalType": "bytes",
                    "name": "performData",
                    "type": "bytes"
                }
            ],
            "stateMutability": "view",
            "type": "function"
        },
        {
            "inputs": [],
            "name": "checkWeeklyInterest",
            "outputs": [
                {
                    "internalType": "uint256",
                    "name": "",
                    "type": "uint256"
                }
            ],
            "stateMutability": "nonpayable",
            "type": "function"
        },
        {
            "inputs": [
                {
                    "internalType": "uint256",
                    "name": "",
                    "type": "uint256"
                }
            ],
            "name": "commitments",
            "outputs": [
                {
                    "internalType": "bool",
                    "name": "",
                    "type": "bool"
                }
            ],
            "stateMutability": "view",
            "type": "function"
        },
        {
            "inputs": [],
            "name": "decimals",
            "outputs": [
                {
                    "internalType": "uint8",
                    "name": "",
                    "type": "uint8"
                }
            ],
            "stateMutability": "view",
            "type": "function"
        },
        {
            "inputs": [
                {
                    "internalType": "uint256",
                    "name": "amount",
                    "type": "uint256"
                },
                {
                    "internalType": "uint256",
                    "name": "_commitment",
                    "type": "uint256"
                }
            ],
            "name": "deposit",
            "outputs": [],
            "stateMutability": "nonpayable",
            "type": "function"
        },
        {
            "inputs": [],
            "name": "hasher",
            "outputs": [
                {
                    "internalType": "contract Hasher",
                    "name": "",
                    "type": "address"
                }
            ],
            "stateMutability": "view",
            "type": "function"
        },
        {
            "inputs": [],
            "name": "interval",
            "outputs": [
                {
                    "internalType": "uint256",
                    "name": "",
                    "type": "uint256"
                }
            ],
            "stateMutability": "view",
            "type": "function"
        },
        {
            "inputs": [
                {
                    "internalType": "address",
                    "name": "",
                    "type": "address"
                }
            ],
            "name": "isAdmin",
            "outputs": [
                {
                    "internalType": "bool",
                    "name": "",
                    "type": "bool"
                }
            ],
            "stateMutability": "view",
            "type": "function"
        },
        {
            "inputs": [
                {
                    "internalType": "uint8",
                    "name": "",
                    "type": "uint8"
                }
            ],
            "name": "lastLevelHash",
            "outputs": [
                {
                    "internalType": "uint256",
                    "name": "",
                    "type": "uint256"
                }
            ],
            "stateMutability": "view",
            "type": "function"
        },
        {
            "inputs": [],
            "name": "lastRewardTimestamp",
            "outputs": [
                {
                    "internalType": "uint256",
                    "name": "",
                    "type": "uint256"
                }
            ],
            "stateMutability": "view",
            "type": "function"
        },
        {
            "inputs": [],
            "name": "lastWeeklyInterest",
            "outputs": [
                {
                    "internalType": "uint256",
                    "name": "",
                    "type": "uint256"
                }
            ],
            "stateMutability": "view",
            "type": "function"
        },
        {
            "inputs": [],
            "name": "lastWeeklyTimestamp",
            "outputs": [
                {
                    "internalType": "uint256",
                    "name": "",
                    "type": "uint256"
                }
            ],
            "stateMutability": "view",
            "type": "function"
        },
        {
            "inputs": [],
            "name": "lockPeriod",
            "outputs": [
                {
                    "internalType": "uint256",
                    "name": "",
                    "type": "uint256"
                }
            ],
            "stateMutability": "view",
            "type": "function"
        },
        {
            "inputs": [
                {
                    "internalType": "address",
                    "name": "to",
                    "type": "address"
                },
                {
                    "internalType": "uint256",
                    "name": "amount",
                    "type": "uint256"
                }
            ],
            "name": "mint",
            "outputs": [],
            "stateMutability": "nonpayable",
            "type": "function"
        },
        {
            "inputs": [],
            "name": "name",
            "outputs": [
                {
                    "internalType": "string",
                    "name": "",
                    "type": "string"
                }
            ],
            "stateMutability": "view",
            "type": "function"
        },
        {
            "inputs": [],
            "name": "nextLeafIdex",
            "outputs": [
                {
                    "internalType": "uint256",
                    "name": "",
                    "type": "uint256"
                }
            ],
            "stateMutability": "view",
            "type": "function"
        },
        {
            "inputs": [],
            "name": "nextTimelockId",
            "outputs": [
                {
                    "internalType": "uint256",
                    "name": "",
                    "type": "uint256"
                }
            ],
            "stateMutability": "view",
            "type": "function"
        },
        {
            "inputs": [
                {
                    "internalType": "uint256",
                    "name": "",
                    "type": "uint256"
                }
            ],
            "name": "nullifierHashs",
            "outputs": [
                {
                    "internalType": "bool",
                    "name": "",
                    "type": "bool"
                }
            ],
            "stateMutability": "view",
            "type": "function"
        },
        {
            "inputs": [],
            "name": "owner",
            "outputs": [
                {
                    "internalType": "address",
                    "name": "",
                    "type": "address"
                }
            ],
            "stateMutability": "view",
            "type": "function"
        },
        {
            "inputs": [
                {
                    "internalType": "bytes",
                    "name": "",
                    "type": "bytes"
                }
            ],
            "name": "performUpkeep",
            "outputs": [],
            "stateMutability": "nonpayable",
            "type": "function"
        },
        {
            "inputs": [],
            "name": "quizId",
            "outputs": [
                {
                    "internalType": "uint256",
                    "name": "",
                    "type": "uint256"
                }
            ],
            "stateMutability": "view",
            "type": "function"
        },
        {
            "inputs": [
                {
                    "internalType": "uint256",
                    "name": "",
                    "type": "uint256"
                }
            ],
            "name": "quizRewards",
            "outputs": [
                {
                    "internalType": "uint256",
                    "name": "",
                    "type": "uint256"
                }
            ],
            "stateMutability": "view",
            "type": "function"
        },
        {
            "inputs": [
                {
                    "internalType": "uint256",
                    "name": "",
                    "type": "uint256"
                }
            ],
            "name": "quizWinners",
            "outputs": [
                {
                    "internalType": "uint256",
                    "name": "",
                    "type": "uint256"
                }
            ],
            "stateMutability": "view",
            "type": "function"
        },
        {
            "inputs": [],
            "name": "renounceOwnership",
            "outputs": [],
            "stateMutability": "nonpayable",
            "type": "function"
        },
        {
            "inputs": [
                {
                    "internalType": "uint256",
                    "name": "",
                    "type": "uint256"
                }
            ],
            "name": "roots",
            "outputs": [
                {
                    "internalType": "bool",
                    "name": "",
                    "type": "bool"
                }
            ],
            "stateMutability": "view",
            "type": "function"
        },
        {
            "inputs": [
                {
                    "internalType": "address",
                    "name": "user",
                    "type": "address"
                },
                {
                    "internalType": "bool",
                    "name": "_isAllowed",
                    "type": "bool"
                }
            ],
            "name": "setAdmin",
            "outputs": [],
            "stateMutability": "nonpayable",
            "type": "function"
        },
        {
            "inputs": [
                {
                    "internalType": "uint256",
                    "name": "_newInterval",
                    "type": "uint256"
                }
            ],
            "name": "setInterval",
            "outputs": [],
            "stateMutability": "nonpayable",
            "type": "function"
        },
        {
            "inputs": [
                {
                    "internalType": "uint256",
                    "name": "_newPeriod",
                    "type": "uint256"
                }
            ],
            "name": "setLockPeriod",
            "outputs": [],
            "stateMutability": "nonpayable",
            "type": "function"
        },
        {
            "inputs": [
                {
                    "internalType": "address[]",
                    "name": "users",
                    "type": "address[]"
                }
            ],
            "name": "setUsersToReward",
            "outputs": [],
            "stateMutability": "nonpayable",
            "type": "function"
        },
        {
            "inputs": [
                {
                    "internalType": "address",
                    "name": "",
                    "type": "address"
                }
            ],
            "name": "stakerUSDCAmount",
            "outputs": [
                {
                    "internalType": "uint256",
                    "name": "",
                    "type": "uint256"
                }
            ],
            "stateMutability": "view",
            "type": "function"
        },
        {
            "inputs": [],
            "name": "symbol",
            "outputs": [
                {
                    "internalType": "string",
                    "name": "",
                    "type": "string"
                }
            ],
            "stateMutability": "view",
            "type": "function"
        },
        {
            "inputs": [
                {
                    "internalType": "uint256",
                    "name": "",
                    "type": "uint256"
                }
            ],
            "name": "timelockToken",
            "outputs": [
                {
                    "internalType": "address",
                    "name": "owner",
                    "type": "address"
                },
                {
                    "internalType": "uint256",
                    "name": "amount",
                    "type": "uint256"
                },
                {
                    "internalType": "uint256",
                    "name": "timelockStart",
                    "type": "uint256"
                },
                {
                    "internalType": "bool",
                    "name": "valid",
                    "type": "bool"
                }
            ],
            "stateMutability": "view",
            "type": "function"
        },
        {
            "inputs": [],
            "name": "totalStaked",
            "outputs": [
                {
                    "internalType": "uint256",
                    "name": "",
                    "type": "uint256"
                }
            ],
            "stateMutability": "view",
            "type": "function"
        },
        {
            "inputs": [],
            "name": "totalSupply",
            "outputs": [
                {
                    "internalType": "uint256",
                    "name": "",
                    "type": "uint256"
                }
            ],
            "stateMutability": "view",
            "type": "function"
        },
        {
            "inputs": [
                {
                    "internalType": "address",
                    "name": "to",
                    "type": "address"
                },
                {
                    "internalType": "uint256",
                    "name": "value",
                    "type": "uint256"
                }
            ],
            "name": "transfer",
            "outputs": [
                {
                    "internalType": "bool",
                    "name": "",
                    "type": "bool"
                }
            ],
            "stateMutability": "nonpayable",
            "type": "function"
        },
        {
            "inputs": [
                {
                    "internalType": "address",
                    "name": "from",
                    "type": "address"
                },
                {
                    "internalType": "address",
                    "name": "to",
                    "type": "address"
                },
                {
                    "internalType": "uint256",
                    "name": "value",
                    "type": "uint256"
                }
            ],
            "name": "transferFrom",
            "outputs": [
                {
                    "internalType": "bool",
                    "name": "",
                    "type": "bool"
                }
            ],
            "stateMutability": "nonpayable",
            "type": "function"
        },
        {
            "inputs": [
                {
                    "internalType": "address",
                    "name": "newOwner",
                    "type": "address"
                }
            ],
            "name": "transferOwnership",
            "outputs": [],
            "stateMutability": "nonpayable",
            "type": "function"
        },
        {
            "inputs": [],
            "name": "treeLevel",
            "outputs": [
                {
                    "internalType": "uint8",
                    "name": "",
                    "type": "uint8"
                }
            ],
            "stateMutability": "view",
            "type": "function"
        },
        {
            "inputs": [
                {
                    "internalType": "address[]",
                    "name": "users",
                    "type": "address[]"
                },
                {
                    "internalType": "uint256[]",
                    "name": "points",
                    "type": "uint256[]"
                }
            ],
            "name": "uploadPoints",
            "outputs": [],
            "stateMutability": "nonpayable",
            "type": "function"
        },
        {
            "inputs": [],
            "name": "usdcToken",
            "outputs": [
                {
                    "internalType": "contract IERC20",
                    "name": "",
                    "type": "address"
                }
            ],
            "stateMutability": "view",
            "type": "function"
        },
        {
            "inputs": [
                {
                    "internalType": "address",
                    "name": "",
                    "type": "address"
                }
            ],
            "name": "userPoints",
            "outputs": [
                {
                    "internalType": "uint256",
                    "name": "",
                    "type": "uint256"
                }
            ],
            "stateMutability": "view",
            "type": "function"
        },
        {
            "inputs": [
                {
                    "internalType": "uint256",
                    "name": "",
                    "type": "uint256"
                }
            ],
            "name": "usersToReward",
            "outputs": [
                {
                    "internalType": "address",
                    "name": "",
                    "type": "address"
                }
            ],
            "stateMutability": "view",
            "type": "function"
        },
        {
            "inputs": [],
            "name": "verifier",
            "outputs": [
                {
                    "internalType": "address",
                    "name": "",
                    "type": "address"
                }
            ],
            "stateMutability": "view",
            "type": "function"
        },
        {
            "inputs": [
                {
                    "internalType": "uint256",
                    "name": "id",
                    "type": "uint256"
                },
                {
                    "internalType": "uint256[2]",
                    "name": "_pA",
                    "type": "uint256[2]"
                },
                {
                    "internalType": "uint256[2][2]",
                    "name": "_pB",
                    "type": "uint256[2][2]"
                },
                {
                    "internalType": "uint256[2]",
                    "name": "_pC",
                    "type": "uint256[2]"
                },
                {
                    "internalType": "uint256[2]",
                    "name": "_pubSignals",
                    "type": "uint256[2]"
                }
            ],
            "name": "withdraw",
            "outputs": [],
            "stateMutability": "nonpayable",
            "type": "function"
        }
    ],
    "bytecode": "0x6080604052601e600b556101a4600c55600a601260006101000a81548160ff021916908360ff16021790555060006013556040518061014001604052807fd4b1397294ac371d7e6327985b84e513e1a67d7511cd9e97c8d863f475234ff381526020017f7a1950291d8f8d98ffa31fb48d4ade1f75579c189663a7ad6253e054eb3c6e0281526020017f9a5bd8dcbf46dd9d94aa5f453a88c30ea30078f4233b48b7e6a09c309efcaacf81526020017f10d25a62653575746e8c8d14d457cad6d4d84237f8c0469f2b6fc1d8eefdedcf81526020017fb8cca00d5457eeba20a4a2559e4b7b8474aa461fdcca193ab9c684f42548a79281526020017ff1fa21b6a1c7e39c31bc19188cd3492b0093f7a08b3a5452bcc90fd72e39169b81526020017fa7719a5fce76578cf8f2fe028aa33a8d8dafbb9d56d135d6bdbb98b588bfbe4d81526020017fd74b7e6e290c206af23fa785f7088f4646778a6f4e238bff11a81493b421da6b81526020017f43b04fd9e248d46a8e3c53786aaa06abcbc7152859d957393a7ed77f937b82df81526020017f4a6b78ef2b2e9ae43bb3c90c13058a03141de722292df4b889908ef2f19fd3e6815250601f90600a620001c8929190620004ef565b50348015620001d657600080fd5b5060405162005aab38038062005aab8339818101604052810190620001fc9190620005bd565b6040518060400160405280600681526020017f54524956494100000000000000000000000000000000000000000000000000008152506040518060400160405280600681526020017f545249564941000000000000000000000000000000000000000000000000000081525033600073ffffffffffffffffffffffffffffffffffffffff168173ffffffffffffffffffffffffffffffffffffffff1603620002de5760006040517f1e4fbdf7000000000000000000000000000000000000000000000000000000008152600401620002d5919062000640565b60405180910390fd5b620002ef816200042b60201b60201c565b508160049081620003019190620008d7565b508060059081620003139190620008d7565b50505083600760006101000a81548173ffffffffffffffffffffffffffffffffffffffff021916908373ffffffffffffffffffffffffffffffffffffffff16021790555082600660006101000a81548173ffffffffffffffffffffffffffffffffffffffff021916908373ffffffffffffffffffffffffffffffffffffffff16021790555081600960006101000a81548173ffffffffffffffffffffffffffffffffffffffff021916908373ffffffffffffffffffffffffffffffffffffffff16021790555080600860006101000a81548173ffffffffffffffffffffffffffffffffffffffff021916908373ffffffffffffffffffffffffffffffffffffffff16021790555042600d8190555050505050620009be565b60008060009054906101000a900473ffffffffffffffffffffffffffffffffffffffff169050816000806101000a81548173ffffffffffffffffffffffffffffffffffffffff021916908373ffffffffffffffffffffffffffffffffffffffff1602179055508173ffffffffffffffffffffffffffffffffffffffff168173ffffffffffffffffffffffffffffffffffffffff167f8be0079c531659141344cd1fd0a4f28419497f9722a3daafe3b4186f6b6457e060405160405180910390a35050565b82600a810192821562000521579160200282015b828111156200052057825182559160200191906001019062000503565b5b50905062000530919062000534565b5090565b5b808211156200054f57600081600090555060010162000535565b5090565b600080fd5b600073ffffffffffffffffffffffffffffffffffffffff82169050919050565b6000620005858262000558565b9050919050565b620005978162000578565b8114620005a357600080fd5b50565b600081519050620005b7816200058c565b92915050565b60008060008060808587031215620005da57620005d962000553565b5b6000620005ea87828801620005a6565b9450506020620005fd87828801620005a6565b93505060406200061087828801620005a6565b92505060606200062387828801620005a6565b91505092959194509250565b6200063a8162000578565b82525050565b60006020820190506200065760008301846200062f565b92915050565b600081519050919050565b7f4e487b7100000000000000000000000000000000000000000000000000000000600052604160045260246000fd5b7f4e487b7100000000000000000000000000000000000000000000000000000000600052602260045260246000fd5b60006002820490506001821680620006df57607f821691505b602082108103620006f557620006f462000697565b5b50919050565b60008190508160005260206000209050919050565b60006020601f8301049050919050565b600082821b905092915050565b6000600883026200075f7fffffffffffffffffffffffffffffffffffffffffffffffffffffffffffffffff8262000720565b6200076b868362000720565b95508019841693508086168417925050509392505050565b6000819050919050565b6000819050919050565b6000620007b8620007b2620007ac8462000783565b6200078d565b62000783565b9050919050565b6000819050919050565b620007d48362000797565b620007ec620007e382620007bf565b8484546200072d565b825550505050565b600090565b62000803620007f4565b62000810818484620007c9565b505050565b5b8181101562000838576200082c600082620007f9565b60018101905062000816565b5050565b601f82111562000887576200085181620006fb565b6200085c8462000710565b810160208510156200086c578190505b620008846200087b8562000710565b83018262000815565b50505b505050565b600082821c905092915050565b6000620008ac600019846008026200088c565b1980831691505092915050565b6000620008c7838362000899565b9150826002028217905092915050565b620008e2826200065d565b67ffffffffffffffff811115620008fe57620008fd62000668565b5b6200090a8254620006c6565b620009178282856200083c565b600060209050601f8311600181146200094f57600084156200093a578287015190505b620009468582620008b9565b865550620009b6565b601f1984166200095f86620006fb565b60005b82811015620009895784890151825560018201915060208501945060208101905062000962565b86831015620009a95784890151620009a5601f89168262000899565b8355505b6001600288020188555050505b505050505050565b6150dd80620009ce6000396000f3fe608060405234801561001057600080fd5b50600436106103785760003560e01c80637b5758b1116101d3578063c2b40ae411610104578063e2bbb158116100a2578063f2fde38b1161007c578063f2fde38b14610ab7578063f50ddbc714610ad3578063f69bfb7414610b03578063f8077fae14610b2157610378565b8063e2bbb15814610a5f578063e959304f14610a7b578063ed33639f14610a9957610378565b8063d5400047116100de578063d5400047146109b1578063dd62ed3e146109e1578063df44387614610a11578063e17be67d14610a4157610378565b8063c2b40ae414610930578063c89f92cc14610960578063cee9e4281461097e57610378565b80639e0ffd7d11610171578063b599de9c1161014b578063b599de9c14610894578063b8e79564146108c4578063b9583fb2146108e2578063bb5677c11461090057610378565b80639e0ffd7d14610828578063a03e4bc314610846578063a9059cbb1461086457610378565b80638da5cb5b116101ad5780638da5cb5b1461079e578063947a36fb146107bc57806395d89b41146107da5780639baf6b2b146107f857610378565b80637b5758b114610732578063817b1cd214610762578063820e3c0f1461078057610378565b80633fd8b02f116102ad5780636a6f5b1e1161024b57806370a082311161022557806370a08231146106ac578063715018a6146106dc5780637723bafb146106e6578063779972da1461071657610378565b80636a6f5b1e146106415780636e04ff0d1461065f5780636fece60b1461069057610378565b80634585e33b116102875780634585e33b146105bd57806349ce8997146105d95780634b0bddd21461060957806356cefd9f1461062557610378565b80633fd8b02f14610565578063409491081461058357806340c10f19146105a157610378565b806324d7806c1161031a5780633033ce34116102f45780633033ce34146104dd578063313ce567146104f957806339a27c71146105175780633a61738d1461053557610378565b806324d7806c146104715780632b7ac3f3146104a15780632e0f2625146104bf57610378565b806311eac8551161035657806311eac855146103e957806318160ddd1461040757806322a900821461042557806323b872dd1461044157610378565b806306683e4b1461037d57806306fdde031461039b578063095ea7b3146103b9575b600080fd5b610385610b3f565b604051610392919061357c565b60405180910390f35b6103a3610b45565b6040516103b09190613627565b60405180910390f35b6103d360048036038101906103ce91906136dd565b610bd7565b6040516103e09190613738565b60405180910390f35b6103f1610bfa565b6040516103fe91906137b2565b60405180910390f35b61040f610c20565b60405161041c919061357c565b60405180910390f35b61043f600480360381019061043a91906137cd565b610c2a565b005b61045b600480360381019061045691906137fa565b610c7f565b6040516104689190613738565b60405180910390f35b61048b6004803603810190610486919061384d565b610cae565b6040516104989190613738565b60405180910390f35b6104a9610cce565b6040516104b69190613889565b60405180910390f35b6104c7610cf4565b6040516104d491906138c0565b60405180910390f35b6104f760048036038101906104f29190613940565b610cf9565b005b610501610da5565b60405161050e91906138c0565b60405180910390f35b61051f610dae565b60405161052c919061357c565b60405180910390f35b61054f600480360381019061054a919061384d565b610db4565b60405161055c919061357c565b60405180910390f35b61056d610e91565b60405161057a919061357c565b60405180910390f35b61058b610e97565b604051610598919061357c565b60405180910390f35b6105bb60048036038101906105b691906136dd565b610f0a565b005b6105d760048036038101906105d291906139e3565b610f20565b005b6105f360048036038101906105ee91906137cd565b610ff1565b6040516106009190613738565b60405180910390f35b610623600480360381019061061e9190613a5c565b611011565b005b61063f600480360381019061063a9190613af2565b6110e3565b005b61064961130d565b604051610656919061357c565b60405180910390f35b610679600480360381019061067491906139e3565b611314565b604051610687929190613bc8565b60405180910390f35b6106aa60048036038101906106a59190613c3c565b611344565b005b6106c660048036038101906106c1919061384d565b611ac6565b6040516106d3919061357c565b60405180910390f35b6106e4611b0f565b005b61070060048036038101906106fb919061384d565b611b23565b60405161070d9190613738565b60405180910390f35b610730600480360381019061072b91906137cd565b611b82565b005b61074c600480360381019061074791906137cd565b611bd7565b6040516107599190613738565b60405180910390f35b61076a611bf7565b604051610777919061357c565b60405180910390f35b610788611bfd565b604051610795919061357c565b60405180910390f35b6107a6611c03565b6040516107b39190613889565b60405180910390f35b6107c4611c2c565b6040516107d1919061357c565b60405180910390f35b6107e2611c32565b6040516107ef9190613627565b60405180910390f35b610812600480360381019061080d919061384d565b611cc4565b60405161081f919061357c565b60405180910390f35b610830611cdc565b60405161083d919061357c565b60405180910390f35b61084e611ce2565b60405161085b9190613cda565b60405180910390f35b61087e600480360381019061087991906136dd565b611d08565b60405161088b9190613738565b60405180910390f35b6108ae60048036038101906108a991906137cd565b611d2b565b6040516108bb919061357c565b60405180910390f35b6108cc611d43565b6040516108d991906138c0565b60405180910390f35b6108ea611d56565b6040516108f7919061357c565b60405180910390f35b61091a600480360381019061091591906137cd565b611d99565b6040516109279190613889565b60405180910390f35b61094a600480360381019061094591906137cd565b611dd8565b6040516109579190613738565b60405180910390f35b610968611df8565b604051610975919061357c565b60405180910390f35b610998600480360381019061099391906137cd565b611dfd565b6040516109a89493929190613cf5565b60405180910390f35b6109cb60048036038101906109c69190613d66565b611e6a565b6040516109d8919061357c565b60405180910390f35b6109fb60048036038101906109f69190613d93565b611e82565b604051610a08919061357c565b60405180910390f35b610a2b6004803603810190610a2691906137cd565b611f09565b604051610a38919061357c565b60405180910390f35b610a49611f21565b604051610a56919061357c565b60405180910390f35b610a796004803603810190610a749190613dd3565b611f27565b005b610a836128e4565b604051610a90919061357c565b60405180910390f35b610aa16128ea565b604051610aae9190613e34565b60405180910390f35b610ad16004803603810190610acc919061384d565b612910565b005b610aed6004803603810190610ae8919061384d565b612996565b604051610afa919061357c565b60405180910390f35b610b0b6129ae565b604051610b18919061357c565b60405180910390f35b610b296129b5565b604051610b36919061357c565b60405180910390f35b60135481565b606060048054610b5490613e7e565b80601f0160208091040260200160405190810160405280929190818152602001828054610b8090613e7e565b8015610bcd5780601f10610ba257610100808354040283529160200191610bcd565b820191906000526020600020905b815481529060010190602001808311610bb057829003601f168201915b5050505050905090565b600080610be26129bb565b9050610bef8185856129c3565b600191505092915050565b600960009054906101000a900473ffffffffffffffffffffffffffffffffffffffff1681565b6000600354905090565b610c326129d5565b60008111610c75576040517f08c379a0000000000000000000000000000000000000000000000000000000008152600401610c6c90613efb565b60405180910390fd5b80600c8190555050565b600080610c8a6129bb565b9050610c97858285612a5c565b610ca2858585612af0565b60019150509392505050565b601e6020528060005260406000206000915054906101000a900460ff1681565b600660009054906101000a900473ffffffffffffffffffffffffffffffffffffffff1681565b600681565b6001601e60003373ffffffffffffffffffffffffffffffffffffffff1673ffffffffffffffffffffffffffffffffffffffff16815260200190815260200160002060006101000a81548160ff0219169083151502179055610d8f576040517f08c379a0000000000000000000000000000000000000000000000000000000008152600401610d8690613f67565b60405180910390fd5b818160159190610da092919061341d565b505050565b60006006905090565b600f5481565b600080601c60008473ffffffffffffffffffffffffffffffffffffffff1673ffffffffffffffffffffffffffffffffffffffff1681526020019081526020016000205490506000610e03611d56565b90506000600a546103e883601d60008973ffffffffffffffffffffffffffffffffffffffff1673ffffffffffffffffffffffffffffffffffffffff1681526020019081526020016000205486610e599190613fb6565b610e639190613fb6565b610e6d9190613fb6565b610e779190614027565b90506103e881610e879190614027565b9350505050919050565b600b5481565b600062093a8060105442610eab9190614058565b10610f02576000610eba611d56565b9050600060115403610ed85780601181905550601154915050610f07565b600060115482610ee89190614058565b905081601181905550426010819055508092505050610f07565b600090505b90565b610f126129d5565b610f1c8282612be4565b5050565b60006015805490501180610f435750600c54600d5442610f409190614058565b10155b15610fed57610fd76015805480602002602001604051908101604052809291908181526020018280548015610fcd57602002820191906000526020600020905b8160009054906101000a900473ffffffffffffffffffffffffffffffffffffffff1673ffffffffffffffffffffffffffffffffffffffff1681526020019060010190808311610f83575b5050505050612c66565b60156000610fe591906134bd565b42600d819055505b5050565b601b6020528060005260406000206000915054906101000a900460ff1681565b6110196129d5565b600073ffffffffffffffffffffffffffffffffffffffff168273ffffffffffffffffffffffffffffffffffffffff1603611088576040517f08c379a000000000000000000000000000000000000000000000000000000000815260040161107f906140d8565b60405180910390fd5b80601e60008473ffffffffffffffffffffffffffffffffffffffff1673ffffffffffffffffffffffffffffffffffffffff16815260200190815260200160002060006101000a81548160ff0219169083151502179055505050565b6001601e60003373ffffffffffffffffffffffffffffffffffffffff1673ffffffffffffffffffffffffffffffffffffffff16815260200190815260200160002060006101000a81548160ff0219169083151502179055611179576040517f08c379a000000000000000000000000000000000000000000000000000000000815260040161117090613f67565b60405180910390fd5b8181905084849050146111c1576040517f08c379a00000000000000000000000000000000000000000000000000000000081526004016111b890614144565b60405180910390fd5b60005b84849050811015611306578282828181106111e2576111e1614164565b5b90506020020135601d6000878785818110611200576111ff614164565b5b9050602002016020810190611215919061384d565b73ffffffffffffffffffffffffffffffffffffffff1673ffffffffffffffffffffffffffffffffffffffff168152602001908152602001600020600082825461125e9190614193565b9250508190555084848281811061127857611277614164565b5b905060200201602081019061128d919061384d565b73ffffffffffffffffffffffffffffffffffffffff167f739f4d9981573b7d0e13070546febe2da2104cfbbd07f0cb74cb5a54c9597c198484848181106112d7576112d6614164565b5b905060200201356040516112eb919061357c565b60405180910390a280806112fe906141c7565b9150506111c4565b5050505050565b6298968081565b600060606000601580549050118061133b5750600c54600d54426113389190614058565b10155b91509250929050565b600e548510611388576040517f08c379a000000000000000000000000000000000000000000000000000000000815260040161137f9061425b565b60405180910390fd5b60006014868154811061139e5761139d614164565b5b906000526020600020906004020190508060000160009054906101000a900473ffffffffffffffffffffffffffffffffffffffff1673ffffffffffffffffffffffffffffffffffffffff163373ffffffffffffffffffffffffffffffffffffffff1614611440576040517f08c379a0000000000000000000000000000000000000000000000000000000008152600401611437906142c7565b60405180910390fd5b600b5481600201546114529190614193565b421015611494576040517f08c379a000000000000000000000000000000000000000000000000000000000815260040161148b90614333565b60405180910390fd5b8060030160009054906101000a900460ff166114e5576040517f08c379a00000000000000000000000000000000000000000000000000000000081526004016114dc9061439f565b60405180910390fd5b6000826000600281106114fb576114fa614164565b5b6020020135905060008360016002811061151857611517614164565b5b60200201359050601a600082815260200190815260200160002060009054906101000a900460ff1615611580576040517f08c379a00000000000000000000000000000000000000000000000000000000081526004016115779061440b565b60405180910390fd5b6018600083815260200190815260200160002060009054906101000a900460ff166115e0576040517f08c379a00000000000000000000000000000000000000000000000000000000081526004016115d790614477565b60405180910390fd5b60003373ffffffffffffffffffffffffffffffffffffffff1690506000600660009054906101000a900473ffffffffffffffffffffffffffffffffffffffff1673ffffffffffffffffffffffffffffffffffffffff16898989604051806060016040528089815260200188815260200187815250604051602401611667949392919061461a565b6040516020818303038152906040526311479fea60e01b6020820180517bffffffffffffffffffffffffffffffffffffffffffffffffffffffff83818316178352505050506040516116b9919061469d565b6000604051808303816000865af19150503d80600081146116f6576040519150601f19603f3d011682016040523d82523d6000602084013e6116fb565b606091505b505090508061173f576040517f08c379a000000000000000000000000000000000000000000000000000000000815260040161173690614700565b60405180910390fd5b6001601a600085815260200190815260200160002060006101000a81548160ff021916908315150217905550600061177633611ac6565b905080600960009054906101000a900473ffffffffffffffffffffffffffffffffffffffff1673ffffffffffffffffffffffffffffffffffffffff166370a08231306040518263ffffffff1660e01b81526004016117d49190613889565b602060405180830381865afa1580156117f1573d6000803e3d6000fd5b505050506040513d601f19601f820116820180604052508101906118159190614735565b1015611856576040517f08c379a000000000000000000000000000000000000000000000000000000000815260040161184d906147ae565b60405180910390fd5b611861333083610c7f565b5061186c3082612e13565b600860009054906101000a900473ffffffffffffffffffffffffffffffffffffffff1673ffffffffffffffffffffffffffffffffffffffff166369328dec600960009054906101000a900473ffffffffffffffffffffffffffffffffffffffff168860010154306040518463ffffffff1660e01b81526004016118f1939291906147ce565b6020604051808303816000875af1158015611910573d6000803e3d6000fd5b505050506040513d601f19601f820116820180604052508101906119349190614735565b50600960009054906101000a900473ffffffffffffffffffffffffffffffffffffffff1673ffffffffffffffffffffffffffffffffffffffff1663a9059cbb33836040518363ffffffff1660e01b8152600401611992929190614805565b6020604051808303816000875af11580156119b1573d6000803e3d6000fd5b505050506040513d601f19601f820116820180604052508101906119d59190614843565b508560010154600a60008282546119ec9190614058565b925050819055508560010154601c60003373ffffffffffffffffffffffffffffffffffffffff1673ffffffffffffffffffffffffffffffffffffffff1681526020019081526020016000206000828254611a469190614058565b9250508190555060008660030160006101000a81548160ff021916908315150217905550833373ffffffffffffffffffffffffffffffffffffffff167fdf273cb619d95419a9cd0ec88123a0538c85064229baa6363788f743fff90deb83604051611ab1919061357c565b60405180910390a35050505050505050505050565b6000600160008373ffffffffffffffffffffffffffffffffffffffff1673ffffffffffffffffffffffffffffffffffffffff168152602001908152602001600020549050919050565b611b176129d5565b611b216000612e95565b565b600062989680601c60008473ffffffffffffffffffffffffffffffffffffffff1673ffffffffffffffffffffffffffffffffffffffff168152602001908152602001600020541015611b785760009050611b7d565b600190505b919050565b611b8a6129d5565b60008111611bcd576040517f08c379a0000000000000000000000000000000000000000000000000000000008152600401611bc4906148bc565b60405180910390fd5b80600b8190555050565b601a6020528060005260406000206000915054906101000a900460ff1681565b600a5481565b60115481565b60008060009054906101000a900473ffffffffffffffffffffffffffffffffffffffff16905090565b600c5481565b606060058054611c4190613e7e565b80601f0160208091040260200160405190810160405280929190818152602001828054611c6d90613e7e565b8015611cba5780601f10611c8f57610100808354040283529160200191611cba565b820191906000526020600020905b815481529060010190602001808311611c9d57829003601f168201915b5050505050905090565b601c6020528060005260406000206000915090505481565b60105481565b600860009054906101000a900473ffffffffffffffffffffffffffffffffffffffff1681565b600080611d136129bb565b9050611d20818585612af0565b600191505092915050565b60176020528060005260406000206000915090505481565b601260009054906101000a900460ff1681565b600080611d61612f59565b505050505090506000606480600a54611d7a9190613fb6565b611d849190614027565b82611d8f9190614058565b9050809250505090565b60158181548110611da957600080fd5b906000526020600020016000915054906101000a900473ffffffffffffffffffffffffffffffffffffffff1681565b60186020528060005260406000206000915054906101000a900460ff1681565b606481565b60148181548110611e0d57600080fd5b90600052602060002090600402016000915090508060000160009054906101000a900473ffffffffffffffffffffffffffffffffffffffff16908060010154908060020154908060030160009054906101000a900460ff16905084565b60196020528060005260406000206000915090505481565b6000600260008473ffffffffffffffffffffffffffffffffffffffff1673ffffffffffffffffffffffffffffffffffffffff16815260200190815260200160002060008373ffffffffffffffffffffffffffffffffffffffff1673ffffffffffffffffffffffffffffffffffffffff16815260200190815260200160002054905092915050565b60166020528060005260406000206000915090505481565b6103e881565b60008211611f6a576040517f08c379a0000000000000000000000000000000000000000000000000000000008152600401611f6190614928565b60405180910390fd5b81600960009054906101000a900473ffffffffffffffffffffffffffffffffffffffff1673ffffffffffffffffffffffffffffffffffffffff166370a08231336040518263ffffffff1660e01b8152600401611fc69190613889565b602060405180830381865afa158015611fe3573d6000803e3d6000fd5b505050506040513d601f19601f820116820180604052508101906120079190614735565b1015612048576040517f08c379a000000000000000000000000000000000000000000000000000000000815260040161203f90614994565b60405180910390fd5b81600960009054906101000a900473ffffffffffffffffffffffffffffffffffffffff1673ffffffffffffffffffffffffffffffffffffffff1663dd62ed3e33306040518363ffffffff1660e01b81526004016120a69291906149b4565b602060405180830381865afa1580156120c3573d6000803e3d6000fd5b505050506040513d601f19601f820116820180604052508101906120e79190614735565b1015612128576040517f08c379a000000000000000000000000000000000000000000000000000000000815260040161211f90614a29565b60405180910390fd5b601b600082815260200190815260200160002060009054906101000a900460ff1615612189576040517f08c379a000000000000000000000000000000000000000000000000000000000815260040161218090614a95565b60405180910390fd5b601260009054906101000a900460ff1660026121a59190614be8565b601354106121e8576040517f08c379a00000000000000000000000000000000000000000000000000000000081526004016121df90614c7f565b60405180910390fd5b600960009054906101000a900473ffffffffffffffffffffffffffffffffffffffff1673ffffffffffffffffffffffffffffffffffffffff166323b872dd3330856040518463ffffffff1660e01b815260040161224793929190614c9f565b6020604051808303816000875af1158015612266573d6000803e3d6000fd5b505050506040513d601f19601f8201168201806040525081019061228a9190614843565b50600960009054906101000a900473ffffffffffffffffffffffffffffffffffffffff1673ffffffffffffffffffffffffffffffffffffffff1663095ea7b3600860009054906101000a900473ffffffffffffffffffffffffffffffffffffffff16846040518363ffffffff1660e01b815260040161230a929190614805565b6020604051808303816000875af1158015612329573d6000803e3d6000fd5b505050506040513d601f19601f8201168201806040525081019061234d9190614843565b50600860009054906101000a900473ffffffffffffffffffffffffffffffffffffffff1673ffffffffffffffffffffffffffffffffffffffff1663617ba037600960009054906101000a900473ffffffffffffffffffffffffffffffffffffffff16843060006040518563ffffffff1660e01b81526004016123d29493929190614d1f565b600060405180830381600087803b1580156123ec57600080fd5b505af1158015612400573d6000803e3d6000fd5b5050505061240e3383610f0a565b601460405180608001604052803373ffffffffffffffffffffffffffffffffffffffff16815260200184815260200142815260200160011515815250908060018154018082558091505060019003906000526020600020906004020160009091909190915060008201518160000160006101000a81548173ffffffffffffffffffffffffffffffffffffffff021916908373ffffffffffffffffffffffffffffffffffffffff160217905550602082015181600101556040820151816002015560608201518160030160006101000a81548160ff021916908315150217905550505060006124fa6134de565b612502613501565b600060135490506000859050600080612519613524565b60005b601260009054906101000a900460ff1660ff168160ff161015612789578460196000601260009054906101000a900460ff1660ff1660ff1681526020019081526020016000208190555060006002876125759190614d64565b036125fe57849350601f8160ff16600a811061259457612593614164565b5b01549250601f8160ff16600a81106125af576125ae614164565b5b0154888260ff16600a81106125c7576125c6614164565b5b6020020181815250506000878260ff16600a81106125e8576125e7614164565b5b602002019060ff16908160ff1681525050612680565b601960008260ff1660ff168152602001908152602001600020549350849250601960008260ff1660ff16815260200190815260200160002054888260ff16600a811061264d5761264c614164565b5b6020020181815250506001878260ff16600a811061266e5761266d614164565b5b602002019060ff16908160ff16815250505b838260006002811061269557612694614164565b5b60200201818152505082826001600281106126b3576126b2614164565b5b6020020181815250506000600760009054906101000a900473ffffffffffffffffffffffffffffffffffffffff1673ffffffffffffffffffffffffffffffffffffffff1663d622e5a4620249f0858e6040518463ffffffff1660e01b815260040161271f929190614e19565b6020604051808303818786fa15801561273c573d6000803e3d6000fd5b50505050506040513d601f19601f820116820180604052508101906127619190614735565b90508095506002876127739190614027565b965050808061278190614e42565b91505061251c565b508397506001601860008a815260200190815260200160002060006101000a81548160ff0219169083151502179055506001601360008282546127cc9190614193565b925050819055506001601b60008b815260200190815260200160002060006101000a81548160ff02191690831515021790555089601c60003373ffffffffffffffffffffffffffffffffffffffff1673ffffffffffffffffffffffffffffffffffffffff168152602001908152602001600020600082825461284e9190614193565b9250508190555089600a60008282546128679190614193565b92505081905550600e6000815480929190612881906141c7565b919050555060006001600e546128979190614058565b9050887f993972a8ce5eee6c7aefcc7c10b18152c4197d799fc40ebe466e0d7cddce388c89898e856040516128cf9493929190614f9a565b60405180910390a25050505050505050505050565b600e5481565b600760009054906101000a900473ffffffffffffffffffffffffffffffffffffffff1681565b6129186129d5565b600073ffffffffffffffffffffffffffffffffffffffff168173ffffffffffffffffffffffffffffffffffffffff160361298a5760006040517f1e4fbdf70000000000000000000000000000000000000000000000000000000081526004016129819190613889565b60405180910390fd5b61299381612e95565b50565b601d6020528060005260406000206000915090505481565b62093a8081565b600d5481565b600033905090565b6129d0838383600161301e565b505050565b6129dd6129bb565b73ffffffffffffffffffffffffffffffffffffffff166129fb611c03565b73ffffffffffffffffffffffffffffffffffffffff1614612a5a57612a1e6129bb565b6040517f118cdaa7000000000000000000000000000000000000000000000000000000008152600401612a519190613889565b60405180910390fd5b565b6000612a688484611e82565b90507fffffffffffffffffffffffffffffffffffffffffffffffffffffffffffffffff8114612aea5781811015612ada578281836040517ffb8f41b2000000000000000000000000000000000000000000000000000000008152600401612ad193929190614fe3565b60405180910390fd5b612ae98484848403600061301e565b5b50505050565b600073ffffffffffffffffffffffffffffffffffffffff168373ffffffffffffffffffffffffffffffffffffffff1603612b625760006040517f96c6fd1e000000000000000000000000000000000000000000000000000000008152600401612b599190613889565b60405180910390fd5b600073ffffffffffffffffffffffffffffffffffffffff168273ffffffffffffffffffffffffffffffffffffffff1603612bd45760006040517fec442f05000000000000000000000000000000000000000000000000000000008152600401612bcb9190613889565b60405180910390fd5b612bdf8383836131f5565b505050565b600073ffffffffffffffffffffffffffffffffffffffff168273ffffffffffffffffffffffffffffffffffffffff1603612c565760006040517fec442f05000000000000000000000000000000000000000000000000000000008152600401612c4d9190613889565b60405180910390fd5b612c62600083836131f5565b5050565b60008060005b8351811015612dc1576000612c9a858381518110612c8d57612c8c614164565b5b6020026020010151610db4565b90506000811115612d4e57612cc9858381518110612cbb57612cba614164565b5b602002602001015182610f0a565b8084612cd59190614193565b93508280612ce2906141c7565b935050848281518110612cf857612cf7614164565b5b602002602001015173ffffffffffffffffffffffffffffffffffffffff167fdf29796aad820e4bb192f3a8d631b76519bcd2cbe77cc85af20e9df53cece08682604051612d45919061357c565b60405180910390a25b6000601d6000878581518110612d6757612d66614164565b5b602002602001015173ffffffffffffffffffffffffffffffffffffffff1673ffffffffffffffffffffffffffffffffffffffff16815260200190815260200160002081905550508080612db9906141c7565b915050612c6c565b508160166000600f548152602001908152602001600020819055508060176000600f54815260200190815260200160002081905550600f6000815480929190612e09906141c7565b9190505550505050565b600073ffffffffffffffffffffffffffffffffffffffff168273ffffffffffffffffffffffffffffffffffffffff1603612e855760006040517f96c6fd1e000000000000000000000000000000000000000000000000000000008152600401612e7c9190613889565b60405180910390fd5b612e91826000836131f5565b5050565b60008060009054906101000a900473ffffffffffffffffffffffffffffffffffffffff169050816000806101000a81548173ffffffffffffffffffffffffffffffffffffffff021916908373ffffffffffffffffffffffffffffffffffffffff1602179055508173ffffffffffffffffffffffffffffffffffffffff168173ffffffffffffffffffffffffffffffffffffffff167f8be0079c531659141344cd1fd0a4f28419497f9722a3daafe3b4186f6b6457e060405160405180910390a35050565b600080600080600080600860009054906101000a900473ffffffffffffffffffffffffffffffffffffffff1673ffffffffffffffffffffffffffffffffffffffff1663bf92857c306040518263ffffffff1660e01b8152600401612fbd9190613889565b60c060405180830381865afa158015612fda573d6000803e3d6000fd5b505050506040513d601f19601f82011682018060405250810190612ffe919061501a565b809650819750829850839950849a50859b50505050505050909192939495565b600073ffffffffffffffffffffffffffffffffffffffff168473ffffffffffffffffffffffffffffffffffffffff16036130905760006040517fe602df050000000000000000000000000000000000000000000000000000000081526004016130879190613889565b60405180910390fd5b600073ffffffffffffffffffffffffffffffffffffffff168373ffffffffffffffffffffffffffffffffffffffff16036131025760006040517f94280d620000000000000000000000000000000000000000000000000000000081526004016130f99190613889565b60405180910390fd5b81600260008673ffffffffffffffffffffffffffffffffffffffff1673ffffffffffffffffffffffffffffffffffffffff16815260200190815260200160002060008573ffffffffffffffffffffffffffffffffffffffff1673ffffffffffffffffffffffffffffffffffffffff1681526020019081526020016000208190555080156131ef578273ffffffffffffffffffffffffffffffffffffffff168473ffffffffffffffffffffffffffffffffffffffff167f8c5be1e5ebec7d5bd14f71427d1e84f3dd0314c0f7b2291e5b200ac8c7c3b925846040516131e6919061357c565b60405180910390a35b50505050565b600073ffffffffffffffffffffffffffffffffffffffff168373ffffffffffffffffffffffffffffffffffffffff160361324757806003600082825461323b9190614193565b9250508190555061331c565b6000600160008573ffffffffffffffffffffffffffffffffffffffff1673ffffffffffffffffffffffffffffffffffffffff168152602001908152602001600020549050818110156132d4578381836040517fe450d38c0000000000000000000000000000000000000000000000000000000081526004016132cb93929190614fe3565b60405180910390fd5b818103600160008673ffffffffffffffffffffffffffffffffffffffff1673ffffffffffffffffffffffffffffffffffffffff16815260200190815260200160002081905550505b600073ffffffffffffffffffffffffffffffffffffffff168273ffffffffffffffffffffffffffffffffffffffff160361336557806003600082825403925050819055506133b3565b80600160008473ffffffffffffffffffffffffffffffffffffffff1673ffffffffffffffffffffffffffffffffffffffff168152602001908152602001600020600082825401925050819055505b8173ffffffffffffffffffffffffffffffffffffffff168373ffffffffffffffffffffffffffffffffffffffff167fddf252ad1be2c89b69c2b068fc378daa952ba7f163c4a11628f55a4df523b3ef83604051613410919061357c565b60405180910390a3505050565b8280548282559060005260206000209081019282156134ac579160200282015b828111156134ab57823573ffffffffffffffffffffffffffffffffffffffff168260006101000a81548173ffffffffffffffffffffffffffffffffffffffff021916908373ffffffffffffffffffffffffffffffffffffffff1602179055509160200191906001019061343d565b5b5090506134b99190613546565b5090565b50805460008255906000526020600020908101906134db9190613546565b50565b604051806101400160405280600a90602082028036833780820191505090505090565b604051806101400160405280600a90602082028036833780820191505090505090565b6040518060400160405280600290602082028036833780820191505090505090565b5b8082111561355f576000816000905550600101613547565b5090565b6000819050919050565b61357681613563565b82525050565b6000602082019050613591600083018461356d565b92915050565b600081519050919050565b600082825260208201905092915050565b60005b838110156135d15780820151818401526020810190506135b6565b60008484015250505050565b6000601f19601f8301169050919050565b60006135f982613597565b61360381856135a2565b93506136138185602086016135b3565b61361c816135dd565b840191505092915050565b6000602082019050818103600083015261364181846135ee565b905092915050565b600080fd5b600080fd5b600073ffffffffffffffffffffffffffffffffffffffff82169050919050565b600061367e82613653565b9050919050565b61368e81613673565b811461369957600080fd5b50565b6000813590506136ab81613685565b92915050565b6136ba81613563565b81146136c557600080fd5b50565b6000813590506136d7816136b1565b92915050565b600080604083850312156136f4576136f3613649565b5b60006137028582860161369c565b9250506020613713858286016136c8565b9150509250929050565b60008115159050919050565b6137328161371d565b82525050565b600060208201905061374d6000830184613729565b92915050565b6000819050919050565b600061377861377361376e84613653565b613753565b613653565b9050919050565b600061378a8261375d565b9050919050565b600061379c8261377f565b9050919050565b6137ac81613791565b82525050565b60006020820190506137c760008301846137a3565b92915050565b6000602082840312156137e3576137e2613649565b5b60006137f1848285016136c8565b91505092915050565b60008060006060848603121561381357613812613649565b5b60006138218682870161369c565b93505060206138328682870161369c565b9250506040613843868287016136c8565b9150509250925092565b60006020828403121561386357613862613649565b5b60006138718482850161369c565b91505092915050565b61388381613673565b82525050565b600060208201905061389e600083018461387a565b92915050565b600060ff82169050919050565b6138ba816138a4565b82525050565b60006020820190506138d560008301846138b1565b92915050565b600080fd5b600080fd5b600080fd5b60008083601f840112613900576138ff6138db565b5b8235905067ffffffffffffffff81111561391d5761391c6138e0565b5b602083019150836020820283011115613939576139386138e5565b5b9250929050565b6000806020838503121561395757613956613649565b5b600083013567ffffffffffffffff8111156139755761397461364e565b5b613981858286016138ea565b92509250509250929050565b60008083601f8401126139a3576139a26138db565b5b8235905067ffffffffffffffff8111156139c0576139bf6138e0565b5b6020830191508360018202830111156139dc576139db6138e5565b5b9250929050565b600080602083850312156139fa576139f9613649565b5b600083013567ffffffffffffffff811115613a1857613a1761364e565b5b613a248582860161398d565b92509250509250929050565b613a398161371d565b8114613a4457600080fd5b50565b600081359050613a5681613a30565b92915050565b60008060408385031215613a7357613a72613649565b5b6000613a818582860161369c565b9250506020613a9285828601613a47565b9150509250929050565b60008083601f840112613ab257613ab16138db565b5b8235905067ffffffffffffffff811115613acf57613ace6138e0565b5b602083019150836020820283011115613aeb57613aea6138e5565b5b9250929050565b60008060008060408587031215613b0c57613b0b613649565b5b600085013567ffffffffffffffff811115613b2a57613b2961364e565b5b613b36878288016138ea565b9450945050602085013567ffffffffffffffff811115613b5957613b5861364e565b5b613b6587828801613a9c565b925092505092959194509250565b600081519050919050565b600082825260208201905092915050565b6000613b9a82613b73565b613ba48185613b7e565b9350613bb48185602086016135b3565b613bbd816135dd565b840191505092915050565b6000604082019050613bdd6000830185613729565b8181036020830152613bef8184613b8f565b90509392505050565b600081905082602060020282011115613c1457613c136138e5565b5b92915050565b600081905082604060020282011115613c3657613c356138e5565b5b92915050565b60008060008060006101608688031215613c5957613c58613649565b5b6000613c67888289016136c8565b9550506020613c7888828901613bf8565b9450506060613c8988828901613c1a565b93505060e0613c9a88828901613bf8565b925050610120613cac88828901613bf8565b9150509295509295909350565b6000613cc48261377f565b9050919050565b613cd481613cb9565b82525050565b6000602082019050613cef6000830184613ccb565b92915050565b6000608082019050613d0a600083018761387a565b613d17602083018661356d565b613d24604083018561356d565b613d316060830184613729565b95945050505050565b613d43816138a4565b8114613d4e57600080fd5b50565b600081359050613d6081613d3a565b92915050565b600060208284031215613d7c57613d7b613649565b5b6000613d8a84828501613d51565b91505092915050565b60008060408385031215613daa57613da9613649565b5b6000613db88582860161369c565b9250506020613dc98582860161369c565b9150509250929050565b60008060408385031215613dea57613de9613649565b5b6000613df8858286016136c8565b9250506020613e09858286016136c8565b9150509250929050565b6000613e1e8261377f565b9050919050565b613e2e81613e13565b82525050565b6000602082019050613e496000830184613e25565b92915050565b7f4e487b7100000000000000000000000000000000000000000000000000000000600052602260045260246000fd5b60006002820490506001821680613e9657607f821691505b602082108103613ea957613ea8613e4f565b5b50919050565b7f76616c6964206e657720696e74657276616c0000000000000000000000000000600082015250565b6000613ee56012836135a2565b9150613ef082613eaf565b602082019050919050565b60006020820190508181036000830152613f1481613ed8565b9050919050565b7f4e6f7420697341646d696e000000000000000000000000000000000000000000600082015250565b6000613f51600b836135a2565b9150613f5c82613f1b565b602082019050919050565b60006020820190508181036000830152613f8081613f44565b9050919050565b7f4e487b7100000000000000000000000000000000000000000000000000000000600052601160045260246000fd5b6000613fc182613563565b9150613fcc83613563565b9250828202613fda81613563565b91508282048414831517613ff157613ff0613f87565b5b5092915050565b7f4e487b7100000000000000000000000000000000000000000000000000000000600052601260045260246000fd5b600061403282613563565b915061403d83613563565b92508261404d5761404c613ff8565b5b828204905092915050565b600061406382613563565b915061406e83613563565b925082820390508181111561408657614085613f87565b5b92915050565b7f696e76616c696420757365722061646472657373000000000000000000000000600082015250565b60006140c26014836135a2565b91506140cd8261408c565b602082019050919050565b600060208201905081810360008301526140f1816140b5565b9050919050565b7f557365727320616e6420706f696e7473206c656e677468206d69736d61746368600082015250565b600061412e6020836135a2565b9150614139826140f8565b602082019050919050565b6000602082019050818103600083015261415d81614121565b9050919050565b7f4e487b7100000000000000000000000000000000000000000000000000000000600052603260045260246000fd5b600061419e82613563565b91506141a983613563565b92508282019050808211156141c1576141c0613f87565b5b92915050565b60006141d282613563565b91507fffffffffffffffffffffffffffffffffffffffffffffffffffffffffffffffff820361420457614203613f87565b5b600182019050919050565b7f496e76616c696420696400000000000000000000000000000000000000000000600082015250565b6000614245600a836135a2565b91506142508261420f565b602082019050919050565b6000602082019050818103600083015261427481614238565b9050919050565b7f4f6e6c79206f776e65722063616e2072656465656d0000000000000000000000600082015250565b60006142b16015836135a2565b91506142bc8261427b565b602082019050919050565b600060208201905081810360008301526142e0816142a4565b9050919050565b7f5374696c6c20696e206c6f636b20706572696f64000000000000000000000000600082015250565b600061431d6014836135a2565b9150614328826142e7565b602082019050919050565b6000602082019050818103600083015261434c81614310565b9050919050565b7f4e6f742076616c69640000000000000000000000000000000000000000000000600082015250565b60006143896009836135a2565b915061439482614353565b602082019050919050565b600060208201905081810360008301526143b88161437c565b9050919050565b7f616c7265616479207370656e7400000000000000000000000000000000000000600082015250565b60006143f5600d836135a2565b9150614400826143bf565b602082019050919050565b60006020820190508181036000830152614424816143e8565b9050919050565b7f6e6f7420726f6f74000000000000000000000000000000000000000000000000600082015250565b60006144616008836135a2565b915061446c8261442b565b602082019050919050565b6000602082019050818103600083015261449081614454565b9050919050565b82818337505050565b6144ac60408383614497565b5050565b600060029050919050565b600081905092915050565b6000819050919050565b6144dc60408383614497565b5050565b60006144ec83836144d0565b60408301905092915050565b600082905092915050565b6000604082019050919050565b614519816144b0565b61452381846144bb565b925061452e826144c6565b8060005b838110156145675761454482846144f8565b61454e87826144e0565b965061455983614503565b925050600181019050614532565b505050505050565b600060039050919050565b600081905092915050565b6000819050919050565b61459881613563565b82525050565b60006145aa838361458f565b60208301905092915050565b6000602082019050919050565b6145cc8161456f565b6145d6818461457a565b92506145e182614585565b8060005b838110156146125781516145f9878261459e565b9650614604836145b6565b9250506001810190506145e5565b505050505050565b60006101608201905061463060008301876144a0565b61463d6040830186614510565b61464a60c08301856144a0565b6146586101008301846145c3565b95945050505050565b600081905092915050565b600061467782613b73565b6146818185614661565b93506146918185602086016135b3565b80840191505092915050565b60006146a9828461466c565b915081905092915050565b7f696e76616c69642070726f6f6600000000000000000000000000000000000000600082015250565b60006146ea600d836135a2565b91506146f5826146b4565b602082019050919050565b60006020820190508181036000830152614719816146dd565b9050919050565b60008151905061472f816136b1565b92915050565b60006020828403121561474b5761474a613649565b5b600061475984828501614720565b91505092915050565b7f436f6e747261637420696e73756666696369656e742062616c616e6365000000600082015250565b6000614798601d836135a2565b91506147a382614762565b602082019050919050565b600060208201905081810360008301526147c78161478b565b9050919050565b60006060820190506147e3600083018661387a565b6147f0602083018561356d565b6147fd604083018461387a565b949350505050565b600060408201905061481a600083018561387a565b614827602083018461356d565b9392505050565b60008151905061483d81613a30565b92915050565b60006020828403121561485957614858613649565b5b60006148678482850161482e565b91505092915050565b7f76616c696420706572696f640000000000000000000000000000000000000000600082015250565b60006148a6600c836135a2565b91506148b182614870565b602082019050919050565b600060208201905081810360008301526148d581614899565b9050919050565b7f43616e6e6f74206465706f736974207a65726f20746f6b656e73000000000000600082015250565b6000614912601a836135a2565b915061491d826148dc565b602082019050919050565b6000602082019050818103600083015261494181614905565b9050919050565b7f496e73756666696369656e742062616c616e6365000000000000000000000000600082015250565b600061497e6014836135a2565b915061498982614948565b602082019050919050565b600060208201905081810360008301526149ad81614971565b9050919050565b60006040820190506149c9600083018561387a565b6149d6602083018461387a565b9392505050565b7f496e73756666696369656e7420616c6c6f77616e636500000000000000000000600082015250565b6000614a136016836135a2565b9150614a1e826149dd565b602082019050919050565b60006020820190508181036000830152614a4281614a06565b9050919050565b7f6475706c696361746520636f6d6d69746d656e74206861736800000000000000600082015250565b6000614a7f6019836135a2565b9150614a8a82614a49565b602082019050919050565b60006020820190508181036000830152614aae81614a72565b9050919050565b60008160011c9050919050565b6000808291508390505b6001851115614b0c57808604811115614ae857614ae7613f87565b5b6001851615614af75780820291505b8081029050614b0585614ab5565b9450614acc565b94509492505050565b600082614b255760019050614be1565b81614b335760009050614be1565b8160018114614b495760028114614b5357614b82565b6001915050614be1565b60ff841115614b6557614b64613f87565b5b8360020a915084821115614b7c57614b7b613f87565b5b50614be1565b5060208310610133831016604e8410600b8410161715614bb75782820a905083811115614bb257614bb1613f87565b5b614be1565b614bc48484846001614ac2565b92509050818404811115614bdb57614bda613f87565b5b81810290505b9392505050565b6000614bf382613563565b9150614bfe836138a4565b9250614c2b7fffffffffffffffffffffffffffffffffffffffffffffffffffffffffffffffff8484614b15565b905092915050565b7f747265652066756c6c0000000000000000000000000000000000000000000000600082015250565b6000614c696009836135a2565b9150614c7482614c33565b602082019050919050565b60006020820190508181036000830152614c9881614c5c565b9050919050565b6000606082019050614cb4600083018661387a565b614cc1602083018561387a565b614cce604083018461356d565b949350505050565b6000819050919050565b600061ffff82169050919050565b6000614d09614d04614cff84614cd6565b613753565b614ce0565b9050919050565b614d1981614cee565b82525050565b6000608082019050614d34600083018761387a565b614d41602083018661356d565b614d4e604083018561387a565b614d5b6060830184614d10565b95945050505050565b6000614d6f82613563565b9150614d7a83613563565b925082614d8a57614d89613ff8565b5b828206905092915050565b600060029050919050565b600081905092915050565b6000819050919050565b6000602082019050919050565b614dcb81614d95565b614dd58184614da0565b9250614de082614dab565b8060005b83811015614e11578151614df8878261459e565b9650614e0383614db5565b925050600181019050614de4565b505050505050565b6000606082019050614e2e6000830185614dc2565b614e3b604083018461356d565b9392505050565b6000614e4d826138a4565b915060ff8203614e6057614e5f613f87565b5b600182019050919050565b6000600a9050919050565b600081905092915050565b6000819050919050565b6000602082019050919050565b614ea181614e6b565b614eab8184614e76565b9250614eb682614e81565b8060005b83811015614ee7578151614ece878261459e565b9650614ed983614e8b565b925050600181019050614eba565b505050505050565b6000600a9050919050565b600081905092915050565b6000819050919050565b614f18816138a4565b82525050565b6000614f2a8383614f0f565b60208301905092915050565b6000602082019050919050565b614f4c81614eef565b614f568184614efa565b9250614f6182614f05565b8060005b83811015614f92578151614f798782614f1e565b9650614f8483614f36565b925050600181019050614f65565b505050505050565b60006102c082019050614fb06000830187614e98565b614fbe610140830186614f43565b614fcc61028083018561356d565b614fda6102a083018461356d565b95945050505050565b6000606082019050614ff8600083018661387a565b615005602083018561356d565b615012604083018461356d565b949350505050565b60008060008060008060c0878903121561503757615036613649565b5b600061504589828a01614720565b965050602061505689828a01614720565b955050604061506789828a01614720565b945050606061507889828a01614720565b935050608061508989828a01614720565b92505060a061509a89828a01614720565b915050929550929550929556fea2646970667358221220ff1057e2818b31cf9cf71b418ffc6055082c5a5671fc0dc232ff9167d4ec4cf064736f6c63430008140033",
    "linkReferences": {},
    "deployedLinkReferences": {}
}