{
  "_format": "hh-sol-artifact-1",
  "contractName": "FlashloanOApp",
  "sourceName": "contracts/Flashloan_OApp.sol",
  "abi": [
    {
      "inputs": [
        {
          "internalType": "address",
          "name": "_endpoint",
          "type": "address"
        },
        {
          "internalType": "address",
          "name": "_liquidationSimulator",
          "type": "address"
        }
      ],
      "stateMutability": "nonpayable",
      "type": "constructor"
    },
    {
      "inputs": [],
      "name": "InvalidDelegate",
      "type": "error"
    },
    {
      "inputs": [],
      "name": "InvalidEndpointCall",
      "type": "error"
    },
    {
      "inputs": [],
      "name": "LzTokenUnavailable",
      "type": "error"
    },
    {
      "inputs": [
        {
          "internalType": "uint32",
          "name": "eid",
          "type": "uint32"
        }
      ],
      "name": "NoPeer",
      "type": "error"
    },
    {
      "inputs": [
        {
          "internalType": "uint256",
          "name": "msgValue",
          "type": "uint256"
        }
      ],
      "name": "NotEnoughNative",
      "type": "error"
    },
    {
      "inputs": [
        {
          "internalType": "address",
          "name": "addr",
          "type": "address"
        }
      ],
      "name": "OnlyEndpoint",
      "type": "error"
    },
    {
      "inputs": [
        {
          "internalType": "uint32",
          "name": "eid",
          "type": "uint32"
        },
        {
          "internalType": "bytes32",
          "name": "sender",
          "type": "bytes32"
        }
      ],
      "name": "OnlyPeer",
      "type": "error"
    },
    {
      "inputs": [
        {
          "internalType": "address",
          "name": "owner",
          "type": "address"
        }
      ],
      "name": "OwnableInvalidOwner",
      "type": "error"
    },
    {
      "inputs": [
        {
          "internalType": "address",
          "name": "account",
          "type": "address"
        }
      ],
      "name": "OwnableUnauthorizedAccount",
      "type": "error"
    },
    {
      "inputs": [
        {
          "internalType": "address",
          "name": "token",
          "type": "address"
        }
      ],
      "name": "SafeERC20FailedOperation",
      "type": "error"
    },
    {
      "anonymous": false,
      "inputs": [
        {
          "indexed": true,
          "internalType": "address",
          "name": "previousOwner",
          "type": "address"
        },
        {
          "indexed": true,
          "internalType": "address",
          "name": "newOwner",
          "type": "address"
        }
      ],
      "name": "OwnershipTransferred",
      "type": "event"
    },
    {
      "anonymous": false,
      "inputs": [
        {
          "indexed": false,
          "internalType": "uint32",
          "name": "eid",
          "type": "uint32"
        },
        {
          "indexed": false,
          "internalType": "bytes32",
          "name": "peer",
          "type": "bytes32"
        }
      ],
      "name": "PeerSet",
      "type": "event"
    },
    {
      "inputs": [],
      "name": "SEND",
      "outputs": [
        {
          "internalType": "uint16",
          "name": "",
          "type": "uint16"
        }
      ],
      "stateMutability": "view",
      "type": "function"
    },
    {
      "inputs": [
        {
          "components": [
            {
              "internalType": "uint32",
              "name": "srcEid",
              "type": "uint32"
            },
            {
              "internalType": "bytes32",
              "name": "sender",
              "type": "bytes32"
            },
            {
              "internalType": "uint64",
              "name": "nonce",
              "type": "uint64"
            }
          ],
          "internalType": "struct Origin",
          "name": "origin",
          "type": "tuple"
        }
      ],
      "name": "allowInitializePath",
      "outputs": [
        {
          "internalType": "bool",
          "name": "",
          "type": "bool"
        }
      ],
      "stateMutability": "view",
      "type": "function"
    },
    {
      "inputs": [],
      "name": "count",
      "outputs": [
        {
          "internalType": "uint256",
          "name": "",
          "type": "uint256"
        }
      ],
      "stateMutability": "view",
      "type": "function"
    },
    {
      "inputs": [],
      "name": "data",
      "outputs": [
        {
          "internalType": "string",
          "name": "",
          "type": "string"
        }
      ],
      "stateMutability": "view",
      "type": "function"
    },
    {
      "inputs": [],
      "name": "endpoint",
      "outputs": [
        {
          "internalType": "contract ILayerZeroEndpointV2",
          "name": "",
          "type": "address"
        }
      ],
      "stateMutability": "view",
      "type": "function"
    },
    {
      "inputs": [
        {
          "components": [
            {
              "internalType": "uint32",
              "name": "srcEid",
              "type": "uint32"
            },
            {
              "internalType": "bytes32",
              "name": "sender",
              "type": "bytes32"
            },
            {
              "internalType": "uint64",
              "name": "nonce",
              "type": "uint64"
            }
          ],
          "internalType": "struct Origin",
          "name": "",
          "type": "tuple"
        },
        {
          "internalType": "bytes",
          "name": "",
          "type": "bytes"
        },
        {
          "internalType": "address",
          "name": "_sender",
          "type": "address"
        }
      ],
      "name": "isComposeMsgSender",
      "outputs": [
        {
          "internalType": "bool",
          "name": "",
          "type": "bool"
        }
      ],
      "stateMutability": "view",
      "type": "function"
    },
    {
      "inputs": [],
      "name": "liquidationSimulator",
      "outputs": [
        {
          "internalType": "address",
          "name": "",
          "type": "address"
        }
      ],
      "stateMutability": "view",
      "type": "function"
    },
    {
      "inputs": [
        {
          "components": [
            {
              "internalType": "uint32",
              "name": "srcEid",
              "type": "uint32"
            },
            {
              "internalType": "bytes32",
              "name": "sender",
              "type": "bytes32"
            },
            {
              "internalType": "uint64",
              "name": "nonce",
              "type": "uint64"
            }
          ],
          "internalType": "struct Origin",
          "name": "_origin",
          "type": "tuple"
        },
        {
          "internalType": "bytes32",
          "name": "_guid",
          "type": "bytes32"
        },
        {
          "internalType": "bytes",
          "name": "_message",
          "type": "bytes"
        },
        {
          "internalType": "address",
          "name": "_executor",
          "type": "address"
        },
        {
          "internalType": "bytes",
          "name": "_extraData",
          "type": "bytes"
        }
      ],
      "name": "lzReceive",
      "outputs": [],
      "stateMutability": "payable",
      "type": "function"
    },
    {
      "inputs": [
        {
          "internalType": "uint32",
          "name": "",
          "type": "uint32"
        },
        {
          "internalType": "bytes32",
          "name": "",
          "type": "bytes32"
        }
      ],
      "name": "nextNonce",
      "outputs": [
        {
          "internalType": "uint64",
          "name": "nonce",
          "type": "uint64"
        }
      ],
      "stateMutability": "view",
      "type": "function"
    },
    {
      "inputs": [],
      "name": "oAppVersion",
      "outputs": [
        {
          "internalType": "uint64",
          "name": "senderVersion",
          "type": "uint64"
        },
        {
          "internalType": "uint64",
          "name": "receiverVersion",
          "type": "uint64"
        }
      ],
      "stateMutability": "pure",
      "type": "function"
    },
    {
      "inputs": [],
      "name": "owner",
      "outputs": [
        {
          "internalType": "address",
          "name": "",
          "type": "address"
        }
      ],
      "stateMutability": "view",
      "type": "function"
    },
    {
      "inputs": [
        {
          "internalType": "uint32",
          "name": "eid",
          "type": "uint32"
        }
      ],
      "name": "peers",
      "outputs": [
        {
          "internalType": "bytes32",
          "name": "peer",
          "type": "bytes32"
        }
      ],
      "stateMutability": "view",
      "type": "function"
    },
    {
      "inputs": [],
      "name": "renounceOwnership",
      "outputs": [],
      "stateMutability": "nonpayable",
      "type": "function"
    },
    {
      "inputs": [
        {
          "internalType": "uint32",
          "name": "_dstEid",
          "type": "uint32"
        },
        {
          "internalType": "string",
          "name": "_message",
          "type": "string"
        },
        {
          "internalType": "bytes",
          "name": "_options",
          "type": "bytes"
        }
      ],
      "name": "send",
      "outputs": [],
      "stateMutability": "payable",
      "type": "function"
    },
    {
      "inputs": [
        {
          "internalType": "uint256",
          "name": "_count",
          "type": "uint256"
        }
      ],
      "name": "setCount",
      "outputs": [],
      "stateMutability": "nonpayable",
      "type": "function"
    },
    {
      "inputs": [
        {
          "internalType": "address",
          "name": "_delegate",
          "type": "address"
        }
      ],
      "name": "setDelegate",
      "outputs": [],
      "stateMutability": "nonpayable",
      "type": "function"
    },
    {
      "inputs": [
        {
          "internalType": "uint32",
          "name": "_eid",
          "type": "uint32"
        },
        {
          "internalType": "bytes32",
          "name": "_peer",
          "type": "bytes32"
        }
      ],
      "name": "setPeer",
      "outputs": [],
      "stateMutability": "nonpayable",
      "type": "function"
    },
    {
      "inputs": [
        {
          "internalType": "address",
          "name": "newOwner",
          "type": "address"
        }
      ],
      "name": "transferOwnership",
      "outputs": [],
      "stateMutability": "nonpayable",
      "type": "function"
    }
  ],
  "bytecode": "0x60a060405234801561001057600080fd5b506040516121d43803806121d483398181016040528101906100329190610333565b8133818133600073ffffffffffffffffffffffffffffffffffffffff168173ffffffffffffffffffffffffffffffffffffffff16036100a95760006040517f1e4fbdf70000000000000000000000000000000000000000000000000000000081526004016100a09190610382565b60405180910390fd5b6100b88161020c60201b60201c565b508173ffffffffffffffffffffffffffffffffffffffff1660808173ffffffffffffffffffffffffffffffffffffffff1681525050600073ffffffffffffffffffffffffffffffffffffffff168173ffffffffffffffffffffffffffffffffffffffff1603610153576040517fb586360400000000000000000000000000000000000000000000000000000000815260040160405180910390fd5b60805173ffffffffffffffffffffffffffffffffffffffff1663ca5eb5e1826040518263ffffffff1660e01b815260040161018e9190610382565b600060405180830381600087803b1580156101a857600080fd5b505af11580156101bc573d6000803e3d6000fd5b505050505050505080600460006101000a81548173ffffffffffffffffffffffffffffffffffffffff021916908373ffffffffffffffffffffffffffffffffffffffff160217905550505061039d565b60008060009054906101000a900473ffffffffffffffffffffffffffffffffffffffff169050816000806101000a81548173ffffffffffffffffffffffffffffffffffffffff021916908373ffffffffffffffffffffffffffffffffffffffff1602179055508173ffffffffffffffffffffffffffffffffffffffff168173ffffffffffffffffffffffffffffffffffffffff167f8be0079c531659141344cd1fd0a4f28419497f9722a3daafe3b4186f6b6457e060405160405180910390a35050565b600080fd5b600073ffffffffffffffffffffffffffffffffffffffff82169050919050565b6000610300826102d5565b9050919050565b610310816102f5565b811461031b57600080fd5b50565b60008151905061032d81610307565b92915050565b6000806040838503121561034a576103496102d0565b5b60006103588582860161031e565b92505060206103698582860161031e565b9150509250929050565b61037c816102f5565b82525050565b60006020820190506103976000830184610373565b92915050565b608051611df96103db6000396000818161044201528181610577015281816106ef01528181610b6e01528181610e1e0152610f190152611df96000f3fe6080604052600436106101095760003560e01c806382413eac11610095578063ca5eb5e111610064578063ca5eb5e11461034f578063d14e62b814610378578063e0539e58146103a1578063f2fde38b146103bd578063ff7bd03d146103e657610109565b806382413eac1461027f5780638da5cb5b146102bc578063bb0b6a53146102e7578063bb6d625d1461032457610109565b80633400288b116100dc5780633400288b146101ac5780635e280f11146101d5578063715018a61461020057806373d4a13a146102175780637d25a05e1461024257610109565b806306661abd1461010e57806313137d651461013957806317442b70146101555780631f5e133414610181575b600080fd5b34801561011a57600080fd5b50610123610423565b60405161013091906110ef565b60405180910390f35b610153600480360381019061014e919061123b565b610429565b005b34801561016157600080fd5b5061016a61054b565b60405161017892919061131a565b60405180910390f35b34801561018d57600080fd5b5061019661055a565b6040516101a39190611360565b60405180910390f35b3480156101b857600080fd5b506101d360048036038101906101ce91906113b7565b61055f565b005b3480156101e157600080fd5b506101ea610575565b6040516101f79190611456565b60405180910390f35b34801561020c57600080fd5b50610215610599565b005b34801561022357600080fd5b5061022c6105ad565b6040516102399190611501565b60405180910390f35b34801561024e57600080fd5b50610269600480360381019061026491906113b7565b61063b565b6040516102769190611523565b60405180910390f35b34801561028b57600080fd5b506102a660048036038101906102a1919061153e565b610643565b6040516102b391906115cd565b60405180910390f35b3480156102c857600080fd5b506102d161067e565b6040516102de91906115f7565b60405180910390f35b3480156102f357600080fd5b5061030e60048036038101906103099190611612565b6106a7565b60405161031b919061164e565b60405180910390f35b34801561033057600080fd5b506103396106bf565b60405161034691906115f7565b60405180910390f35b34801561035b57600080fd5b5061037660048036038101906103719190611669565b6106e5565b005b34801561038457600080fd5b5061039f600480360381019061039a91906116c2565b61077b565b005b6103bb60048036038101906103b6919061181f565b610785565b005b3480156103c957600080fd5b506103e460048036038101906103df9190611669565b610817565b005b3480156103f257600080fd5b5061040d600480360381019061040891906118af565b61089d565b60405161041a91906115cd565b60405180910390f35b60035481565b3373ffffffffffffffffffffffffffffffffffffffff167f000000000000000000000000000000000000000000000000000000000000000073ffffffffffffffffffffffffffffffffffffffff16146104b957336040517f91ac5e4f0000000000000000000000000000000000000000000000000000000081526004016104b091906115f7565b60405180910390fd5b86602001356104d98860000160208101906104d49190611612565b6108de565b14610533578660000160208101906104f19190611612565b87602001356040517fc26bebcc00000000000000000000000000000000000000000000000000000000815260040161052a9291906118eb565b60405180910390fd5b61054287878787878787610953565b50505050505050565b60008060016002915091509091565b600181565b61056761098c565b6105718282610a13565b5050565b7f000000000000000000000000000000000000000000000000000000000000000081565b6105a161098c565b6105ab6000610a74565b565b600280546105ba90611943565b80601f01602080910402602001604051908101604052809291908181526020018280546105e690611943565b80156106335780601f1061060857610100808354040283529160200191610633565b820191906000526020600020905b81548152906001019060200180831161061657829003601f168201915b505050505081565b600092915050565b60003073ffffffffffffffffffffffffffffffffffffffff168273ffffffffffffffffffffffffffffffffffffffff16149050949350505050565b60008060009054906101000a900473ffffffffffffffffffffffffffffffffffffffff16905090565b60016020528060005260406000206000915090505481565b600460009054906101000a900473ffffffffffffffffffffffffffffffffffffffff1681565b6106ed61098c565b7f000000000000000000000000000000000000000000000000000000000000000073ffffffffffffffffffffffffffffffffffffffff1663ca5eb5e1826040518263ffffffff1660e01b815260040161074691906115f7565b600060405180830381600087803b15801561076057600080fd5b505af1158015610774573d6000803e3d6000fd5b5050505050565b8060038190555050565b6000836040516020016107989190611501565b604051602081830303815290604052905061080f858285858080601f016020809104026020016040519081016040528093929190818152602001838380828437600081840152601f19601f820116905080830192505050505050506040518060400160405280348152602001600081525033610b38565b505050505050565b61081f61098c565b600073ffffffffffffffffffffffffffffffffffffffff168173ffffffffffffffffffffffffffffffffffffffff16036108915760006040517f1e4fbdf700000000000000000000000000000000000000000000000000000000815260040161088891906115f7565b60405180910390fd5b61089a81610a74565b50565b60008160200135600160008460000160208101906108bb9190611612565b63ffffffff1663ffffffff16815260200190815260200160002054149050919050565b600080600160008463ffffffff1663ffffffff1681526020019081526020016000205490506000801b810361094a57826040517ff6ff4fb70000000000000000000000000000000000000000000000000000000081526004016109419190611974565b60405180910390fd5b80915050919050565b6000806000878781019061096791906119cd565b925092509250610978838383610c54565b610980610dba565b50505050505050505050565b610994610dc4565b73ffffffffffffffffffffffffffffffffffffffff166109b261067e565b73ffffffffffffffffffffffffffffffffffffffff1614610a11576109d5610dc4565b6040517f118cdaa7000000000000000000000000000000000000000000000000000000008152600401610a0891906115f7565b60405180910390fd5b565b80600160008463ffffffff1663ffffffff168152602001908152602001600020819055507f238399d427b947898edb290f5ff0f9109849b1c3ba196a42e35f00c50a54b98b8282604051610a689291906118eb565b60405180910390a15050565b60008060009054906101000a900473ffffffffffffffffffffffffffffffffffffffff169050816000806101000a81548173ffffffffffffffffffffffffffffffffffffffff021916908373ffffffffffffffffffffffffffffffffffffffff1602179055508173ffffffffffffffffffffffffffffffffffffffff168173ffffffffffffffffffffffffffffffffffffffff167f8be0079c531659141344cd1fd0a4f28419497f9722a3daafe3b4186f6b6457e060405160405180910390a35050565b610b40611088565b6000610b4f8460000151610dcc565b9050600084602001511115610b6c57610b6b8460200151610e1a565b5b7f000000000000000000000000000000000000000000000000000000000000000073ffffffffffffffffffffffffffffffffffffffff16632637a450826040518060a001604052808b63ffffffff168152602001610bc98c6108de565b81526020018a815260200189815260200160008960200151111515815250866040518463ffffffff1660e01b8152600401610c05929190611b1f565b60806040518083038185885af1158015610c23573d6000803e3d6000fd5b50505050506040513d601f19601f82011682018060405250810190610c489190611c5e565b91505095945050505050565b6000600460009054906101000a900473ffffffffffffffffffffffffffffffffffffffff1673ffffffffffffffffffffffffffffffffffffffff16848484604051602401610ca493929190611c8b565b6040516020818303038152906040527f31438225000000000000000000000000000000000000000000000000000000007bffffffffffffffffffffffffffffffffffffffffffffffffffffffff19166020820180517bffffffffffffffffffffffffffffffffffffffffffffffffffffffff8381831617835250505050604051610d2e9190611cfe565b6000604051808303816000865af19150503d8060008114610d6b576040519150601f19603f3d011682016040523d82523d6000602084013e610d70565b606091505b5050905080610db4576040517f08c379a0000000000000000000000000000000000000000000000000000000008152600401610dab90611d61565b60405180910390fd5b50505050565b600a600381905550565b600033905090565b6000813414610e1257346040517f9f704120000000000000000000000000000000000000000000000000000000008152600401610e0991906110ef565b60405180910390fd5b819050919050565b60007f000000000000000000000000000000000000000000000000000000000000000073ffffffffffffffffffffffffffffffffffffffff1663e4fe1d946040518163ffffffff1660e01b8152600401602060405180830381865afa158015610e87573d6000803e3d6000fd5b505050506040513d601f19601f82011682018060405250810190610eab9190611d96565b9050600073ffffffffffffffffffffffffffffffffffffffff168173ffffffffffffffffffffffffffffffffffffffff1603610f13576040517f5373352a00000000000000000000000000000000000000000000000000000000815260040160405180910390fd5b610f60337f0000000000000000000000000000000000000000000000000000000000000000848473ffffffffffffffffffffffffffffffffffffffff16610f64909392919063ffffffff16565b5050565b610fe0848573ffffffffffffffffffffffffffffffffffffffff166323b872dd868686604051602401610f9993929190611c8b565b604051602081830303815290604052915060e01b6020820180517bffffffffffffffffffffffffffffffffffffffffffffffffffffffff8381831617835250505050610fe6565b50505050565b600080602060008451602086016000885af180611009576040513d6000823e3d81fd5b3d925060005191505060008214611024576001811415611040565b60008473ffffffffffffffffffffffffffffffffffffffff163b145b1561108257836040517f5274afe700000000000000000000000000000000000000000000000000000000815260040161107991906115f7565b60405180910390fd5b50505050565b604051806060016040528060008019168152602001600067ffffffffffffffff1681526020016110b66110bc565b81525090565b604051806040016040528060008152602001600081525090565b6000819050919050565b6110e9816110d6565b82525050565b600060208201905061110460008301846110e0565b92915050565b6000604051905090565b600080fd5b600080fd5b600080fd5b6000606082840312156111395761113861111e565b5b81905092915050565b6000819050919050565b61115581611142565b811461116057600080fd5b50565b6000813590506111728161114c565b92915050565b600080fd5b600080fd5b600080fd5b60008083601f84011261119d5761119c611178565b5b8235905067ffffffffffffffff8111156111ba576111b961117d565b5b6020830191508360018202830111156111d6576111d5611182565b5b9250929050565b600073ffffffffffffffffffffffffffffffffffffffff82169050919050565b6000611208826111dd565b9050919050565b611218816111fd565b811461122357600080fd5b50565b6000813590506112358161120f565b92915050565b600080600080600080600060e0888a03121561125a57611259611114565b5b60006112688a828b01611123565b97505060606112798a828b01611163565b965050608088013567ffffffffffffffff81111561129a57611299611119565b5b6112a68a828b01611187565b955095505060a06112b98a828b01611226565b93505060c088013567ffffffffffffffff8111156112da576112d9611119565b5b6112e68a828b01611187565b925092505092959891949750929550565b600067ffffffffffffffff82169050919050565b611314816112f7565b82525050565b600060408201905061132f600083018561130b565b61133c602083018461130b565b9392505050565b600061ffff82169050919050565b61135a81611343565b82525050565b60006020820190506113756000830184611351565b92915050565b600063ffffffff82169050919050565b6113948161137b565b811461139f57600080fd5b50565b6000813590506113b18161138b565b92915050565b600080604083850312156113ce576113cd611114565b5b60006113dc858286016113a2565b92505060206113ed85828601611163565b9150509250929050565b6000819050919050565b600061141c611417611412846111dd565b6113f7565b6111dd565b9050919050565b600061142e82611401565b9050919050565b600061144082611423565b9050919050565b61145081611435565b82525050565b600060208201905061146b6000830184611447565b92915050565b600081519050919050565b600082825260208201905092915050565b60005b838110156114ab578082015181840152602081019050611490565b60008484015250505050565b6000601f19601f8301169050919050565b60006114d382611471565b6114dd818561147c565b93506114ed81856020860161148d565b6114f6816114b7565b840191505092915050565b6000602082019050818103600083015261151b81846114c8565b905092915050565b6000602082019050611538600083018461130b565b92915050565b60008060008060a0858703121561155857611557611114565b5b600061156687828801611123565b945050606085013567ffffffffffffffff81111561158757611586611119565b5b61159387828801611187565b935093505060806115a687828801611226565b91505092959194509250565b60008115159050919050565b6115c7816115b2565b82525050565b60006020820190506115e260008301846115be565b92915050565b6115f1816111fd565b82525050565b600060208201905061160c60008301846115e8565b92915050565b60006020828403121561162857611627611114565b5b6000611636848285016113a2565b91505092915050565b61164881611142565b82525050565b6000602082019050611663600083018461163f565b92915050565b60006020828403121561167f5761167e611114565b5b600061168d84828501611226565b91505092915050565b61169f816110d6565b81146116aa57600080fd5b50565b6000813590506116bc81611696565b92915050565b6000602082840312156116d8576116d7611114565b5b60006116e6848285016116ad565b91505092915050565b600080fd5b7f4e487b7100000000000000000000000000000000000000000000000000000000600052604160045260246000fd5b61172c826114b7565b810181811067ffffffffffffffff8211171561174b5761174a6116f4565b5b80604052505050565b600061175e61110a565b905061176a8282611723565b919050565b600067ffffffffffffffff82111561178a576117896116f4565b5b611793826114b7565b9050602081019050919050565b82818337600083830152505050565b60006117c26117bd8461176f565b611754565b9050828152602081018484840111156117de576117dd6116ef565b5b6117e98482856117a0565b509392505050565b600082601f83011261180657611805611178565b5b81356118168482602086016117af565b91505092915050565b6000806000806060858703121561183957611838611114565b5b6000611847878288016113a2565b945050602085013567ffffffffffffffff81111561186857611867611119565b5b611874878288016117f1565b935050604085013567ffffffffffffffff81111561189557611894611119565b5b6118a187828801611187565b925092505092959194509250565b6000606082840312156118c5576118c4611114565b5b60006118d384828501611123565b91505092915050565b6118e58161137b565b82525050565b600060408201905061190060008301856118dc565b61190d602083018461163f565b9392505050565b7f4e487b7100000000000000000000000000000000000000000000000000000000600052602260045260246000fd5b6000600282049050600182168061195b57607f821691505b60208210810361196e5761196d611914565b5b50919050565b600060208201905061198960008301846118dc565b92915050565b600061199a826111dd565b9050919050565b6119aa8161198f565b81146119b557600080fd5b50565b6000813590506119c7816119a1565b92915050565b6000806000606084860312156119e6576119e5611114565b5b60006119f4868287016119b8565b9350506020611a05868287016119b8565b9250506040611a16868287016116ad565b9150509250925092565b611a298161137b565b82525050565b611a3881611142565b82525050565b600081519050919050565b600082825260208201905092915050565b6000611a6582611a3e565b611a6f8185611a49565b9350611a7f81856020860161148d565b611a88816114b7565b840191505092915050565b611a9c816115b2565b82525050565b600060a083016000830151611aba6000860182611a20565b506020830151611acd6020860182611a2f565b5060408301518482036040860152611ae58282611a5a565b91505060608301518482036060860152611aff8282611a5a565b9150506080830151611b146080860182611a93565b508091505092915050565b60006040820190508181036000830152611b398185611aa2565b9050611b4860208301846115e8565b9392505050565b600080fd5b600081519050611b638161114c565b92915050565b611b72816112f7565b8114611b7d57600080fd5b50565b600081519050611b8f81611b69565b92915050565b600081519050611ba481611696565b92915050565b600060408284031215611bc057611bbf611b4f565b5b611bca6040611754565b90506000611bda84828501611b95565b6000830152506020611bee84828501611b95565b60208301525092915050565b600060808284031215611c1057611c0f611b4f565b5b611c1a6060611754565b90506000611c2a84828501611b54565b6000830152506020611c3e84828501611b80565b6020830152506040611c5284828501611baa565b60408301525092915050565b600060808284031215611c7457611c73611114565b5b6000611c8284828501611bfa565b91505092915050565b6000606082019050611ca060008301866115e8565b611cad60208301856115e8565b611cba60408301846110e0565b949350505050565b600081905092915050565b6000611cd882611a3e565b611ce28185611cc2565b9350611cf281856020860161148d565b80840191505092915050565b6000611d0a8284611ccd565b915081905092915050565b7f73696d756c6174654c69717569646174696f6e2063616c6c206661696c656400600082015250565b6000611d4b601f8361147c565b9150611d5682611d15565b602082019050919050565b60006020820190508181036000830152611d7a81611d3e565b9050919050565b600081519050611d908161120f565b92915050565b600060208284031215611dac57611dab611114565b5b6000611dba84828501611d81565b9150509291505056fea2646970667358221220deea604ec0295ccae62cbb9e389ea53d53f48493631d0669a8db2a845b6431c864736f6c634300081b0033",
  "linkReferences": {},
  "deployedLinkReferences": {}
}