{
  "_format": "hh-sol-artifact-1",
  "contractName": "DaoMultiSig",
  "sourceName": "contracts/DaoSig.sol",
  "abi": [
    {
      "inputs": [
        {
          "internalType": "address[]",
          "name": "_owners",
          "type": "address[]"
        },
        {
          "internalType": "uint256",
          "name": "_numConfirmationsRequired",
          "type": "uint256"
        }
      ],
      "stateMutability": "nonpayable",
      "type": "constructor"
    },
    {
      "anonymous": false,
      "inputs": [
        {
          "indexed": true,
          "internalType": "address",
          "name": "owner",
          "type": "address"
        },
        {
          "indexed": true,
          "internalType": "uint256",
          "name": "txIndex",
          "type": "uint256"
        }
      ],
      "name": "ConfirmTransaction",
      "type": "event"
    },
    {
      "anonymous": false,
      "inputs": [
        {
          "indexed": true,
          "internalType": "address",
          "name": "token",
          "type": "address"
        },
        {
          "indexed": true,
          "internalType": "address",
          "name": "sender",
          "type": "address"
        },
        {
          "indexed": false,
          "internalType": "uint256",
          "name": "amount",
          "type": "uint256"
        },
        {
          "indexed": false,
          "internalType": "uint256",
          "name": "balance",
          "type": "uint256"
        }
      ],
      "name": "Deposit",
      "type": "event"
    },
    {
      "anonymous": false,
      "inputs": [
        {
          "indexed": true,
          "internalType": "address",
          "name": "owner",
          "type": "address"
        },
        {
          "indexed": true,
          "internalType": "uint256",
          "name": "txIndex",
          "type": "uint256"
        }
      ],
      "name": "ExecuteTransaction",
      "type": "event"
    },
    {
      "anonymous": false,
      "inputs": [
        {
          "indexed": true,
          "internalType": "address",
          "name": "token",
          "type": "address"
        },
        {
          "indexed": false,
          "internalType": "uint256",
          "name": "feeAmount",
          "type": "uint256"
        }
      ],
      "name": "FeesCollected",
      "type": "event"
    },
    {
      "anonymous": false,
      "inputs": [
        {
          "indexed": true,
          "internalType": "address",
          "name": "token",
          "type": "address"
        },
        {
          "indexed": true,
          "internalType": "address",
          "name": "to",
          "type": "address"
        },
        {
          "indexed": false,
          "internalType": "uint256",
          "name": "amount",
          "type": "uint256"
        }
      ],
      "name": "FeesWithdrawn",
      "type": "event"
    },
    {
      "anonymous": false,
      "inputs": [
        {
          "indexed": true,
          "internalType": "address",
          "name": "owner",
          "type": "address"
        },
        {
          "indexed": true,
          "internalType": "uint256",
          "name": "txIndex",
          "type": "uint256"
        }
      ],
      "name": "RevokeConfirmation",
      "type": "event"
    },
    {
      "anonymous": false,
      "inputs": [
        {
          "indexed": true,
          "internalType": "address",
          "name": "owner",
          "type": "address"
        },
        {
          "indexed": true,
          "internalType": "uint256",
          "name": "txIndex",
          "type": "uint256"
        },
        {
          "indexed": true,
          "internalType": "address",
          "name": "to",
          "type": "address"
        },
        {
          "indexed": false,
          "internalType": "uint256",
          "name": "value",
          "type": "uint256"
        },
        {
          "indexed": false,
          "internalType": "bytes",
          "name": "data",
          "type": "bytes"
        }
      ],
      "name": "SubmitTransaction",
      "type": "event"
    },
    {
      "anonymous": false,
      "inputs": [
        {
          "indexed": true,
          "internalType": "address",
          "name": "token",
          "type": "address"
        },
        {
          "indexed": false,
          "internalType": "uint256",
          "name": "fee",
          "type": "uint256"
        }
      ],
      "name": "TokenAdded",
      "type": "event"
    },
    {
      "anonymous": false,
      "inputs": [
        {
          "indexed": true,
          "internalType": "address",
          "name": "token",
          "type": "address"
        }
      ],
      "name": "TokenRemoved",
      "type": "event"
    },
    {
      "inputs": [
        {
          "internalType": "address",
          "name": "",
          "type": "address"
        }
      ],
      "name": "accumulatedFees",
      "outputs": [
        {
          "internalType": "uint256",
          "name": "",
          "type": "uint256"
        }
      ],
      "stateMutability": "view",
      "type": "function"
    },
    {
      "inputs": [
        {
          "internalType": "address",
          "name": "_token",
          "type": "address"
        },
        {
          "internalType": "uint256",
          "name": "_fee",
          "type": "uint256"
        }
      ],
      "name": "addToken",
      "outputs": [],
      "stateMutability": "nonpayable",
      "type": "function"
    },
    {
      "inputs": [
        {
          "internalType": "uint256",
          "name": "_txIndex",
          "type": "uint256"
        }
      ],
      "name": "confirmTransaction",
      "outputs": [],
      "stateMutability": "nonpayable",
      "type": "function"
    },
    {
      "inputs": [
        {
          "internalType": "uint256",
          "name": "_txIndex",
          "type": "uint256"
        }
      ],
      "name": "executeTransaction",
      "outputs": [],
      "stateMutability": "nonpayable",
      "type": "function"
    },
    {
      "inputs": [
        {
          "internalType": "address",
          "name": "_token",
          "type": "address"
        },
        {
          "internalType": "uint256",
          "name": "amount",
          "type": "uint256"
        }
      ],
      "name": "flashLoan",
      "outputs": [],
      "stateMutability": "nonpayable",
      "type": "function"
    },
    {
      "inputs": [],
      "name": "getAddress",
      "outputs": [
        {
          "internalType": "address",
          "name": "",
          "type": "address"
        }
      ],
      "stateMutability": "view",
      "type": "function"
    },
    {
      "inputs": [],
      "name": "getOwners",
      "outputs": [
        {
          "internalType": "address[]",
          "name": "",
          "type": "address[]"
        }
      ],
      "stateMutability": "view",
      "type": "function"
    },
    {
      "inputs": [
        {
          "internalType": "address",
          "name": "_token",
          "type": "address"
        }
      ],
      "name": "getTokenDecimals",
      "outputs": [
        {
          "internalType": "uint8",
          "name": "",
          "type": "uint8"
        }
      ],
      "stateMutability": "view",
      "type": "function"
    },
    {
      "inputs": [
        {
          "internalType": "uint256",
          "name": "_txIndex",
          "type": "uint256"
        }
      ],
      "name": "getTransaction",
      "outputs": [
        {
          "internalType": "address",
          "name": "to",
          "type": "address"
        },
        {
          "internalType": "uint256",
          "name": "value",
          "type": "uint256"
        },
        {
          "internalType": "bytes",
          "name": "data",
          "type": "bytes"
        },
        {
          "internalType": "bool",
          "name": "executed",
          "type": "bool"
        },
        {
          "internalType": "uint256",
          "name": "numConfirmations",
          "type": "uint256"
        }
      ],
      "stateMutability": "view",
      "type": "function"
    },
    {
      "inputs": [],
      "name": "getTransactionCount",
      "outputs": [
        {
          "internalType": "uint256",
          "name": "",
          "type": "uint256"
        }
      ],
      "stateMutability": "view",
      "type": "function"
    },
    {
      "inputs": [
        {
          "internalType": "uint256",
          "name": "",
          "type": "uint256"
        },
        {
          "internalType": "address",
          "name": "",
          "type": "address"
        }
      ],
      "name": "isConfirmed",
      "outputs": [
        {
          "internalType": "bool",
          "name": "",
          "type": "bool"
        }
      ],
      "stateMutability": "view",
      "type": "function"
    },
    {
      "inputs": [
        {
          "internalType": "address",
          "name": "",
          "type": "address"
        }
      ],
      "name": "isOwner",
      "outputs": [
        {
          "internalType": "bool",
          "name": "",
          "type": "bool"
        }
      ],
      "stateMutability": "view",
      "type": "function"
    },
    {
      "inputs": [],
      "name": "numConfirmationsRequired",
      "outputs": [
        {
          "internalType": "uint256",
          "name": "",
          "type": "uint256"
        }
      ],
      "stateMutability": "view",
      "type": "function"
    },
    {
      "inputs": [
        {
          "internalType": "uint256",
          "name": "",
          "type": "uint256"
        }
      ],
      "name": "owners",
      "outputs": [
        {
          "internalType": "address",
          "name": "",
          "type": "address"
        }
      ],
      "stateMutability": "view",
      "type": "function"
    },
    {
      "inputs": [
        {
          "internalType": "address",
          "name": "_token",
          "type": "address"
        }
      ],
      "name": "removeToken",
      "outputs": [],
      "stateMutability": "nonpayable",
      "type": "function"
    },
    {
      "inputs": [
        {
          "internalType": "uint256",
          "name": "_txIndex",
          "type": "uint256"
        }
      ],
      "name": "revokeConfirmation",
      "outputs": [],
      "stateMutability": "nonpayable",
      "type": "function"
    },
    {
      "inputs": [
        {
          "internalType": "address",
          "name": "_to",
          "type": "address"
        },
        {
          "internalType": "uint256",
          "name": "_value",
          "type": "uint256"
        },
        {
          "internalType": "bytes",
          "name": "_data",
          "type": "bytes"
        }
      ],
      "name": "submitTransaction",
      "outputs": [],
      "stateMutability": "nonpayable",
      "type": "function"
    },
    {
      "inputs": [
        {
          "internalType": "address",
          "name": "",
          "type": "address"
        }
      ],
      "name": "supportedTokens",
      "outputs": [
        {
          "internalType": "bool",
          "name": "",
          "type": "bool"
        }
      ],
      "stateMutability": "view",
      "type": "function"
    },
    {
      "inputs": [
        {
          "internalType": "address",
          "name": "",
          "type": "address"
        }
      ],
      "name": "tokenFees",
      "outputs": [
        {
          "internalType": "uint256",
          "name": "",
          "type": "uint256"
        }
      ],
      "stateMutability": "view",
      "type": "function"
    },
    {
      "inputs": [
        {
          "internalType": "uint256",
          "name": "",
          "type": "uint256"
        }
      ],
      "name": "transactions",
      "outputs": [
        {
          "internalType": "address",
          "name": "to",
          "type": "address"
        },
        {
          "internalType": "uint256",
          "name": "value",
          "type": "uint256"
        },
        {
          "internalType": "bytes",
          "name": "data",
          "type": "bytes"
        },
        {
          "internalType": "bool",
          "name": "executed",
          "type": "bool"
        },
        {
          "internalType": "uint256",
          "name": "numConfirmations",
          "type": "uint256"
        }
      ],
      "stateMutability": "view",
      "type": "function"
    },
    {
      "inputs": [
        {
          "internalType": "address",
          "name": "_token",
          "type": "address"
        },
        {
          "internalType": "address",
          "name": "_to",
          "type": "address"
        },
        {
          "internalType": "uint256",
          "name": "_amount",
          "type": "uint256"
        }
      ],
      "name": "withdrawFees",
      "outputs": [],
      "stateMutability": "nonpayable",
      "type": "function"
    },
    {
      "stateMutability": "payable",
      "type": "receive"
    }
  ],
  "bytecode": "0x60806040523480156200001157600080fd5b5060405162001fe438038062001fe4833981016040819052620000349162000287565b600160005581516200007f5760405162461bcd60e51b815260206004820152600f60248201526e1bdddb995c9cc81c995c5d5a5c9959608a1b60448201526064015b60405180910390fd5b60008111801562000091575081518111155b620000f05760405162461bcd60e51b815260206004820152602860248201527f696e76616c6964206e756d626572206f6620726571756972656420636f6e6669604482015267726d6174696f6e7360c01b606482015260840162000076565b60005b82518110156200024957600083828151811062000114576200011462000361565b6020026020010151905060006001600160a01b0316816001600160a01b031603620001725760405162461bcd60e51b815260206004820152600d60248201526c34b73b30b634b21037bbb732b960991b604482015260640162000076565b6001600160a01b03811660009081526005602052604090205460ff1615620001d05760405162461bcd60e51b815260206004820152601060248201526f6f776e6572206e6f7420756e6971756560801b604482015260640162000076565b6001600160a01b03166000818152600560205260408120805460ff191660019081179091556004805491820181559091527f8a35acfbc15ff81a39ae7d344fd709f28e8600b4aa8c65c6b64bfe7fe36bd19b0180546001600160a01b031916909117905580620002408162000377565b915050620000f3565b50600655506200039f565b634e487b7160e01b600052604160045260246000fd5b80516001600160a01b03811681146200028257600080fd5b919050565b600080604083850312156200029b57600080fd5b82516001600160401b0380821115620002b357600080fd5b818501915085601f830112620002c857600080fd5b8151602082821115620002df57620002df62000254565b8160051b604051601f19603f8301168101818110868211171562000307576200030762000254565b6040529283528183019350848101820192898411156200032657600080fd5b948201945b838610156200034f576200033f866200026a565b855294820194938201936200032b565b97909101519698969750505050505050565b634e487b7160e01b600052603260045260246000fd5b6000600182016200039857634e487b7160e01b600052601160045260246000fd5b5060010190565b611c3580620003af6000396000f3fe60806040526004361061012e5760003560e01c806380f59a65116100ab578063c01a8c841161006f578063c01a8c84146103e5578063c642747414610405578063d0549b8514610425578063e55dc4e61461043b578063ee22610b1461045b578063fcf666641461047b57600080fd5b806380f59a65146103285780639ace38c2146103635780639d9e465c14610383578063a0e67e2b146103a3578063af81c5b9146103c557600080fd5b806338cc4831116100f257806338cc48311461026657806339e16d64146102795780635fa7b584146102a657806368c4ac26146102c6578063785c7cf6146102f657600080fd5b8063025e7c271461017757806320ea8d86146101b45780632e7700f0146101d65780632f54bf6e146101f557806333ea3dc81461023557600080fd5b36610172576040805134815247602082015233916000917fdcbc1c05240f31ff3ad067ef1ee35ce4997762752e3a095284754544f4c709d7910160405180910390a3005b600080fd5b34801561018357600080fd5b506101976101923660046115f6565b6104a8565b6040516001600160a01b0390911681526020015b60405180910390f35b3480156101c057600080fd5b506101d46101cf3660046115f6565b6104d2565b005b3480156101e257600080fd5b506008545b6040519081526020016101ab565b34801561020157600080fd5b5061022561021036600461162b565b60056020526000908152604090205460ff1681565b60405190151581526020016101ab565b34801561024157600080fd5b506102556102503660046115f6565b61065d565b6040516101ab959493929190611693565b34801561027257600080fd5b5030610197565b34801561028557600080fd5b506101e761029436600461162b565b60026020526000908152604090205481565b3480156102b257600080fd5b506101d46102c136600461162b565b610758565b3480156102d257600080fd5b506102256102e136600461162b565b60016020526000908152604090205460ff1681565b34801561030257600080fd5b5061031661031136600461162b565b610815565b60405160ff90911681526020016101ab565b34801561033457600080fd5b506102256103433660046116ce565b600760209081526000928352604080842090915290825290205460ff1681565b34801561036f57600080fd5b5061025561037e3660046115f6565b61087f565b34801561038f57600080fd5b506101d461039e3660046116fa565b610958565b3480156103af57600080fd5b506103b8610c9f565b6040516101ab9190611724565b3480156103d157600080fd5b506101d46103e03660046116fa565b610d01565b3480156103f157600080fd5b506101d46104003660046115f6565b610e8d565b34801561041157600080fd5b506101d4610420366004611787565b61101b565b34801561043157600080fd5b506101e760065481565b34801561044757600080fd5b506101d4610456366004611852565b61119b565b34801561046757600080fd5b506101d46104763660046115f6565b6113aa565b34801561048757600080fd5b506101e761049636600461162b565b60036020526000908152604090205481565b600481815481106104b857600080fd5b6000918252602090912001546001600160a01b0316905081565b3360009081526005602052604090205460ff1661050a5760405162461bcd60e51b81526004016105019061188e565b60405180910390fd5b6008548190811061052d5760405162461bcd60e51b8152600401610501906118b1565b8160088181548110610541576105416118dc565b600091825260209091206003600590920201015460ff16156105755760405162461bcd60e51b8152600401610501906118f2565b60006008848154811061058a5761058a6118dc565b600091825260208083208784526007825260408085203386529092529220546005909102909101915060ff166105f55760405162461bcd60e51b815260206004820152601060248201526f1d1e081b9bdd0818dbdb999a5c9b595960821b6044820152606401610501565b600181600401600082825461060a9190611935565b90915550506000848152600760209081526040808320338085529252808320805460ff191690555186927ff0dca620e2e81f7841d07bcc105e1704fb01475b278a9d4c236e1c62945edd5591a350505050565b600080606060008060006008878154811061067a5761067a6118dc565b6000918252602090912060059091020180546001820154600383015460048401546002850180549596506001600160a01b039094169492939260ff9092169183906106c490611948565b80601f01602080910402602001604051908101604052809291908181526020018280546106f090611948565b801561073d5780601f106107125761010080835404028352916020019161073d565b820191906000526020600020905b81548152906001019060200180831161072057829003601f168201915b50505050509250955095509550955095505091939590929450565b3360009081526005602052604090205460ff166107875760405162461bcd60e51b81526004016105019061188e565b6001600160a01b03811660009081526001602052604090205460ff166107bf5760405162461bcd60e51b815260040161050190611982565b6001600160a01b0381166000818152600160209081526040808320805460ff191690556002909152808220829055517f4c910b69fe65a61f7531b9c5042b2329ca7179c77290aa7e2eb3afa3c8511fd39190a250565b6000816001600160a01b031663313ce5676040518163ffffffff1660e01b8152600401602060405180830381865afa158015610855573d6000803e3d6000fd5b505050506040513d601f19601f8201168201806040525081019061087991906119af565b92915050565b6008818154811061088f57600080fd5b60009182526020909120600590910201805460018201546002830180546001600160a01b0390931694509092916108c590611948565b80601f01602080910402602001604051908101604052809291908181526020018280546108f190611948565b801561093e5780601f106109135761010080835404028352916020019161093e565b820191906000526020600020905b81548152906001019060200180831161092157829003601f168201915b505050506003830154600490930154919260ff1691905085565b61096061159d565b6001600160a01b038216600090815260016020526040902054829060ff1661099a5760405162461bcd60e51b815260040161050190611982565b6040516370a0823160e01b81523060048201526000906001600160a01b038516906370a0823190602401602060405180830381865afa1580156109e1573d6000803e3d6000fd5b505050506040513d601f19601f82011682018060405250810190610a0591906119d2565b905082811015610a575760405162461bcd60e51b815260206004820152601960248201527f4e6f7420656e6f75676820746f6b656e7320696e20706f6f6c000000000000006044820152606401610501565b6001600160a01b03841660009081526002602052604081205461271090610a7e90866119eb565b610a889190611a02565b60405163a9059cbb60e01b8152336004820152602481018690529091506001600160a01b0386169063a9059cbb906044016020604051808303816000875af1158015610ad8573d6000803e3d6000fd5b505050506040513d601f19601f82011682018060405250810190610afc9190611a24565b506040516322d453e360e21b81526001600160a01b038616600482015260248101859052604481018290523390638b514f8c90606401600060405180830381600087803b158015610b4c57600080fd5b505af1158015610b60573d6000803e3d6000fd5b50506040516370a0823160e01b8152306004820152600092506001600160a01b03881691506370a0823190602401602060405180830381865afa158015610bab573d6000803e3d6000fd5b505050506040513d601f19601f82011682018060405250810190610bcf91906119d2565b9050610bdb8284611a46565b811015610c225760405162461bcd60e51b8152602060048201526015602482015274119b185cda081b1bd85b881b9bdd081c995c185a59605a1b6044820152606401610501565b6001600160a01b03861660009081526003602052604081208054849290610c4a908490611a46565b90915550506040518281526001600160a01b038716907f9dc46f23cfb5ddcad0ae7ea2be38d47fec07bb9382ec7e564efc69e036dd66ce9060200160405180910390a250505050610c9b6001600055565b5050565b60606004805480602002602001604051908101604052809291908181526020018280548015610cf757602002820191906000526020600020905b81546001600160a01b03168152600190910190602001808311610cd9575b5050505050905090565b3360009081526005602052604090205460ff16610d305760405162461bcd60e51b81526004016105019061188e565b6001600160a01b038216610d7e5760405162461bcd60e51b8152602060048201526015602482015274696e76616c696420746f6b656e206164647265737360581b6044820152606401610501565b6001600160a01b03821660009081526001602052604090205460ff1615610de75760405162461bcd60e51b815260206004820152601760248201527f746f6b656e20616c726561647920737570706f727465640000000000000000006044820152606401610501565b6103e8811115610e285760405162461bcd60e51b815260206004820152600c60248201526b0cccaca40e8dede40d0d2ced60a31b6044820152606401610501565b6001600160a01b0382166000818152600160208181526040808420805460ff19169093179092556002815291819020849055518381527ff4c563a3ea86ff1f4275e8c207df0375a51963f2b831b7bf4da8be938d92876c910160405180910390a25050565b3360009081526005602052604090205460ff16610ebc5760405162461bcd60e51b81526004016105019061188e565b60085481908110610edf5760405162461bcd60e51b8152600401610501906118b1565b8160088181548110610ef357610ef36118dc565b600091825260209091206003600590920201015460ff1615610f275760405162461bcd60e51b8152600401610501906118f2565b6000838152600760209081526040808320338452909152902054839060ff1615610f8a5760405162461bcd60e51b81526020600482015260146024820152731d1e08185b1c9958591e4818dbdb999a5c9b595960621b6044820152606401610501565b600060088581548110610f9f57610f9f6118dc565b906000526020600020906005020190506001816004016000828254610fc49190611a46565b90915550506000858152600760209081526040808320338085529252808320805460ff191660011790555187927f5cbe105e36805f7820e291f799d5794ff948af2a5f664e580382defb6339004191a35050505050565b3360009081526005602052604090205460ff1661104a5760405162461bcd60e51b81526004016105019061188e565b600880546040805160a0810182526001600160a01b03878116825260208201878152928201868152600060608401819052608084018190526001860187559590955281517ff3f7a9fe364faab93b216da50a3214154f22a0a2b415b23a84c8169e8b636ee36005860290810180546001600160a01b0319169290931691909117825592517ff3f7a9fe364faab93b216da50a3214154f22a0a2b415b23a84c8169e8b636ee484015593519293909290917ff3f7a9fe364faab93b216da50a3214154f22a0a2b415b23a84c8169e8b636ee501906111279082611aa8565b50606082015160038201805460ff19169115159190911790556080909101516004909101556040516001600160a01b03851690829033907fd5a05bf70715ad82a09a756320284a1b54c9ff74cd0f8cce6219e79b563fe59d9061118d9088908890611b68565b60405180910390a450505050565b3360009081526005602052604090205460ff166111ca5760405162461bcd60e51b81526004016105019061188e565b6001600160a01b038316600090815260016020526040902054839060ff166112045760405162461bcd60e51b815260040161050190611982565b6001600160a01b03841660009081526003602052604090205482111561126c5760405162461bcd60e51b815260206004820152601d60248201527f496e73756666696369656e7420616363756d756c6174656420666565730000006044820152606401610501565b6001600160a01b0383166112b65760405162461bcd60e51b8152602060048201526011602482015270125b9d985b1a59081c9958da5c1a595b9d607a1b6044820152606401610501565b6001600160a01b038416600090815260036020526040812080548492906112de908490611935565b909155505060405163a9059cbb60e01b81526001600160a01b0384811660048301526024820184905285169063a9059cbb906044016020604051808303816000875af1158015611332573d6000803e3d6000fd5b505050506040513d601f19601f820116820180604052508101906113569190611a24565b50826001600160a01b0316846001600160a01b03167f5e110f8bc8a20b65dcc87f224bdf1cc039346e267118bae2739847f07321ffa88460405161139c91815260200190565b60405180910390a350505050565b3360009081526005602052604090205460ff166113d95760405162461bcd60e51b81526004016105019061188e565b600854819081106113fc5760405162461bcd60e51b8152600401610501906118b1565b8160088181548110611410576114106118dc565b600091825260209091206003600590920201015460ff16156114445760405162461bcd60e51b8152600401610501906118f2565b600060088481548110611459576114596118dc565b90600052602060002090600502019050600654816004015410156114b35760405162461bcd60e51b81526020600482015260116024820152700c6c2dcdcdee840caf0cac6eae8ca40e8f607b1b6044820152606401610501565b60038101805460ff191660019081179091558154908201546040516000926001600160a01b031691906114ea906002860190611b89565b60006040518083038185875af1925050503d8060008114611527576040519150601f19603f3d011682016040523d82523d6000602084013e61152c565b606091505b50509050806115695760405162461bcd60e51b81526020600482015260096024820152681d1e0819985a5b195960ba1b6044820152606401610501565b604051859033907f5445f318f4f5fcfb66592e68e0cc5822aa15664039bd5f0ffde24c5a8142b1ac90600090a35050505050565b6002600054036115ef5760405162461bcd60e51b815260206004820152601f60248201527f5265656e7472616e637947756172643a207265656e7472616e742063616c6c006044820152606401610501565b6002600055565b60006020828403121561160857600080fd5b5035919050565b80356001600160a01b038116811461162657600080fd5b919050565b60006020828403121561163d57600080fd5b6116468261160f565b9392505050565b6000815180845260005b8181101561167357602081850181015186830182015201611657565b506000602082860101526020601f19601f83011685010191505092915050565b60018060a01b038616815284602082015260a0604082015260006116ba60a083018661164d565b931515606083015250608001529392505050565b600080604083850312156116e157600080fd5b823591506116f16020840161160f565b90509250929050565b6000806040838503121561170d57600080fd5b6117168361160f565b946020939093013593505050565b6020808252825182820181905260009190848201906040850190845b818110156117655783516001600160a01b031683529284019291840191600101611740565b50909695505050505050565b634e487b7160e01b600052604160045260246000fd5b60008060006060848603121561179c57600080fd5b6117a58461160f565b925060208401359150604084013567ffffffffffffffff808211156117c957600080fd5b818601915086601f8301126117dd57600080fd5b8135818111156117ef576117ef611771565b604051601f8201601f19908116603f0116810190838211818310171561181757611817611771565b8160405282815289602084870101111561183057600080fd5b8260208601602083013760006020848301015280955050505050509250925092565b60008060006060848603121561186757600080fd5b6118708461160f565b925061187e6020850161160f565b9150604084013590509250925092565b6020808252600990820152683737ba1037bbb732b960b91b604082015260600190565b6020808252601190820152701d1e08191bd95cc81b9bdd08195e1a5cdd607a1b604082015260600190565b634e487b7160e01b600052603260045260246000fd5b6020808252601390820152721d1e08185b1c9958591e48195e1958dd5d1959606a1b604082015260600190565b634e487b7160e01b600052601160045260246000fd5b818103818111156108795761087961191f565b600181811c9082168061195c57607f821691505b60208210810361197c57634e487b7160e01b600052602260045260246000fd5b50919050565b6020808252601390820152721d1bdad95b881b9bdd081cdd5c1c1bdc9d1959606a1b604082015260600190565b6000602082840312156119c157600080fd5b815160ff8116811461164657600080fd5b6000602082840312156119e457600080fd5b5051919050565b80820281158282048414176108795761087961191f565b600082611a1f57634e487b7160e01b600052601260045260246000fd5b500490565b600060208284031215611a3657600080fd5b8151801515811461164657600080fd5b808201808211156108795761087961191f565b601f821115611aa357600081815260208120601f850160051c81016020861015611a805750805b601f850160051c820191505b81811015611a9f57828155600101611a8c565b5050505b505050565b815167ffffffffffffffff811115611ac257611ac2611771565b611ad681611ad08454611948565b84611a59565b602080601f831160018114611b0b5760008415611af35750858301515b600019600386901b1c1916600185901b178555611a9f565b600085815260208120601f198616915b82811015611b3a57888601518255948401946001909101908401611b1b565b5085821015611b585787850151600019600388901b60f8161c191681555b5050505050600190811b01905550565b828152604060208201526000611b81604083018461164d565b949350505050565b6000808354611b9781611948565b60018281168015611baf5760018114611bc457611bf3565b60ff1984168752821515830287019450611bf3565b8760005260208060002060005b85811015611bea5781548a820152908401908201611bd1565b50505082870194505b5092969550505050505056fea26469706673582212206a639c6220ffb5201e3ab5efd833e5052443be1cfa838a45c322569e87d3219f64736f6c63430008140033",
  "linkReferences": {},
  "deployedLinkReferences": {}
}