{
  "_format": "hh-sol-artifact-1",
  "contractName": "GenericDex",
  "sourceName": "contracts/Dex.sol",
  "abi": [
    {
      "inputs": [],
      "stateMutability": "nonpayable",
      "type": "constructor"
    },
    {
      "inputs": [
        {
          "internalType": "address",
          "name": "_tokenA",
          "type": "address"
        },
        {
          "internalType": "address",
          "name": "_tokenB",
          "type": "address"
        },
        {
          "internalType": "uint256",
          "name": "_rateAtoB",
          "type": "uint256"
        },
        {
          "internalType": "uint256",
          "name": "_rateBtoA",
          "type": "uint256"
        },
        {
          "internalType": "uint256",
          "name": "_amountA",
          "type": "uint256"
        },
        {
          "internalType": "uint256",
          "name": "_amountB",
          "type": "uint256"
        }
      ],
      "name": "addTokenPairWithDeposit",
      "outputs": [],
      "stateMutability": "nonpayable",
      "type": "function"
    },
    {
      "inputs": [
        {
          "internalType": "address",
          "name": "_token",
          "type": "address"
        },
        {
          "internalType": "uint256",
          "name": "_amount",
          "type": "uint256"
        }
      ],
      "name": "deposit",
      "outputs": [],
      "stateMutability": "nonpayable",
      "type": "function"
    },
    {
      "inputs": [],
      "name": "getAddress",
      "outputs": [
        {
          "internalType": "address",
          "name": "",
          "type": "address"
        }
      ],
      "stateMutability": "view",
      "type": "function"
    },
    {
      "inputs": [
        {
          "internalType": "address",
          "name": "_token",
          "type": "address"
        }
      ],
      "name": "getBalance",
      "outputs": [
        {
          "internalType": "uint256",
          "name": "",
          "type": "uint256"
        }
      ],
      "stateMutability": "view",
      "type": "function"
    },
    {
      "inputs": [],
      "name": "owner",
      "outputs": [
        {
          "internalType": "address payable",
          "name": "",
          "type": "address"
        }
      ],
      "stateMutability": "view",
      "type": "function"
    },
    {
      "inputs": [
        {
          "internalType": "address",
          "name": "_fromToken",
          "type": "address"
        },
        {
          "internalType": "address",
          "name": "_toToken",
          "type": "address"
        },
        {
          "internalType": "uint256",
          "name": "_amount",
          "type": "uint256"
        }
      ],
      "name": "previewSwap",
      "outputs": [
        {
          "internalType": "uint256",
          "name": "",
          "type": "uint256"
        }
      ],
      "stateMutability": "view",
      "type": "function"
    },
    {
      "inputs": [
        {
          "internalType": "address",
          "name": "_fromToken",
          "type": "address"
        },
        {
          "internalType": "address",
          "name": "_toToken",
          "type": "address"
        },
        {
          "internalType": "uint256",
          "name": "_amount",
          "type": "uint256"
        }
      ],
      "name": "swap",
      "outputs": [],
      "stateMutability": "nonpayable",
      "type": "function"
    },
    {
      "inputs": [
        {
          "internalType": "address",
          "name": "",
          "type": "address"
        },
        {
          "internalType": "address",
          "name": "",
          "type": "address"
        }
      ],
      "name": "tokenBalances",
      "outputs": [
        {
          "internalType": "uint256",
          "name": "",
          "type": "uint256"
        }
      ],
      "stateMutability": "view",
      "type": "function"
    },
    {
      "inputs": [
        {
          "internalType": "bytes32",
          "name": "",
          "type": "bytes32"
        }
      ],
      "name": "tokenPairs",
      "outputs": [
        {
          "internalType": "contract IERC20Metadata",
          "name": "tokenA",
          "type": "address"
        },
        {
          "internalType": "contract IERC20Metadata",
          "name": "tokenB",
          "type": "address"
        },
        {
          "internalType": "uint256",
          "name": "rateAtoB",
          "type": "uint256"
        },
        {
          "internalType": "uint256",
          "name": "rateBtoA",
          "type": "uint256"
        }
      ],
      "stateMutability": "view",
      "type": "function"
    },
    {
      "inputs": [
        {
          "internalType": "address",
          "name": "_token",
          "type": "address"
        },
        {
          "internalType": "uint256",
          "name": "_amount",
          "type": "uint256"
        }
      ],
      "name": "withdraw",
      "outputs": [],
      "stateMutability": "nonpayable",
      "type": "function"
    },
    {
      "stateMutability": "payable",
      "type": "receive"
    }
  ],
  "bytecode": "0x608060405234801561001057600080fd5b50600080546001600160a01b031916331790556111f5806100326000396000f3fe6080604052600436106100955760003560e01c8063b1f3ff9c11610059578063b1f3ff9c146101d1578063bbbaffab146101f1578063df791e5014610211578063f3fef3a314610231578063f8b2cb4f1461025157600080fd5b806338cc4831146100a15780633e3f9725146100cd57806347e7ef24146101495780634dbf6c5a1461016b5780638da5cb5b146101b157600080fd5b3661009c57005b600080fd5b3480156100ad57600080fd5b50305b6040516001600160a01b0390911681526020015b60405180910390f35b3480156100d957600080fd5b5061011e6100e8366004610e31565b600160208190526000918252604090912080549181015460028201546003909201546001600160a01b0393841693909116919084565b604080516001600160a01b0395861681529490931660208501529183015260608201526080016100c4565b34801561015557600080fd5b50610169610164366004610e66565b610294565b005b34801561017757600080fd5b506101a3610186366004610e90565b600260209081526000928352604080842090915290825290205481565b6040519081526020016100c4565b3480156101bd57600080fd5b506000546100b0906001600160a01b031681565b3480156101dd57600080fd5b506101696101ec366004610ec3565b6103a7565b3480156101fd57600080fd5b506101a361020c366004610f18565b610865565b34801561021d57600080fd5b5061016961022c366004610f18565b610936565b34801561023d57600080fd5b5061016961024c366004610e66565b610bcb565b34801561025d57600080fd5b506101a361026c366004610f54565b3060009081526002602090815260408083206001600160a01b03949094168352929052205490565b600081116102f75760405162461bcd60e51b815260206004820152602560248201527f4465706f73697420616d6f756e74206d75737420626520677265617465722074604482015264068616e20360dc1b60648201526084015b60405180910390fd5b3060009081526002602090815260408083206001600160a01b03861684529091528120805483929061032a908490610f8c565b90915550506040516323b872dd60e01b81526001600160a01b038316906323b872dd9061035f90339030908690600401610fa5565b6020604051808303816000875af115801561037e573d6000803e3d6000fd5b505050506040513d601f19601f820116820180604052508101906103a29190610fc9565b505050565b6000546001600160a01b031633146103d15760405162461bcd60e51b81526004016102ee90610feb565b846001600160a01b0316866001600160a01b0316036104325760405162461bcd60e51b815260206004820152601860248201527f546f6b656e73206d75737420626520646966666572656e74000000000000000060448201526064016102ee565b6000821180156104425750600081115b61049e5760405162461bcd60e51b815260206004820152602760248201527f496e697469616c206465706f73697473206d75737420626520677265617465726044820152660207468616e20360cc1b60648201526084016102ee565b600086866040516020016104b3929190611039565b604051602081830303815290604052805190602001209050600086886040516020016104e0929190611039565b60408051601f198184030181529181528151602092830120600085815260019093529120549091506001600160a01b03161561055e5760405162461bcd60e51b815260206004820152601960248201527f546f6b656e207061697220616c7265616479206578697374730000000000000060448201526064016102ee565b6040518060800160405280896001600160a01b03168152602001886001600160a01b03168152602001878152602001868152506001600084815260200190815260200160002060008201518160000160006101000a8154816001600160a01b0302191690836001600160a01b0316021790555060208201518160010160006101000a8154816001600160a01b0302191690836001600160a01b0316021790555060408201518160020155606082015181600301559050506040518060800160405280886001600160a01b03168152602001896001600160a01b03168152602001868152602001878152506001600083815260200190815260200160002060008201518160000160006101000a8154816001600160a01b0302191690836001600160a01b0316021790555060208201518160010160006101000a8154816001600160a01b0302191690836001600160a01b031602179055506040820151816002015560608201518160030155905050876001600160a01b03166323b872dd3330876040518463ffffffff1660e01b81526004016106fc93929190610fa5565b6020604051808303816000875af115801561071b573d6000803e3d6000fd5b505050506040513d601f19601f8201168201806040525081019061073f9190610fc9565b503060009081526002602090815260408083206001600160a01b038c16845290915290205461076f908590610f8c565b3060008181526002602090815260408083206001600160a01b038e8116855292529182902093909355516323b872dd60e01b8152918916916323b872dd916107be913391908890600401610fa5565b6020604051808303816000875af11580156107dd573d6000803e3d6000fd5b505050506040513d601f19601f820116820180604052508101906108019190610fc9565b503060009081526002602090815260408083206001600160a01b038b168452909152902054610831908490610f8c565b3060009081526002602090815260408083206001600160a01b039b909b168352999052979097209690965550505050505050565b600080848460405160200161087b929190611039565b60408051601f1981840301815291815281516020928301206000818152600190935291208054919250906001600160a01b03166108f65760405162461bcd60e51b8152602060048201526019602482015278151bdad95b881c185a5c88191bd95cc81b9bdd08195e1a5cdd603a1b60448201526064016102ee565b80546000906001600160a01b0388811691161461091757816003015461091d565b81600201545b905061092b87878784610cdd565b979650505050505050565b6000838360405160200161094b929190611039565b60408051601f1981840301815291815281516020928301206000818152600190935291208054919250906001600160a01b03166109c65760405162461bcd60e51b8152602060048201526019602482015278151bdad95b881c185a5c88191bd95cc81b9bdd08195e1a5cdd603a1b60448201526064016102ee565b80546000906001600160a01b038781169116146109e75781600301546109ed565b81600201545b905060006109fd87878785610cdd565b3060009081526002602090815260408083206001600160a01b038b168452909152902054909150811115610a6c5760405162461bcd60e51b8152602060048201526016602482015275496e73756666696369656e74206c697175696469747960501b60448201526064016102ee565b6040516323b872dd60e01b81526001600160a01b038816906323b872dd90610a9c90339030908a90600401610fa5565b6020604051808303816000875af1158015610abb573d6000803e3d6000fd5b505050506040513d601f19601f82011682018060405250810190610adf9190610fc9565b5060405163a9059cbb60e01b8152336004820152602481018290526001600160a01b0387169063a9059cbb906044016020604051808303816000875af1158015610b2d573d6000803e3d6000fd5b505050506040513d601f19601f82011682018060405250810190610b519190610fc9565b503060009081526002602090815260408083206001600160a01b038b16845290915281208054879290610b85908490610f8c565b90915550503060009081526002602090815260408083206001600160a01b038a16845290915281208054839290610bbd908490611060565b909155505050505050505050565b6000546001600160a01b03163314610bf55760405162461bcd60e51b81526004016102ee90610feb565b3060009081526002602090815260408083206001600160a01b0386168452909152902054811115610c5f5760405162461bcd60e51b8152602060048201526014602482015273496e73756666696369656e742062616c616e636560601b60448201526064016102ee565b3060009081526002602090815260408083206001600160a01b0386168452909152902054610c8e908290611060565b3060009081526002602090815260408083206001600160a01b038716808552925291829020929092555163a9059cbb60e01b81523360048201526024810183905263a9059cbb9060440161035f565b600080856001600160a01b031663313ce5676040518163ffffffff1660e01b8152600401602060405180830381865afa158015610d1e573d6000803e3d6000fd5b505050506040513d601f19601f82011682018060405250810190610d429190611073565b90506000856001600160a01b031663313ce5676040518163ffffffff1660e01b8152600401602060405180830381865afa158015610d84573d6000803e3d6000fd5b505050506040513d601f19601f82011682018060405250810190610da89190611073565b90506000610dba60ff8416600a61117a565b610dcc670de0b6b3a764000088611186565b610dd6919061119d565b90506000670de0b6b3a7640000610ded8784611186565b610df7919061119d565b9050670de0b6b3a7640000610e1060ff8516600a61117a565b610e1a9083611186565b610e24919061119d565b9998505050505050505050565b600060208284031215610e4357600080fd5b5035919050565b80356001600160a01b0381168114610e6157600080fd5b919050565b60008060408385031215610e7957600080fd5b610e8283610e4a565b946020939093013593505050565b60008060408385031215610ea357600080fd5b610eac83610e4a565b9150610eba60208401610e4a565b90509250929050565b60008060008060008060c08789031215610edc57600080fd5b610ee587610e4a565b9550610ef360208801610e4a565b95989597505050506040840135936060810135936080820135935060a0909101359150565b600080600060608486031215610f2d57600080fd5b610f3684610e4a565b9250610f4460208501610e4a565b9150604084013590509250925092565b600060208284031215610f6657600080fd5b610f6f82610e4a565b9392505050565b634e487b7160e01b600052601160045260246000fd5b80820180821115610f9f57610f9f610f76565b92915050565b6001600160a01b039384168152919092166020820152604081019190915260600190565b600060208284031215610fdb57600080fd5b81518015158114610f6f57600080fd5b6020808252602e908201527f4f6e6c792074686520636f6e7472616374206f776e65722063616e2063616c6c60408201526d103a3434b990333ab731ba34b7b760911b606082015260800190565b6bffffffffffffffffffffffff19606093841b811682529190921b16601482015260280190565b81810381811115610f9f57610f9f610f76565b60006020828403121561108557600080fd5b815160ff81168114610f6f57600080fd5b600181815b808511156110d15781600019048211156110b7576110b7610f76565b808516156110c457918102915b93841c939080029061109b565b509250929050565b6000826110e857506001610f9f565b816110f557506000610f9f565b816001811461110b576002811461111557611131565b6001915050610f9f565b60ff84111561112657611126610f76565b50506001821b610f9f565b5060208310610133831016604e8410600b8410161715611154575081810a610f9f565b61115e8383611096565b806000190482111561117257611172610f76565b029392505050565b6000610f6f83836110d9565b8082028115828204841417610f9f57610f9f610f76565b6000826111ba57634e487b7160e01b600052601260045260246000fd5b50049056fea2646970667358221220e92cec1b67fdd6813f50073975e2007cd639f3579477799d563be4e52b44391a64736f6c63430008140033",
  "linkReferences": {},
  "deployedLinkReferences": {}
}