{
  "_format": "hh-sol-artifact-1",
  "contractName": "LiquidationSimulator",
  "sourceName": "contracts/LiquidationSimulator.sol",
  "abi": [
    {
      "inputs": [
        {
          "internalType": "address payable",
          "name": "_flashLender",
          "type": "address"
        },
        {
          "internalType": "address payable",
          "name": "_dex",
          "type": "address"
        }
      ],
      "stateMutability": "nonpayable",
      "type": "constructor"
    },
    {
      "anonymous": false,
      "inputs": [
        {
          "indexed": false,
          "internalType": "address",
          "name": "token",
          "type": "address"
        },
        {
          "indexed": false,
          "internalType": "uint256",
          "name": "profit",
          "type": "uint256"
        }
      ],
      "name": "ProfitTaken",
      "type": "event"
    },
    {
      "inputs": [],
      "name": "dex",
      "outputs": [
        {
          "internalType": "contract GenericDex",
          "name": "",
          "type": "address"
        }
      ],
      "stateMutability": "view",
      "type": "function"
    },
    {
      "inputs": [
        {
          "internalType": "address",
          "name": "token",
          "type": "address"
        },
        {
          "internalType": "uint256",
          "name": "amount",
          "type": "uint256"
        },
        {
          "internalType": "uint256",
          "name": "fee",
          "type": "uint256"
        }
      ],
      "name": "executeOperation",
      "outputs": [],
      "stateMutability": "nonpayable",
      "type": "function"
    },
    {
      "inputs": [],
      "name": "flashLender",
      "outputs": [
        {
          "internalType": "contract DaoMultiSig",
          "name": "",
          "type": "address"
        }
      ],
      "stateMutability": "view",
      "type": "function"
    },
    {
      "inputs": [],
      "name": "getAddress",
      "outputs": [
        {
          "internalType": "address",
          "name": "",
          "type": "address"
        }
      ],
      "stateMutability": "view",
      "type": "function"
    },
    {
      "inputs": [
        {
          "internalType": "address",
          "name": "borrowToken",
          "type": "address"
        },
        {
          "internalType": "address",
          "name": "_profitToken",
          "type": "address"
        },
        {
          "internalType": "uint256",
          "name": "borrowAmount",
          "type": "uint256"
        }
      ],
      "name": "simulateLiquidation",
      "outputs": [],
      "stateMutability": "nonpayable",
      "type": "function"
    },
    {
      "inputs": [
        {
          "internalType": "address",
          "name": "token",
          "type": "address"
        },
        {
          "internalType": "address",
          "name": "to",
          "type": "address"
        }
      ],
      "name": "withdrawProfit",
      "outputs": [],
      "stateMutability": "nonpayable",
      "type": "function"
    }
  ],
  "bytecode": "0x608060405234801561001057600080fd5b50604051610b2c380380610b2c83398101604081905261002f9161007c565b600080546001600160a01b039384166001600160a01b031991821617909155600180549290931691161790556100af565b80516001600160a01b038116811461007757600080fd5b919050565b6000806040838503121561008f57600080fd5b61009883610060565b91506100a660208401610060565b90509250929050565b610a6e806100be6000396000f3fe608060405234801561001057600080fd5b50600436106100625760003560e01c8063314382251461006757806338cc48311461007c578063692058c21461009a5780638b514f8c146100ad578063a7714458146100c0578063b2d2c1de146100d3575b600080fd5b61007a610075366004610895565b6100e6565b005b305b6040516001600160a01b03909116815260200160405180910390f35b60015461007e906001600160a01b031681565b61007a6100bb3660046108d1565b610229565b60005461007e906001600160a01b031681565b61007a6100e1366004610904565b61071b565b6101756040518060600160405280602181526020016109f6602191396000546040516370a0823160e01b81526001600160a01b039182166004820152908616906370a0823190602401602060405180830381865afa15801561014c573d6000803e3d6000fd5b505050506040513d601f19601f820116820180604052508101906101709190610937565b610803565b6101a76040518060400160405280601081526020016f2932b8bab4b932b21030b6b7bab73a1d60811b81525082610803565b600280546001600160a01b0319166001600160a01b0384811691909117909155600054604051632767919760e21b8152858316600482015260248101849052911690639d9e465c90604401600060405180830381600087803b15801561020c57600080fd5b505af1158015610220573d6000803e3d6000fd5b50505050505050565b6000546001600160a01b031633146102775760405162461bcd60e51b815260206004820152600c60248201526b155b985d5d1a1bdc9a5e995960a21b60448201526064015b60405180910390fd5b6002546001600160a01b03166102c65760405162461bcd60e51b8152602060048201526014602482015273141c9bd99a5d081d1bdad95b881b9bdd081cd95d60621b604482015260640161026e565b60006102d28284610950565b6002546040516370a0823160e01b81523060048201529192506000916001600160a01b03909116906370a0823190602401602060405180830381865afa158015610320573d6000803e3d6000fd5b505050506040513d601f19601f820116820180604052508101906103449190610937565b90506103856040518060400160405280601b81526020017f50726f6669742062616c616e6365206265666f726520737761703a000000000081525082610803565b60025460015460405163095ea7b360e01b81526001600160a01b0391821660048201526024810184905291169063095ea7b3906044016020604051808303816000875af11580156103da573d6000803e3d6000fd5b505050506040513d601f19601f820116820180604052508101906103fe9190610977565b50600154600254604051630df791e560e41b81526001600160a01b03918216600482015287821660248201526044810184905291169063df791e5090606401600060405180830381600087803b15801561045757600080fd5b505af115801561046b573d6000803e3d6000fd5b50506040516370a0823160e01b8152306004820152600092506001600160a01b03881691506370a0823190602401602060405180830381865afa1580156104b6573d6000803e3d6000fd5b505050506040513d601f19601f820116820180604052508101906104da9190610937565b90506104fe604051806060016040528060228152602001610a176022913982610803565b610533604051806040016040528060138152602001722932b8bab4b932b2103932b830bcb6b2b73a1d60691b81525084610803565b828110156105835760405162461bcd60e51b815260206004820152601e60248201527f496e73756666696369656e7420746f6b656e7320616674657220737761700000604482015260640161026e565b60005460405163a9059cbb60e01b81526001600160a01b039182166004820152602481018590529087169063a9059cbb906044016020604051808303816000875af11580156105d6573d6000803e3d6000fd5b505050506040513d601f19601f820116820180604052508101906105fa9190610977565b6106465760405162461bcd60e51b815260206004820152601b60248201527f466c617368206c6f616e2072657061796d656e74206661696c65640000000000604482015260640161026e565b6002546040516370a0823160e01b81523060048201526000916001600160a01b0316906370a0823190602401602060405180830381865afa15801561068f573d6000803e3d6000fd5b505050506040513d601f19601f820116820180604052508101906106b39190610937565b9050801561070257600254604080516001600160a01b039092168252602082018390527ff43e8d333b9ddb8704eb40c14e57021e6d22a57b7e9bf2111af5f1ffea6ada58910160405180910390a15b5050600280546001600160a01b03191690555050505050565b6040516370a0823160e01b81523060048201526000906001600160a01b038416906370a0823190602401602060405180830381865afa158015610762573d6000803e3d6000fd5b505050506040513d601f19601f820116820180604052508101906107869190610937565b60405163a9059cbb60e01b81526001600160a01b038481166004830152602482018390529192509084169063a9059cbb906044016020604051808303816000875af11580156107d9573d6000803e3d6000fd5b505050506040513d601f19601f820116820180604052508101906107fd9190610977565b50505050565b61084882826040516024016108199291906109a0565b60408051601f198184030181529190526020810180516001600160e01b0316632d839cb360e21b17905261084c565b5050565b61085581610858565b50565b60006a636f6e736f6c652e6c6f679050600080835160208501845afa505050565b80356001600160a01b038116811461089057600080fd5b919050565b6000806000606084860312156108aa57600080fd5b6108b384610879565b92506108c160208501610879565b9150604084013590509250925092565b6000806000606084860312156108e657600080fd5b6108ef84610879565b95602085013595506040909401359392505050565b6000806040838503121561091757600080fd5b61092083610879565b915061092e60208401610879565b90509250929050565b60006020828403121561094957600080fd5b5051919050565b8082018082111561097157634e487b7160e01b600052601160045260246000fd5b92915050565b60006020828403121561098957600080fd5b8151801515811461099957600080fd5b9392505050565b604081526000835180604084015260005b818110156109ce57602081870181015160608684010152016109b1565b506000606082850101526060601f19601f830116840101915050826020830152939250505056fe4d756c74697369672062616c616e6365206f6620626f72726f7720746f6b656e3a426f72726f77656420746f6b656e2062616c616e636520616674657220737761703aa26469706673582212208fd0c9da646cb86ce7c219911574aabb62b79c5e4a35e4ea0171e8221e4ad59864736f6c63430008140033",
  "linkReferences": {},
  "deployedLinkReferences": {}
}