{
  "_format": "hh-sol-artifact-1",
  "contractName": "LiquidationSimulator",
  "sourceName": "contracts/mock/LiquidationSimulator.sol",
  "abi": [
    {
      "inputs": [],
      "stateMutability": "nonpayable",
      "type": "constructor"
    },
    {
      "inputs": [],
      "name": "count",
      "outputs": [
        {
          "internalType": "uint256",
          "name": "",
          "type": "uint256"
        }
      ],
      "stateMutability": "view",
      "type": "function"
    },
    {
      "inputs": [
        {
          "internalType": "uint256",
          "name": "_count",
          "type": "uint256"
        }
      ],
      "name": "setCount",
      "outputs": [],
      "stateMutability": "nonpayable",
      "type": "function"
    },
    {
      "inputs": [
        {
          "internalType": "address",
          "name": "borrowToken",
          "type": "address"
        },
        {
          "internalType": "address",
          "name": "profitToken",
          "type": "address"
        },
        {
          "internalType": "uint256",
          "name": "borrowAmount",
          "type": "uint256"
        }
      ],
      "name": "simulateLiquidation",
      "outputs": [],
      "stateMutability": "nonpayable",
      "type": "function"
    }
  ],
  "bytecode": "0x6080604052348015600f57600080fd5b50600080819055506102a2806100266000396000f3fe608060405234801561001057600080fd5b50600436106100415760003560e01c806306661abd146100465780633143822514610064578063d14e62b814610080575b600080fd5b61004e61009c565b60405161005b91906100df565b60405180910390f35b61007e60048036038101906100799190610189565b6100a2565b005b61009a600480360381019061009591906101dc565b6100bc565b005b60005481565b60016000546100b19190610238565b600081905550505050565b8060008190555050565b6000819050919050565b6100d9816100c6565b82525050565b60006020820190506100f460008301846100d0565b92915050565b600080fd5b600073ffffffffffffffffffffffffffffffffffffffff82169050919050565b600061012a826100ff565b9050919050565b61013a8161011f565b811461014557600080fd5b50565b60008135905061015781610131565b92915050565b610166816100c6565b811461017157600080fd5b50565b6000813590506101838161015d565b92915050565b6000806000606084860312156101a2576101a16100fa565b5b60006101b086828701610148565b93505060206101c186828701610148565b92505060406101d286828701610174565b9150509250925092565b6000602082840312156101f2576101f16100fa565b5b600061020084828501610174565b91505092915050565b7f4e487b7100000000000000000000000000000000000000000000000000000000600052601160045260246000fd5b6000610243826100c6565b915061024e836100c6565b925082820190508082111561026657610265610209565b5b9291505056fea2646970667358221220fad33be8bd8ae2aea82749bfbb225e737d9f74c53eba03202df5e3c7b2e5b15864736f6c634300081b0033",
  "linkReferences": {},
  "deployedLinkReferences": {}
}