{
  "_format": "hh-sol-artifact-1",
  "contractName": "Trivia",
  "sourceName": "contracts/Trivia.sol",
  "abi": [
    {
      "inputs": [
        {
          "internalType": "address",
          "name": "_hasher",
          "type": "address"
        },
        {
          "internalType": "address",
          "name": "_verifier",
          "type": "address"
        },
        {
          "internalType": "address",
          "name": "_usdcToken",
          "type": "address"
        },
        {
          "internalType": "address",
          "name": "_aavePool",
          "type": "address"
        }
      ],
      "stateMutability": "nonpayable",
      "type": "constructor"
    },
    {
      "inputs": [
        {
          "internalType": "address",
          "name": "spender",
          "type": "address"
        },
        {
          "internalType": "uint256",
          "name": "allowance",
          "type": "uint256"
        },
        {
          "internalType": "uint256",
          "name": "needed",
          "type": "uint256"
        }
      ],
      "name": "ERC20InsufficientAllowance",
      "type": "error"
    },
    {
      "inputs": [
        {
          "internalType": "address",
          "name": "sender",
          "type": "address"
        },
        {
          "internalType": "uint256",
          "name": "balance",
          "type": "uint256"
        },
        {
          "internalType": "uint256",
          "name": "needed",
          "type": "uint256"
        }
      ],
      "name": "ERC20InsufficientBalance",
      "type": "error"
    },
    {
      "inputs": [
        {
          "internalType": "address",
          "name": "approver",
          "type": "address"
        }
      ],
      "name": "ERC20InvalidApprover",
      "type": "error"
    },
    {
      "inputs": [
        {
          "internalType": "address",
          "name": "receiver",
          "type": "address"
        }
      ],
      "name": "ERC20InvalidReceiver",
      "type": "error"
    },
    {
      "inputs": [
        {
          "internalType": "address",
          "name": "sender",
          "type": "address"
        }
      ],
      "name": "ERC20InvalidSender",
      "type": "error"
    },
    {
      "inputs": [
        {
          "internalType": "address",
          "name": "spender",
          "type": "address"
        }
      ],
      "name": "ERC20InvalidSpender",
      "type": "error"
    },
    {
      "inputs": [
        {
          "internalType": "address",
          "name": "owner",
          "type": "address"
        }
      ],
      "name": "OwnableInvalidOwner",
      "type": "error"
    },
    {
      "inputs": [
        {
          "internalType": "address",
          "name": "account",
          "type": "address"
        }
      ],
      "name": "OwnableUnauthorizedAccount",
      "type": "error"
    },
    {
      "anonymous": false,
      "inputs": [
        {
          "indexed": true,
          "internalType": "address",
          "name": "owner",
          "type": "address"
        },
        {
          "indexed": true,
          "internalType": "address",
          "name": "spender",
          "type": "address"
        },
        {
          "indexed": false,
          "internalType": "uint256",
          "name": "value",
          "type": "uint256"
        }
      ],
      "name": "Approval",
      "type": "event"
    },
    {
      "anonymous": false,
      "inputs": [
        {
          "indexed": true,
          "internalType": "uint256",
          "name": "root",
          "type": "uint256"
        },
        {
          "indexed": false,
          "internalType": "uint256[10]",
          "name": "hashPairings",
          "type": "uint256[10]"
        },
        {
          "indexed": false,
          "internalType": "uint8[10]",
          "name": "pairDirection",
          "type": "uint8[10]"
        },
        {
          "indexed": false,
          "internalType": "uint256",
          "name": "amount",
          "type": "uint256"
        },
        {
          "indexed": false,
          "internalType": "uint256",
          "name": "id",
          "type": "uint256"
        }
      ],
      "name": "Deposit",
      "type": "event"
    },
    {
      "anonymous": false,
      "inputs": [
        {
          "indexed": true,
          "internalType": "address",
          "name": "previousOwner",
          "type": "address"
        },
        {
          "indexed": true,
          "internalType": "address",
          "name": "newOwner",
          "type": "address"
        }
      ],
      "name": "OwnershipTransferred",
      "type": "event"
    },
    {
      "anonymous": false,
      "inputs": [
        {
          "indexed": true,
          "internalType": "address",
          "name": "user",
          "type": "address"
        },
        {
          "indexed": false,
          "internalType": "uint256",
          "name": "points",
          "type": "uint256"
        }
      ],
      "name": "PointsUploaded",
      "type": "event"
    },
    {
      "anonymous": false,
      "inputs": [
        {
          "indexed": true,
          "internalType": "address",
          "name": "user",
          "type": "address"
        },
        {
          "indexed": false,
          "internalType": "uint256",
          "name": "rewardAmount",
          "type": "uint256"
        }
      ],
      "name": "RewardsDistributed",
      "type": "event"
    },
    {
      "anonymous": false,
      "inputs": [
        {
          "indexed": true,
          "internalType": "address",
          "name": "from",
          "type": "address"
        },
        {
          "indexed": true,
          "internalType": "address",
          "name": "to",
          "type": "address"
        },
        {
          "indexed": false,
          "internalType": "uint256",
          "name": "value",
          "type": "uint256"
        }
      ],
      "name": "Transfer",
      "type": "event"
    },
    {
      "anonymous": false,
      "inputs": [
        {
          "indexed": true,
          "internalType": "address",
          "name": "user",
          "type": "address"
        },
        {
          "indexed": true,
          "internalType": "uint256",
          "name": "nullifierHash",
          "type": "uint256"
        },
        {
          "indexed": false,
          "internalType": "uint256",
          "name": "amount",
          "type": "uint256"
        }
      ],
      "name": "Withdrawal",
      "type": "event"
    },
    {
      "inputs": [],
      "name": "ADDITIONAL_INTEREST_PRECISION",
      "outputs": [
        {
          "internalType": "uint256",
          "name": "",
          "type": "uint256"
        }
      ],
      "stateMutability": "view",
      "type": "function"
    },
    {
      "inputs": [],
      "name": "DECIMALS",
      "outputs": [
        {
          "internalType": "uint8",
          "name": "",
          "type": "uint8"
        }
      ],
      "stateMutability": "view",
      "type": "function"
    },
    {
      "inputs": [],
      "name": "ELIGIBILITY_AMOUNT",
      "outputs": [
        {
          "internalType": "uint256",
          "name": "",
          "type": "uint256"
        }
      ],
      "stateMutability": "view",
      "type": "function"
    },
    {
      "inputs": [],
      "name": "REWARD_SCALE",
      "outputs": [
        {
          "internalType": "uint256",
          "name": "",
          "type": "uint256"
        }
      ],
      "stateMutability": "view",
      "type": "function"
    },
    {
      "inputs": [],
      "name": "WEEK_TIME",
      "outputs": [
        {
          "internalType": "uint256",
          "name": "",
          "type": "uint256"
        }
      ],
      "stateMutability": "view",
      "type": "function"
    },
    {
      "inputs": [],
      "name": "aavePool",
      "outputs": [
        {
          "internalType": "contract IPool",
          "name": "",
          "type": "address"
        }
      ],
      "stateMutability": "view",
      "type": "function"
    },
    {
      "inputs": [
        {
          "internalType": "address",
          "name": "owner",
          "type": "address"
        },
        {
          "internalType": "address",
          "name": "spender",
          "type": "address"
        }
      ],
      "name": "allowance",
      "outputs": [
        {
          "internalType": "uint256",
          "name": "",
          "type": "uint256"
        }
      ],
      "stateMutability": "view",
      "type": "function"
    },
    {
      "inputs": [
        {
          "internalType": "address",
          "name": "spender",
          "type": "address"
        },
        {
          "internalType": "uint256",
          "name": "value",
          "type": "uint256"
        }
      ],
      "name": "approve",
      "outputs": [
        {
          "internalType": "bool",
          "name": "",
          "type": "bool"
        }
      ],
      "stateMutability": "nonpayable",
      "type": "function"
    },
    {
      "inputs": [
        {
          "internalType": "address",
          "name": "account",
          "type": "address"
        }
      ],
      "name": "balanceOf",
      "outputs": [
        {
          "internalType": "uint256",
          "name": "",
          "type": "uint256"
        }
      ],
      "stateMutability": "view",
      "type": "function"
    },
    {
      "inputs": [
        {
          "internalType": "address",
          "name": "user",
          "type": "address"
        }
      ],
      "name": "calcReward",
      "outputs": [
        {
          "internalType": "uint256",
          "name": "",
          "type": "uint256"
        }
      ],
      "stateMutability": "view",
      "type": "function"
    },
    {
      "inputs": [
        {
          "internalType": "address",
          "name": "user",
          "type": "address"
        }
      ],
      "name": "checkEligibility",
      "outputs": [
        {
          "internalType": "bool",
          "name": "",
          "type": "bool"
        }
      ],
      "stateMutability": "view",
      "type": "function"
    },
    {
      "inputs": [],
      "name": "checkTotalInterest",
      "outputs": [
        {
          "internalType": "uint256",
          "name": "",
          "type": "uint256"
        }
      ],
      "stateMutability": "view",
      "type": "function"
    },
    {
      "inputs": [
        {
          "internalType": "bytes",
          "name": "",
          "type": "bytes"
        }
      ],
      "name": "checkUpkeep",
      "outputs": [
        {
          "internalType": "bool",
          "name": "upkeepNeeded",
          "type": "bool"
        },
        {
          "internalType": "bytes",
          "name": "performData",
          "type": "bytes"
        }
      ],
      "stateMutability": "view",
      "type": "function"
    },
    {
      "inputs": [],
      "name": "checkWeeklyInterest",
      "outputs": [
        {
          "internalType": "uint256",
          "name": "",
          "type": "uint256"
        }
      ],
      "stateMutability": "nonpayable",
      "type": "function"
    },
    {
      "inputs": [
        {
          "internalType": "uint256",
          "name": "",
          "type": "uint256"
        }
      ],
      "name": "commitments",
      "outputs": [
        {
          "internalType": "bool",
          "name": "",
          "type": "bool"
        }
      ],
      "stateMutability": "view",
      "type": "function"
    },
    {
      "inputs": [],
      "name": "decimals",
      "outputs": [
        {
          "internalType": "uint8",
          "name": "",
          "type": "uint8"
        }
      ],
      "stateMutability": "view",
      "type": "function"
    },
    {
      "inputs": [
        {
          "internalType": "uint256",
          "name": "amount",
          "type": "uint256"
        },
        {
          "internalType": "uint256",
          "name": "_commitment",
          "type": "uint256"
        }
      ],
      "name": "deposit",
      "outputs": [],
      "stateMutability": "nonpayable",
      "type": "function"
    },
    {
      "inputs": [],
      "name": "hasher",
      "outputs": [
        {
          "internalType": "contract Hasher",
          "name": "",
          "type": "address"
        }
      ],
      "stateMutability": "view",
      "type": "function"
    },
    {
      "inputs": [],
      "name": "interval",
      "outputs": [
        {
          "internalType": "uint256",
          "name": "",
          "type": "uint256"
        }
      ],
      "stateMutability": "view",
      "type": "function"
    },
    {
      "inputs": [
        {
          "internalType": "address",
          "name": "",
          "type": "address"
        }
      ],
      "name": "isAdmin",
      "outputs": [
        {
          "internalType": "bool",
          "name": "",
          "type": "bool"
        }
      ],
      "stateMutability": "view",
      "type": "function"
    },
    {
      "inputs": [
        {
          "internalType": "uint8",
          "name": "",
          "type": "uint8"
        }
      ],
      "name": "lastLevelHash",
      "outputs": [
        {
          "internalType": "uint256",
          "name": "",
          "type": "uint256"
        }
      ],
      "stateMutability": "view",
      "type": "function"
    },
    {
      "inputs": [],
      "name": "lastRewardTimestamp",
      "outputs": [
        {
          "internalType": "uint256",
          "name": "",
          "type": "uint256"
        }
      ],
      "stateMutability": "view",
      "type": "function"
    },
    {
      "inputs": [],
      "name": "lastWeeklyInterest",
      "outputs": [
        {
          "internalType": "uint256",
          "name": "",
          "type": "uint256"
        }
      ],
      "stateMutability": "view",
      "type": "function"
    },
    {
      "inputs": [],
      "name": "lastWeeklyTimestamp",
      "outputs": [
        {
          "internalType": "uint256",
          "name": "",
          "type": "uint256"
        }
      ],
      "stateMutability": "view",
      "type": "function"
    },
    {
      "inputs": [],
      "name": "lockPeriod",
      "outputs": [
        {
          "internalType": "uint256",
          "name": "",
          "type": "uint256"
        }
      ],
      "stateMutability": "view",
      "type": "function"
    },
    {
      "inputs": [
        {
          "internalType": "address",
          "name": "to",
          "type": "address"
        },
        {
          "internalType": "uint256",
          "name": "amount",
          "type": "uint256"
        }
      ],
      "name": "mint",
      "outputs": [],
      "stateMutability": "nonpayable",
      "type": "function"
    },
    {
      "inputs": [],
      "name": "name",
      "outputs": [
        {
          "internalType": "string",
          "name": "",
          "type": "string"
        }
      ],
      "stateMutability": "view",
      "type": "function"
    },
    {
      "inputs": [],
      "name": "nextLeafIdex",
      "outputs": [
        {
          "internalType": "uint256",
          "name": "",
          "type": "uint256"
        }
      ],
      "stateMutability": "view",
      "type": "function"
    },
    {
      "inputs": [],
      "name": "nextTimelockId",
      "outputs": [
        {
          "internalType": "uint256",
          "name": "",
          "type": "uint256"
        }
      ],
      "stateMutability": "view",
      "type": "function"
    },
    {
      "inputs": [
        {
          "internalType": "uint256",
          "name": "",
          "type": "uint256"
        }
      ],
      "name": "nullifierHashs",
      "outputs": [
        {
          "internalType": "bool",
          "name": "",
          "type": "bool"
        }
      ],
      "stateMutability": "view",
      "type": "function"
    },
    {
      "inputs": [],
      "name": "owner",
      "outputs": [
        {
          "internalType": "address",
          "name": "",
          "type": "address"
        }
      ],
      "stateMutability": "view",
      "type": "function"
    },
    {
      "inputs": [
        {
          "internalType": "bytes",
          "name": "",
          "type": "bytes"
        }
      ],
      "name": "performUpkeep",
      "outputs": [],
      "stateMutability": "nonpayable",
      "type": "function"
    },
    {
      "inputs": [],
      "name": "quizId",
      "outputs": [
        {
          "internalType": "uint256",
          "name": "",
          "type": "uint256"
        }
      ],
      "stateMutability": "view",
      "type": "function"
    },
    {
      "inputs": [
        {
          "internalType": "uint256",
          "name": "",
          "type": "uint256"
        }
      ],
      "name": "quizRewards",
      "outputs": [
        {
          "internalType": "uint256",
          "name": "",
          "type": "uint256"
        }
      ],
      "stateMutability": "view",
      "type": "function"
    },
    {
      "inputs": [
        {
          "internalType": "uint256",
          "name": "",
          "type": "uint256"
        }
      ],
      "name": "quizWinners",
      "outputs": [
        {
          "internalType": "uint256",
          "name": "",
          "type": "uint256"
        }
      ],
      "stateMutability": "view",
      "type": "function"
    },
    {
      "inputs": [],
      "name": "renounceOwnership",
      "outputs": [],
      "stateMutability": "nonpayable",
      "type": "function"
    },
    {
      "inputs": [
        {
          "internalType": "uint256",
          "name": "",
          "type": "uint256"
        }
      ],
      "name": "roots",
      "outputs": [
        {
          "internalType": "bool",
          "name": "",
          "type": "bool"
        }
      ],
      "stateMutability": "view",
      "type": "function"
    },
    {
      "inputs": [
        {
          "internalType": "address",
          "name": "user",
          "type": "address"
        },
        {
          "internalType": "bool",
          "name": "_isAllowed",
          "type": "bool"
        }
      ],
      "name": "setAdmin",
      "outputs": [],
      "stateMutability": "nonpayable",
      "type": "function"
    },
    {
      "inputs": [
        {
          "internalType": "uint256",
          "name": "_newInterval",
          "type": "uint256"
        }
      ],
      "name": "setInterval",
      "outputs": [],
      "stateMutability": "nonpayable",
      "type": "function"
    },
    {
      "inputs": [
        {
          "internalType": "uint256",
          "name": "_newPeriod",
          "type": "uint256"
        }
      ],
      "name": "setLockPeriod",
      "outputs": [],
      "stateMutability": "nonpayable",
      "type": "function"
    },
    {
      "inputs": [
        {
          "internalType": "address[]",
          "name": "users",
          "type": "address[]"
        }
      ],
      "name": "setUsersToReward",
      "outputs": [],
      "stateMutability": "nonpayable",
      "type": "function"
    },
    {
      "inputs": [
        {
          "internalType": "address",
          "name": "",
          "type": "address"
        }
      ],
      "name": "stakerUSDCAmount",
      "outputs": [
        {
          "internalType": "uint256",
          "name": "",
          "type": "uint256"
        }
      ],
      "stateMutability": "view",
      "type": "function"
    },
    {
      "inputs": [],
      "name": "symbol",
      "outputs": [
        {
          "internalType": "string",
          "name": "",
          "type": "string"
        }
      ],
      "stateMutability": "view",
      "type": "function"
    },
    {
      "inputs": [
        {
          "internalType": "uint256",
          "name": "",
          "type": "uint256"
        }
      ],
      "name": "timelockToken",
      "outputs": [
        {
          "internalType": "address",
          "name": "owner",
          "type": "address"
        },
        {
          "internalType": "uint256",
          "name": "amount",
          "type": "uint256"
        },
        {
          "internalType": "uint256",
          "name": "timelockStart",
          "type": "uint256"
        },
        {
          "internalType": "bool",
          "name": "valid",
          "type": "bool"
        }
      ],
      "stateMutability": "view",
      "type": "function"
    },
    {
      "inputs": [],
      "name": "totalStaked",
      "outputs": [
        {
          "internalType": "uint256",
          "name": "",
          "type": "uint256"
        }
      ],
      "stateMutability": "view",
      "type": "function"
    },
    {
      "inputs": [],
      "name": "totalSupply",
      "outputs": [
        {
          "internalType": "uint256",
          "name": "",
          "type": "uint256"
        }
      ],
      "stateMutability": "view",
      "type": "function"
    },
    {
      "inputs": [
        {
          "internalType": "address",
          "name": "to",
          "type": "address"
        },
        {
          "internalType": "uint256",
          "name": "value",
          "type": "uint256"
        }
      ],
      "name": "transfer",
      "outputs": [
        {
          "internalType": "bool",
          "name": "",
          "type": "bool"
        }
      ],
      "stateMutability": "nonpayable",
      "type": "function"
    },
    {
      "inputs": [
        {
          "internalType": "address",
          "name": "from",
          "type": "address"
        },
        {
          "internalType": "address",
          "name": "to",
          "type": "address"
        },
        {
          "internalType": "uint256",
          "name": "value",
          "type": "uint256"
        }
      ],
      "name": "transferFrom",
      "outputs": [
        {
          "internalType": "bool",
          "name": "",
          "type": "bool"
        }
      ],
      "stateMutability": "nonpayable",
      "type": "function"
    },
    {
      "inputs": [
        {
          "internalType": "address",
          "name": "newOwner",
          "type": "address"
        }
      ],
      "name": "transferOwnership",
      "outputs": [],
      "stateMutability": "nonpayable",
      "type": "function"
    },
    {
      "inputs": [],
      "name": "treeLevel",
      "outputs": [
        {
          "internalType": "uint8",
          "name": "",
          "type": "uint8"
        }
      ],
      "stateMutability": "view",
      "type": "function"
    },
    {
      "inputs": [
        {
          "internalType": "address[]",
          "name": "users",
          "type": "address[]"
        },
        {
          "internalType": "uint256[]",
          "name": "points",
          "type": "uint256[]"
        }
      ],
      "name": "uploadPoints",
      "outputs": [],
      "stateMutability": "nonpayable",
      "type": "function"
    },
    {
      "inputs": [],
      "name": "usdcToken",
      "outputs": [
        {
          "internalType": "contract IERC20",
          "name": "",
          "type": "address"
        }
      ],
      "stateMutability": "view",
      "type": "function"
    },
    {
      "inputs": [
        {
          "internalType": "address",
          "name": "",
          "type": "address"
        }
      ],
      "name": "userPoints",
      "outputs": [
        {
          "internalType": "uint256",
          "name": "",
          "type": "uint256"
        }
      ],
      "stateMutability": "view",
      "type": "function"
    },
    {
      "inputs": [
        {
          "internalType": "uint256",
          "name": "",
          "type": "uint256"
        }
      ],
      "name": "usersToReward",
      "outputs": [
        {
          "internalType": "address",
          "name": "",
          "type": "address"
        }
      ],
      "stateMutability": "view",
      "type": "function"
    },
    {
      "inputs": [],
      "name": "verifier",
      "outputs": [
        {
          "internalType": "address",
          "name": "",
          "type": "address"
        }
      ],
      "stateMutability": "view",
      "type": "function"
    },
    {
      "inputs": [
        {
          "internalType": "uint256",
          "name": "id",
          "type": "uint256"
        },
        {
          "internalType": "uint256[2]",
          "name": "_pA",
          "type": "uint256[2]"
        },
        {
          "internalType": "uint256[2][2]",
          "name": "_pB",
          "type": "uint256[2][2]"
        },
        {
          "internalType": "uint256[2]",
          "name": "_pC",
          "type": "uint256[2]"
        },
        {
          "internalType": "uint256[2]",
          "name": "_pubSignals",
          "type": "uint256[2]"
        }
      ],
      "name": "withdraw",
      "outputs": [],
      "stateMutability": "nonpayable",
      "type": "function"
    }
  ],
  "bytecode": "0x6080604052601e600b556101a4600c55600a601260006101000a81548160ff021916908360ff16021790555060006013556040518061014001604052807fd4b1397294ac371d7e6327985b84e513e1a67d7511cd9e97c8d863f475234ff381526020017f7a1950291d8f8d98ffa31fb48d4ade1f75579c189663a7ad6253e054eb3c6e0281526020017f9a5bd8dcbf46dd9d94aa5f453a88c30ea30078f4233b48b7e6a09c309efcaacf81526020017f10d25a62653575746e8c8d14d457cad6d4d84237f8c0469f2b6fc1d8eefdedcf81526020017fb8cca00d5457eeba20a4a2559e4b7b8474aa461fdcca193ab9c684f42548a79281526020017ff1fa21b6a1c7e39c31bc19188cd3492b0093f7a08b3a5452bcc90fd72e39169b81526020017fa7719a5fce76578cf8f2fe028aa33a8d8dafbb9d56d135d6bdbb98b588bfbe4d81526020017fd74b7e6e290c206af23fa785f7088f4646778a6f4e238bff11a81493b421da6b81526020017f43b04fd9e248d46a8e3c53786aaa06abcbc7152859d957393a7ed77f937b82df81526020017f4a6b78ef2b2e9ae43bb3c90c13058a03141de722292df4b889908ef2f19fd3e6815250601f90600a620001c8929190620004ef565b50348015620001d657600080fd5b5060405162005853380380620058538339818101604052810190620001fc9190620005bd565b6040518060400160405280600681526020017f54524956494100000000000000000000000000000000000000000000000000008152506040518060400160405280600681526020017f545249564941000000000000000000000000000000000000000000000000000081525033600073ffffffffffffffffffffffffffffffffffffffff168173ffffffffffffffffffffffffffffffffffffffff1603620002de5760006040517f1e4fbdf7000000000000000000000000000000000000000000000000000000008152600401620002d5919062000640565b60405180910390fd5b620002ef816200042b60201b60201c565b508160049081620003019190620008d7565b508060059081620003139190620008d7565b50505083600760006101000a81548173ffffffffffffffffffffffffffffffffffffffff021916908373ffffffffffffffffffffffffffffffffffffffff16021790555082600660006101000a81548173ffffffffffffffffffffffffffffffffffffffff021916908373ffffffffffffffffffffffffffffffffffffffff16021790555081600960006101000a81548173ffffffffffffffffffffffffffffffffffffffff021916908373ffffffffffffffffffffffffffffffffffffffff16021790555080600860006101000a81548173ffffffffffffffffffffffffffffffffffffffff021916908373ffffffffffffffffffffffffffffffffffffffff16021790555042600d8190555050505050620009be565b60008060009054906101000a900473ffffffffffffffffffffffffffffffffffffffff169050816000806101000a81548173ffffffffffffffffffffffffffffffffffffffff021916908373ffffffffffffffffffffffffffffffffffffffff1602179055508173ffffffffffffffffffffffffffffffffffffffff168173ffffffffffffffffffffffffffffffffffffffff167f8be0079c531659141344cd1fd0a4f28419497f9722a3daafe3b4186f6b6457e060405160405180910390a35050565b82600a810192821562000521579160200282015b828111156200052057825182559160200191906001019062000503565b5b50905062000530919062000534565b5090565b5b808211156200054f57600081600090555060010162000535565b5090565b600080fd5b600073ffffffffffffffffffffffffffffffffffffffff82169050919050565b6000620005858262000558565b9050919050565b620005978162000578565b8114620005a357600080fd5b50565b600081519050620005b7816200058c565b92915050565b60008060008060808587031215620005da57620005d962000553565b5b6000620005ea87828801620005a6565b9450506020620005fd87828801620005a6565b93505060406200061087828801620005a6565b92505060606200062387828801620005a6565b91505092959194509250565b6200063a8162000578565b82525050565b60006020820190506200065760008301846200062f565b92915050565b600081519050919050565b7f4e487b7100000000000000000000000000000000000000000000000000000000600052604160045260246000fd5b7f4e487b7100000000000000000000000000000000000000000000000000000000600052602260045260246000fd5b60006002820490506001821680620006df57607f821691505b602082108103620006f557620006f462000697565b5b50919050565b60008190508160005260206000209050919050565b60006020601f8301049050919050565b600082821b905092915050565b6000600883026200075f7fffffffffffffffffffffffffffffffffffffffffffffffffffffffffffffffff8262000720565b6200076b868362000720565b95508019841693508086168417925050509392505050565b6000819050919050565b6000819050919050565b6000620007b8620007b2620007ac8462000783565b6200078d565b62000783565b9050919050565b6000819050919050565b620007d48362000797565b620007ec620007e382620007bf565b8484546200072d565b825550505050565b600090565b62000803620007f4565b62000810818484620007c9565b505050565b5b8181101562000838576200082c600082620007f9565b60018101905062000816565b5050565b601f82111562000887576200085181620006fb565b6200085c8462000710565b810160208510156200086c578190505b620008846200087b8562000710565b83018262000815565b50505b505050565b600082821c905092915050565b6000620008ac600019846008026200088c565b1980831691505092915050565b6000620008c7838362000899565b9150826002028217905092915050565b620008e2826200065d565b67ffffffffffffffff811115620008fe57620008fd62000668565b5b6200090a8254620006c6565b620009178282856200083c565b600060209050601f8311600181146200094f57600084156200093a578287015190505b620009468582620008b9565b865550620009b6565b601f1984166200095f86620006fb565b60005b82811015620009895784890151825560018201915060208501945060208101905062000962565b86831015620009a95784890151620009a5601f89168262000899565b8355505b6001600288020188555050505b505050505050565b614e8580620009ce6000396000f3fe608060405234801561001057600080fd5b50600436106103785760003560e01c80637b5758b1116101d3578063c2b40ae411610104578063e2bbb158116100a2578063f2fde38b1161007c578063f2fde38b14610ab7578063f50ddbc714610ad3578063f69bfb7414610b03578063f8077fae14610b2157610378565b8063e2bbb15814610a5f578063e959304f14610a7b578063ed33639f14610a9957610378565b8063d5400047116100de578063d5400047146109b1578063dd62ed3e146109e1578063df44387614610a11578063e17be67d14610a4157610378565b8063c2b40ae414610930578063c89f92cc14610960578063cee9e4281461097e57610378565b80639e0ffd7d11610171578063b599de9c1161014b578063b599de9c14610894578063b8e79564146108c4578063b9583fb2146108e2578063bb5677c11461090057610378565b80639e0ffd7d14610828578063a03e4bc314610846578063a9059cbb1461086457610378565b80638da5cb5b116101ad5780638da5cb5b1461079e578063947a36fb146107bc57806395d89b41146107da5780639baf6b2b146107f857610378565b80637b5758b114610732578063817b1cd214610762578063820e3c0f1461078057610378565b80633fd8b02f116102ad5780636a6f5b1e1161024b57806370a082311161022557806370a08231146106ac578063715018a6146106dc5780637723bafb146106e6578063779972da1461071657610378565b80636a6f5b1e146106415780636e04ff0d1461065f5780636fece60b1461069057610378565b80634585e33b116102875780634585e33b146105bd57806349ce8997146105d95780634b0bddd21461060957806356cefd9f1461062557610378565b80633fd8b02f14610565578063409491081461058357806340c10f19146105a157610378565b806324d7806c1161031a5780633033ce34116102f45780633033ce34146104dd578063313ce567146104f957806339a27c71146105175780633a61738d1461053557610378565b806324d7806c146104715780632b7ac3f3146104a15780632e0f2625146104bf57610378565b806311eac8551161035657806311eac855146103e957806318160ddd1461040757806322a900821461042557806323b872dd1461044157610378565b806306683e4b1461037d57806306fdde031461039b578063095ea7b3146103b9575b600080fd5b610385610b3f565b60405161039291906133fc565b60405180910390f35b6103a3610b45565b6040516103b091906134a7565b60405180910390f35b6103d360048036038101906103ce919061355d565b610bd7565b6040516103e091906135b8565b60405180910390f35b6103f1610bfa565b6040516103fe9190613632565b60405180910390f35b61040f610c20565b60405161041c91906133fc565b60405180910390f35b61043f600480360381019061043a919061364d565b610c2a565b005b61045b6004803603810190610456919061367a565b610c7f565b60405161046891906135b8565b60405180910390f35b61048b600480360381019061048691906136cd565b610cae565b60405161049891906135b8565b60405180910390f35b6104a9610cce565b6040516104b69190613709565b60405180910390f35b6104c7610cf4565b6040516104d49190613740565b60405180910390f35b6104f760048036038101906104f291906137c0565b610cf9565b005b610501610da5565b60405161050e9190613740565b60405180910390f35b61051f610dae565b60405161052c91906133fc565b60405180910390f35b61054f600480360381019061054a91906136cd565b610db4565b60405161055c91906133fc565b60405180910390f35b61056d610e91565b60405161057a91906133fc565b60405180910390f35b61058b610e97565b60405161059891906133fc565b60405180910390f35b6105bb60048036038101906105b6919061355d565b610f0a565b005b6105d760048036038101906105d29190613863565b610f20565b005b6105f360048036038101906105ee919061364d565b610ff1565b60405161060091906135b8565b60405180910390f35b610623600480360381019061061e91906138dc565b611011565b005b61063f600480360381019061063a9190613972565b6110e3565b005b61064961130d565b60405161065691906133fc565b60405180910390f35b61067960048036038101906106749190613863565b611314565b604051610687929190613a48565b60405180910390f35b6106aa60048036038101906106a59190613abc565b611344565b005b6106c660048036038101906106c191906136cd565b611946565b6040516106d391906133fc565b60405180910390f35b6106e461198f565b005b61070060048036038101906106fb91906136cd565b6119a3565b60405161070d91906135b8565b60405180910390f35b610730600480360381019061072b919061364d565b611a02565b005b61074c6004803603810190610747919061364d565b611a57565b60405161075991906135b8565b60405180910390f35b61076a611a77565b60405161077791906133fc565b60405180910390f35b610788611a7d565b60405161079591906133fc565b60405180910390f35b6107a6611a83565b6040516107b39190613709565b60405180910390f35b6107c4611aac565b6040516107d191906133fc565b60405180910390f35b6107e2611ab2565b6040516107ef91906134a7565b60405180910390f35b610812600480360381019061080d91906136cd565b611b44565b60405161081f91906133fc565b60405180910390f35b610830611b5c565b60405161083d91906133fc565b60405180910390f35b61084e611b62565b60405161085b9190613b5a565b60405180910390f35b61087e6004803603810190610879919061355d565b611b88565b60405161088b91906135b8565b60405180910390f35b6108ae60048036038101906108a9919061364d565b611bab565b6040516108bb91906133fc565b60405180910390f35b6108cc611bc3565b6040516108d99190613740565b60405180910390f35b6108ea611bd6565b6040516108f791906133fc565b60405180910390f35b61091a6004803603810190610915919061364d565b611c19565b6040516109279190613709565b60405180910390f35b61094a6004803603810190610945919061364d565b611c58565b60405161095791906135b8565b60405180910390f35b610968611c78565b60405161097591906133fc565b60405180910390f35b6109986004803603810190610993919061364d565b611c7d565b6040516109a89493929190613b75565b60405180910390f35b6109cb60048036038101906109c69190613be6565b611cea565b6040516109d891906133fc565b60405180910390f35b6109fb60048036038101906109f69190613c13565b611d02565b604051610a0891906133fc565b60405180910390f35b610a2b6004803603810190610a26919061364d565b611d89565b604051610a3891906133fc565b60405180910390f35b610a49611da1565b604051610a5691906133fc565b60405180910390f35b610a796004803603810190610a749190613c53565b611da7565b005b610a83612764565b604051610a9091906133fc565b60405180910390f35b610aa161276a565b604051610aae9190613cb4565b60405180910390f35b610ad16004803603810190610acc91906136cd565b612790565b005b610aed6004803603810190610ae891906136cd565b612816565b604051610afa91906133fc565b60405180910390f35b610b0b61282e565b604051610b1891906133fc565b60405180910390f35b610b29612835565b604051610b3691906133fc565b60405180910390f35b60135481565b606060048054610b5490613cfe565b80601f0160208091040260200160405190810160405280929190818152602001828054610b8090613cfe565b8015610bcd5780601f10610ba257610100808354040283529160200191610bcd565b820191906000526020600020905b815481529060010190602001808311610bb057829003601f168201915b5050505050905090565b600080610be261283b565b9050610bef818585612843565b600191505092915050565b600960009054906101000a900473ffffffffffffffffffffffffffffffffffffffff1681565b6000600354905090565b610c32612855565b60008111610c75576040517f08c379a0000000000000000000000000000000000000000000000000000000008152600401610c6c90613d7b565b60405180910390fd5b80600c8190555050565b600080610c8a61283b565b9050610c978582856128dc565b610ca2858585612970565b60019150509392505050565b601e6020528060005260406000206000915054906101000a900460ff1681565b600660009054906101000a900473ffffffffffffffffffffffffffffffffffffffff1681565b600681565b6001601e60003373ffffffffffffffffffffffffffffffffffffffff1673ffffffffffffffffffffffffffffffffffffffff16815260200190815260200160002060006101000a81548160ff0219169083151502179055610d8f576040517f08c379a0000000000000000000000000000000000000000000000000000000008152600401610d8690613de7565b60405180910390fd5b818160159190610da092919061329d565b505050565b60006006905090565b600f5481565b600080601c60008473ffffffffffffffffffffffffffffffffffffffff1673ffffffffffffffffffffffffffffffffffffffff1681526020019081526020016000205490506000610e03611bd6565b90506000600a546103e883601d60008973ffffffffffffffffffffffffffffffffffffffff1673ffffffffffffffffffffffffffffffffffffffff1681526020019081526020016000205486610e599190613e36565b610e639190613e36565b610e6d9190613e36565b610e779190613ea7565b90506103e881610e879190613ea7565b9350505050919050565b600b5481565b600062093a8060105442610eab9190613ed8565b10610f02576000610eba611bd6565b9050600060115403610ed85780601181905550601154915050610f07565b600060115482610ee89190613ed8565b905081601181905550426010819055508092505050610f07565b600090505b90565b610f12612855565b610f1c8282612a64565b5050565b60006015805490501180610f435750600c54600d5442610f409190613ed8565b10155b15610fed57610fd76015805480602002602001604051908101604052809291908181526020018280548015610fcd57602002820191906000526020600020905b8160009054906101000a900473ffffffffffffffffffffffffffffffffffffffff1673ffffffffffffffffffffffffffffffffffffffff1681526020019060010190808311610f83575b5050505050612ae6565b60156000610fe5919061333d565b42600d819055505b5050565b601b6020528060005260406000206000915054906101000a900460ff1681565b611019612855565b600073ffffffffffffffffffffffffffffffffffffffff168273ffffffffffffffffffffffffffffffffffffffff1603611088576040517f08c379a000000000000000000000000000000000000000000000000000000000815260040161107f90613f58565b60405180910390fd5b80601e60008473ffffffffffffffffffffffffffffffffffffffff1673ffffffffffffffffffffffffffffffffffffffff16815260200190815260200160002060006101000a81548160ff0219169083151502179055505050565b6001601e60003373ffffffffffffffffffffffffffffffffffffffff1673ffffffffffffffffffffffffffffffffffffffff16815260200190815260200160002060006101000a81548160ff0219169083151502179055611179576040517f08c379a000000000000000000000000000000000000000000000000000000000815260040161117090613de7565b60405180910390fd5b8181905084849050146111c1576040517f08c379a00000000000000000000000000000000000000000000000000000000081526004016111b890613fc4565b60405180910390fd5b60005b84849050811015611306578282828181106111e2576111e1613fe4565b5b90506020020135601d6000878785818110611200576111ff613fe4565b5b905060200201602081019061121591906136cd565b73ffffffffffffffffffffffffffffffffffffffff1673ffffffffffffffffffffffffffffffffffffffff168152602001908152602001600020600082825461125e9190614013565b9250508190555084848281811061127857611277613fe4565b5b905060200201602081019061128d91906136cd565b73ffffffffffffffffffffffffffffffffffffffff167f739f4d9981573b7d0e13070546febe2da2104cfbbd07f0cb74cb5a54c9597c198484848181106112d7576112d6613fe4565b5b905060200201356040516112eb91906133fc565b60405180910390a280806112fe90614047565b9150506111c4565b5050505050565b6298968081565b600060606000601580549050118061133b5750600c54600d54426113389190613ed8565b10155b91509250929050565b600e548510611388576040517f08c379a000000000000000000000000000000000000000000000000000000000815260040161137f906140db565b60405180910390fd5b60006014868154811061139e5761139d613fe4565b5b90600052602060002090600402019050600b5481600201546113c09190614013565b421015611402576040517f08c379a00000000000000000000000000000000000000000000000000000000081526004016113f990614147565b60405180910390fd5b8060030160009054906101000a900460ff16611453576040517f08c379a000000000000000000000000000000000000000000000000000000000815260040161144a906141b3565b60405180910390fd5b60008260006002811061146957611468613fe4565b5b6020020135905060008360016002811061148657611485613fe4565b5b60200201359050601a600082815260200190815260200160002060009054906101000a900460ff16156114ee576040517f08c379a00000000000000000000000000000000000000000000000000000000081526004016114e59061421f565b60405180910390fd5b6018600083815260200190815260200160002060009054906101000a900460ff1661154e576040517f08c379a00000000000000000000000000000000000000000000000000000000081526004016115459061428b565b60405180910390fd5b60003373ffffffffffffffffffffffffffffffffffffffff1690506000600660009054906101000a900473ffffffffffffffffffffffffffffffffffffffff1673ffffffffffffffffffffffffffffffffffffffff168989896040518060600160405280898152602001888152602001878152506040516024016115d5949392919061442e565b6040516020818303038152906040526311479fea60e01b6020820180517bffffffffffffffffffffffffffffffffffffffffffffffffffffffff838183161783525050505060405161162791906144b1565b6000604051808303816000865af19150503d8060008114611664576040519150601f19603f3d011682016040523d82523d6000602084013e611669565b606091505b50509050806116ad576040517f08c379a00000000000000000000000000000000000000000000000000000000081526004016116a490614514565b60405180910390fd5b6001601a600085815260200190815260200160002060006101000a81548160ff02191690831515021790555060006116e433611946565b90506116f03382612c93565b600860009054906101000a900473ffffffffffffffffffffffffffffffffffffffff1673ffffffffffffffffffffffffffffffffffffffff166369328dec600960009054906101000a900473ffffffffffffffffffffffffffffffffffffffff1683306040518463ffffffff1660e01b815260040161177193929190614534565b6020604051808303816000875af1158015611790573d6000803e3d6000fd5b505050506040513d601f19601f820116820180604052508101906117b49190614580565b50600960009054906101000a900473ffffffffffffffffffffffffffffffffffffffff1673ffffffffffffffffffffffffffffffffffffffff1663a9059cbb33836040518363ffffffff1660e01b81526004016118129291906145ad565b6020604051808303816000875af1158015611831573d6000803e3d6000fd5b505050506040513d601f19601f8201168201806040525081019061185591906145eb565b508560010154600a600082825461186c9190613ed8565b925050819055508560010154601c60003373ffffffffffffffffffffffffffffffffffffffff1673ffffffffffffffffffffffffffffffffffffffff16815260200190815260200160002060008282546118c69190613ed8565b9250508190555060008660030160006101000a81548160ff021916908315150217905550833373ffffffffffffffffffffffffffffffffffffffff167fdf273cb619d95419a9cd0ec88123a0538c85064229baa6363788f743fff90deb8360405161193191906133fc565b60405180910390a35050505050505050505050565b6000600160008373ffffffffffffffffffffffffffffffffffffffff1673ffffffffffffffffffffffffffffffffffffffff168152602001908152602001600020549050919050565b611997612855565b6119a16000612d15565b565b600062989680601c60008473ffffffffffffffffffffffffffffffffffffffff1673ffffffffffffffffffffffffffffffffffffffff1681526020019081526020016000205410156119f857600090506119fd565b600190505b919050565b611a0a612855565b60008111611a4d576040517f08c379a0000000000000000000000000000000000000000000000000000000008152600401611a4490614664565b60405180910390fd5b80600b8190555050565b601a6020528060005260406000206000915054906101000a900460ff1681565b600a5481565b60115481565b60008060009054906101000a900473ffffffffffffffffffffffffffffffffffffffff16905090565b600c5481565b606060058054611ac190613cfe565b80601f0160208091040260200160405190810160405280929190818152602001828054611aed90613cfe565b8015611b3a5780601f10611b0f57610100808354040283529160200191611b3a565b820191906000526020600020905b815481529060010190602001808311611b1d57829003601f168201915b5050505050905090565b601c6020528060005260406000206000915090505481565b60105481565b600860009054906101000a900473ffffffffffffffffffffffffffffffffffffffff1681565b600080611b9361283b565b9050611ba0818585612970565b600191505092915050565b60176020528060005260406000206000915090505481565b601260009054906101000a900460ff1681565b600080611be1612dd9565b505050505090506000606480600a54611bfa9190613e36565b611c049190613ea7565b82611c0f9190613ed8565b9050809250505090565b60158181548110611c2957600080fd5b906000526020600020016000915054906101000a900473ffffffffffffffffffffffffffffffffffffffff1681565b60186020528060005260406000206000915054906101000a900460ff1681565b606481565b60148181548110611c8d57600080fd5b90600052602060002090600402016000915090508060000160009054906101000a900473ffffffffffffffffffffffffffffffffffffffff16908060010154908060020154908060030160009054906101000a900460ff16905084565b60196020528060005260406000206000915090505481565b6000600260008473ffffffffffffffffffffffffffffffffffffffff1673ffffffffffffffffffffffffffffffffffffffff16815260200190815260200160002060008373ffffffffffffffffffffffffffffffffffffffff1673ffffffffffffffffffffffffffffffffffffffff16815260200190815260200160002054905092915050565b60166020528060005260406000206000915090505481565b6103e881565b60008211611dea576040517f08c379a0000000000000000000000000000000000000000000000000000000008152600401611de1906146d0565b60405180910390fd5b81600960009054906101000a900473ffffffffffffffffffffffffffffffffffffffff1673ffffffffffffffffffffffffffffffffffffffff166370a08231336040518263ffffffff1660e01b8152600401611e469190613709565b602060405180830381865afa158015611e63573d6000803e3d6000fd5b505050506040513d601f19601f82011682018060405250810190611e879190614580565b1015611ec8576040517f08c379a0000000000000000000000000000000000000000000000000000000008152600401611ebf9061473c565b60405180910390fd5b81600960009054906101000a900473ffffffffffffffffffffffffffffffffffffffff1673ffffffffffffffffffffffffffffffffffffffff1663dd62ed3e33306040518363ffffffff1660e01b8152600401611f2692919061475c565b602060405180830381865afa158015611f43573d6000803e3d6000fd5b505050506040513d601f19601f82011682018060405250810190611f679190614580565b1015611fa8576040517f08c379a0000000000000000000000000000000000000000000000000000000008152600401611f9f906147d1565b60405180910390fd5b601b600082815260200190815260200160002060009054906101000a900460ff1615612009576040517f08c379a00000000000000000000000000000000000000000000000000000000081526004016120009061483d565b60405180910390fd5b601260009054906101000a900460ff1660026120259190614990565b60135410612068576040517f08c379a000000000000000000000000000000000000000000000000000000000815260040161205f90614a27565b60405180910390fd5b600960009054906101000a900473ffffffffffffffffffffffffffffffffffffffff1673ffffffffffffffffffffffffffffffffffffffff166323b872dd3330856040518463ffffffff1660e01b81526004016120c793929190614a47565b6020604051808303816000875af11580156120e6573d6000803e3d6000fd5b505050506040513d601f19601f8201168201806040525081019061210a91906145eb565b50600960009054906101000a900473ffffffffffffffffffffffffffffffffffffffff1673ffffffffffffffffffffffffffffffffffffffff1663095ea7b3600860009054906101000a900473ffffffffffffffffffffffffffffffffffffffff16846040518363ffffffff1660e01b815260040161218a9291906145ad565b6020604051808303816000875af11580156121a9573d6000803e3d6000fd5b505050506040513d601f19601f820116820180604052508101906121cd91906145eb565b50600860009054906101000a900473ffffffffffffffffffffffffffffffffffffffff1673ffffffffffffffffffffffffffffffffffffffff1663617ba037600960009054906101000a900473ffffffffffffffffffffffffffffffffffffffff16843060006040518563ffffffff1660e01b81526004016122529493929190614ac7565b600060405180830381600087803b15801561226c57600080fd5b505af1158015612280573d6000803e3d6000fd5b5050505061228e3383610f0a565b601460405180608001604052803373ffffffffffffffffffffffffffffffffffffffff16815260200184815260200142815260200160011515815250908060018154018082558091505060019003906000526020600020906004020160009091909190915060008201518160000160006101000a81548173ffffffffffffffffffffffffffffffffffffffff021916908373ffffffffffffffffffffffffffffffffffffffff160217905550602082015181600101556040820151816002015560608201518160030160006101000a81548160ff0219169083151502179055505050600061237a61335e565b612382613381565b6000601354905060008590506000806123996133a4565b60005b601260009054906101000a900460ff1660ff168160ff161015612609578460196000601260009054906101000a900460ff1660ff1660ff1681526020019081526020016000208190555060006002876123f59190614b0c565b0361247e57849350601f8160ff16600a811061241457612413613fe4565b5b01549250601f8160ff16600a811061242f5761242e613fe4565b5b0154888260ff16600a811061244757612446613fe4565b5b6020020181815250506000878260ff16600a811061246857612467613fe4565b5b602002019060ff16908160ff1681525050612500565b601960008260ff1660ff168152602001908152602001600020549350849250601960008260ff1660ff16815260200190815260200160002054888260ff16600a81106124cd576124cc613fe4565b5b6020020181815250506001878260ff16600a81106124ee576124ed613fe4565b5b602002019060ff16908160ff16815250505b838260006002811061251557612514613fe4565b5b602002018181525050828260016002811061253357612532613fe4565b5b6020020181815250506000600760009054906101000a900473ffffffffffffffffffffffffffffffffffffffff1673ffffffffffffffffffffffffffffffffffffffff1663d622e5a4620249f0858e6040518463ffffffff1660e01b815260040161259f929190614bc1565b6020604051808303818786fa1580156125bc573d6000803e3d6000fd5b50505050506040513d601f19601f820116820180604052508101906125e19190614580565b90508095506002876125f39190613ea7565b965050808061260190614bea565b91505061239c565b508397506001601860008a815260200190815260200160002060006101000a81548160ff02191690831515021790555060016013600082825461264c9190614013565b925050819055506001601b60008b815260200190815260200160002060006101000a81548160ff02191690831515021790555089601c60003373ffffffffffffffffffffffffffffffffffffffff1673ffffffffffffffffffffffffffffffffffffffff16815260200190815260200160002060008282546126ce9190614013565b9250508190555089600a60008282546126e79190614013565b92505081905550600e600081548092919061270190614047565b919050555060006001600e546127179190613ed8565b9050887f993972a8ce5eee6c7aefcc7c10b18152c4197d799fc40ebe466e0d7cddce388c89898e8560405161274f9493929190614d42565b60405180910390a25050505050505050505050565b600e5481565b600760009054906101000a900473ffffffffffffffffffffffffffffffffffffffff1681565b612798612855565b600073ffffffffffffffffffffffffffffffffffffffff168173ffffffffffffffffffffffffffffffffffffffff160361280a5760006040517f1e4fbdf70000000000000000000000000000000000000000000000000000000081526004016128019190613709565b60405180910390fd5b61281381612d15565b50565b601d6020528060005260406000206000915090505481565b62093a8081565b600d5481565b600033905090565b6128508383836001612e9e565b505050565b61285d61283b565b73ffffffffffffffffffffffffffffffffffffffff1661287b611a83565b73ffffffffffffffffffffffffffffffffffffffff16146128da5761289e61283b565b6040517f118cdaa70000000000000000000000000000000000000000000000000000000081526004016128d19190613709565b60405180910390fd5b565b60006128e88484611d02565b90507fffffffffffffffffffffffffffffffffffffffffffffffffffffffffffffffff811461296a578181101561295a578281836040517ffb8f41b200000000000000000000000000000000000000000000000000000000815260040161295193929190614d8b565b60405180910390fd5b61296984848484036000612e9e565b5b50505050565b600073ffffffffffffffffffffffffffffffffffffffff168373ffffffffffffffffffffffffffffffffffffffff16036129e25760006040517f96c6fd1e0000000000000000000000000000000000000000000000000000000081526004016129d99190613709565b60405180910390fd5b600073ffffffffffffffffffffffffffffffffffffffff168273ffffffffffffffffffffffffffffffffffffffff1603612a545760006040517fec442f05000000000000000000000000000000000000000000000000000000008152600401612a4b9190613709565b60405180910390fd5b612a5f838383613075565b505050565b600073ffffffffffffffffffffffffffffffffffffffff168273ffffffffffffffffffffffffffffffffffffffff1603612ad65760006040517fec442f05000000000000000000000000000000000000000000000000000000008152600401612acd9190613709565b60405180910390fd5b612ae260008383613075565b5050565b60008060005b8351811015612c41576000612b1a858381518110612b0d57612b0c613fe4565b5b6020026020010151610db4565b90506000811115612bce57612b49858381518110612b3b57612b3a613fe4565b5b602002602001015182610f0a565b8084612b559190614013565b93508280612b6290614047565b935050848281518110612b7857612b77613fe4565b5b602002602001015173ffffffffffffffffffffffffffffffffffffffff167fdf29796aad820e4bb192f3a8d631b76519bcd2cbe77cc85af20e9df53cece08682604051612bc591906133fc565b60405180910390a25b6000601d6000878581518110612be757612be6613fe4565b5b602002602001015173ffffffffffffffffffffffffffffffffffffffff1673ffffffffffffffffffffffffffffffffffffffff16815260200190815260200160002081905550508080612c3990614047565b915050612aec565b508160166000600f548152602001908152602001600020819055508060176000600f54815260200190815260200160002081905550600f6000815480929190612c8990614047565b9190505550505050565b600073ffffffffffffffffffffffffffffffffffffffff168273ffffffffffffffffffffffffffffffffffffffff1603612d055760006040517f96c6fd1e000000000000000000000000000000000000000000000000000000008152600401612cfc9190613709565b60405180910390fd5b612d1182600083613075565b5050565b60008060009054906101000a900473ffffffffffffffffffffffffffffffffffffffff169050816000806101000a81548173ffffffffffffffffffffffffffffffffffffffff021916908373ffffffffffffffffffffffffffffffffffffffff1602179055508173ffffffffffffffffffffffffffffffffffffffff168173ffffffffffffffffffffffffffffffffffffffff167f8be0079c531659141344cd1fd0a4f28419497f9722a3daafe3b4186f6b6457e060405160405180910390a35050565b600080600080600080600860009054906101000a900473ffffffffffffffffffffffffffffffffffffffff1673ffffffffffffffffffffffffffffffffffffffff1663bf92857c306040518263ffffffff1660e01b8152600401612e3d9190613709565b60c060405180830381865afa158015612e5a573d6000803e3d6000fd5b505050506040513d601f19601f82011682018060405250810190612e7e9190614dc2565b809650819750829850839950849a50859b50505050505050909192939495565b600073ffffffffffffffffffffffffffffffffffffffff168473ffffffffffffffffffffffffffffffffffffffff1603612f105760006040517fe602df05000000000000000000000000000000000000000000000000000000008152600401612f079190613709565b60405180910390fd5b600073ffffffffffffffffffffffffffffffffffffffff168373ffffffffffffffffffffffffffffffffffffffff1603612f825760006040517f94280d62000000000000000000000000000000000000000000000000000000008152600401612f799190613709565b60405180910390fd5b81600260008673ffffffffffffffffffffffffffffffffffffffff1673ffffffffffffffffffffffffffffffffffffffff16815260200190815260200160002060008573ffffffffffffffffffffffffffffffffffffffff1673ffffffffffffffffffffffffffffffffffffffff16815260200190815260200160002081905550801561306f578273ffffffffffffffffffffffffffffffffffffffff168473ffffffffffffffffffffffffffffffffffffffff167f8c5be1e5ebec7d5bd14f71427d1e84f3dd0314c0f7b2291e5b200ac8c7c3b9258460405161306691906133fc565b60405180910390a35b50505050565b600073ffffffffffffffffffffffffffffffffffffffff168373ffffffffffffffffffffffffffffffffffffffff16036130c75780600360008282546130bb9190614013565b9250508190555061319c565b6000600160008573ffffffffffffffffffffffffffffffffffffffff1673ffffffffffffffffffffffffffffffffffffffff16815260200190815260200160002054905081811015613154578381836040517fe450d38c00000000000000000000000000000000000000000000000000000000815260040161314b93929190614d8b565b60405180910390fd5b818103600160008673ffffffffffffffffffffffffffffffffffffffff1673ffffffffffffffffffffffffffffffffffffffff16815260200190815260200160002081905550505b600073ffffffffffffffffffffffffffffffffffffffff168273ffffffffffffffffffffffffffffffffffffffff16036131e55780600360008282540392505081905550613233565b80600160008473ffffffffffffffffffffffffffffffffffffffff1673ffffffffffffffffffffffffffffffffffffffff168152602001908152602001600020600082825401925050819055505b8173ffffffffffffffffffffffffffffffffffffffff168373ffffffffffffffffffffffffffffffffffffffff167fddf252ad1be2c89b69c2b068fc378daa952ba7f163c4a11628f55a4df523b3ef8360405161329091906133fc565b60405180910390a3505050565b82805482825590600052602060002090810192821561332c579160200282015b8281111561332b57823573ffffffffffffffffffffffffffffffffffffffff168260006101000a81548173ffffffffffffffffffffffffffffffffffffffff021916908373ffffffffffffffffffffffffffffffffffffffff160217905550916020019190600101906132bd565b5b50905061333991906133c6565b5090565b508054600082559060005260206000209081019061335b91906133c6565b50565b604051806101400160405280600a90602082028036833780820191505090505090565b604051806101400160405280600a90602082028036833780820191505090505090565b6040518060400160405280600290602082028036833780820191505090505090565b5b808211156133df5760008160009055506001016133c7565b5090565b6000819050919050565b6133f6816133e3565b82525050565b600060208201905061341160008301846133ed565b92915050565b600081519050919050565b600082825260208201905092915050565b60005b83811015613451578082015181840152602081019050613436565b60008484015250505050565b6000601f19601f8301169050919050565b600061347982613417565b6134838185613422565b9350613493818560208601613433565b61349c8161345d565b840191505092915050565b600060208201905081810360008301526134c1818461346e565b905092915050565b600080fd5b600080fd5b600073ffffffffffffffffffffffffffffffffffffffff82169050919050565b60006134fe826134d3565b9050919050565b61350e816134f3565b811461351957600080fd5b50565b60008135905061352b81613505565b92915050565b61353a816133e3565b811461354557600080fd5b50565b60008135905061355781613531565b92915050565b60008060408385031215613574576135736134c9565b5b60006135828582860161351c565b925050602061359385828601613548565b9150509250929050565b60008115159050919050565b6135b28161359d565b82525050565b60006020820190506135cd60008301846135a9565b92915050565b6000819050919050565b60006135f86135f36135ee846134d3565b6135d3565b6134d3565b9050919050565b600061360a826135dd565b9050919050565b600061361c826135ff565b9050919050565b61362c81613611565b82525050565b60006020820190506136476000830184613623565b92915050565b600060208284031215613663576136626134c9565b5b600061367184828501613548565b91505092915050565b600080600060608486031215613693576136926134c9565b5b60006136a18682870161351c565b93505060206136b28682870161351c565b92505060406136c386828701613548565b9150509250925092565b6000602082840312156136e3576136e26134c9565b5b60006136f18482850161351c565b91505092915050565b613703816134f3565b82525050565b600060208201905061371e60008301846136fa565b92915050565b600060ff82169050919050565b61373a81613724565b82525050565b60006020820190506137556000830184613731565b92915050565b600080fd5b600080fd5b600080fd5b60008083601f8401126137805761377f61375b565b5b8235905067ffffffffffffffff81111561379d5761379c613760565b5b6020830191508360208202830111156137b9576137b8613765565b5b9250929050565b600080602083850312156137d7576137d66134c9565b5b600083013567ffffffffffffffff8111156137f5576137f46134ce565b5b6138018582860161376a565b92509250509250929050565b60008083601f8401126138235761382261375b565b5b8235905067ffffffffffffffff8111156138405761383f613760565b5b60208301915083600182028301111561385c5761385b613765565b5b9250929050565b6000806020838503121561387a576138796134c9565b5b600083013567ffffffffffffffff811115613898576138976134ce565b5b6138a48582860161380d565b92509250509250929050565b6138b98161359d565b81146138c457600080fd5b50565b6000813590506138d6816138b0565b92915050565b600080604083850312156138f3576138f26134c9565b5b60006139018582860161351c565b9250506020613912858286016138c7565b9150509250929050565b60008083601f8401126139325761393161375b565b5b8235905067ffffffffffffffff81111561394f5761394e613760565b5b60208301915083602082028301111561396b5761396a613765565b5b9250929050565b6000806000806040858703121561398c5761398b6134c9565b5b600085013567ffffffffffffffff8111156139aa576139a96134ce565b5b6139b68782880161376a565b9450945050602085013567ffffffffffffffff8111156139d9576139d86134ce565b5b6139e58782880161391c565b925092505092959194509250565b600081519050919050565b600082825260208201905092915050565b6000613a1a826139f3565b613a2481856139fe565b9350613a34818560208601613433565b613a3d8161345d565b840191505092915050565b6000604082019050613a5d60008301856135a9565b8181036020830152613a6f8184613a0f565b90509392505050565b600081905082602060020282011115613a9457613a93613765565b5b92915050565b600081905082604060020282011115613ab657613ab5613765565b5b92915050565b60008060008060006101608688031215613ad957613ad86134c9565b5b6000613ae788828901613548565b9550506020613af888828901613a78565b9450506060613b0988828901613a9a565b93505060e0613b1a88828901613a78565b925050610120613b2c88828901613a78565b9150509295509295909350565b6000613b44826135ff565b9050919050565b613b5481613b39565b82525050565b6000602082019050613b6f6000830184613b4b565b92915050565b6000608082019050613b8a60008301876136fa565b613b9760208301866133ed565b613ba460408301856133ed565b613bb160608301846135a9565b95945050505050565b613bc381613724565b8114613bce57600080fd5b50565b600081359050613be081613bba565b92915050565b600060208284031215613bfc57613bfb6134c9565b5b6000613c0a84828501613bd1565b91505092915050565b60008060408385031215613c2a57613c296134c9565b5b6000613c388582860161351c565b9250506020613c498582860161351c565b9150509250929050565b60008060408385031215613c6a57613c696134c9565b5b6000613c7885828601613548565b9250506020613c8985828601613548565b9150509250929050565b6000613c9e826135ff565b9050919050565b613cae81613c93565b82525050565b6000602082019050613cc96000830184613ca5565b92915050565b7f4e487b7100000000000000000000000000000000000000000000000000000000600052602260045260246000fd5b60006002820490506001821680613d1657607f821691505b602082108103613d2957613d28613ccf565b5b50919050565b7f76616c6964206e657720696e74657276616c0000000000000000000000000000600082015250565b6000613d65601283613422565b9150613d7082613d2f565b602082019050919050565b60006020820190508181036000830152613d9481613d58565b9050919050565b7f4e6f7420697341646d696e000000000000000000000000000000000000000000600082015250565b6000613dd1600b83613422565b9150613ddc82613d9b565b602082019050919050565b60006020820190508181036000830152613e0081613dc4565b9050919050565b7f4e487b7100000000000000000000000000000000000000000000000000000000600052601160045260246000fd5b6000613e41826133e3565b9150613e4c836133e3565b9250828202613e5a816133e3565b91508282048414831517613e7157613e70613e07565b5b5092915050565b7f4e487b7100000000000000000000000000000000000000000000000000000000600052601260045260246000fd5b6000613eb2826133e3565b9150613ebd836133e3565b925082613ecd57613ecc613e78565b5b828204905092915050565b6000613ee3826133e3565b9150613eee836133e3565b9250828203905081811115613f0657613f05613e07565b5b92915050565b7f696e76616c696420757365722061646472657373000000000000000000000000600082015250565b6000613f42601483613422565b9150613f4d82613f0c565b602082019050919050565b60006020820190508181036000830152613f7181613f35565b9050919050565b7f557365727320616e6420706f696e7473206c656e677468206d69736d61746368600082015250565b6000613fae602083613422565b9150613fb982613f78565b602082019050919050565b60006020820190508181036000830152613fdd81613fa1565b9050919050565b7f4e487b7100000000000000000000000000000000000000000000000000000000600052603260045260246000fd5b600061401e826133e3565b9150614029836133e3565b925082820190508082111561404157614040613e07565b5b92915050565b6000614052826133e3565b91507fffffffffffffffffffffffffffffffffffffffffffffffffffffffffffffffff820361408457614083613e07565b5b600182019050919050565b7f496e76616c696420696400000000000000000000000000000000000000000000600082015250565b60006140c5600a83613422565b91506140d08261408f565b602082019050919050565b600060208201905081810360008301526140f4816140b8565b9050919050565b7f5374696c6c20696e206c6f636b20706572696f64000000000000000000000000600082015250565b6000614131601483613422565b915061413c826140fb565b602082019050919050565b6000602082019050818103600083015261416081614124565b9050919050565b7f4e6f742076616c69640000000000000000000000000000000000000000000000600082015250565b600061419d600983613422565b91506141a882614167565b602082019050919050565b600060208201905081810360008301526141cc81614190565b9050919050565b7f616c7265616479207370656e7400000000000000000000000000000000000000600082015250565b6000614209600d83613422565b9150614214826141d3565b602082019050919050565b60006020820190508181036000830152614238816141fc565b9050919050565b7f6e6f7420726f6f74000000000000000000000000000000000000000000000000600082015250565b6000614275600883613422565b91506142808261423f565b602082019050919050565b600060208201905081810360008301526142a481614268565b9050919050565b82818337505050565b6142c0604083836142ab565b5050565b600060029050919050565b600081905092915050565b6000819050919050565b6142f0604083836142ab565b5050565b600061430083836142e4565b60408301905092915050565b600082905092915050565b6000604082019050919050565b61432d816142c4565b61433781846142cf565b9250614342826142da565b8060005b8381101561437b57614358828461430c565b61436287826142f4565b965061436d83614317565b925050600181019050614346565b505050505050565b600060039050919050565b600081905092915050565b6000819050919050565b6143ac816133e3565b82525050565b60006143be83836143a3565b60208301905092915050565b6000602082019050919050565b6143e081614383565b6143ea818461438e565b92506143f582614399565b8060005b8381101561442657815161440d87826143b2565b9650614418836143ca565b9250506001810190506143f9565b505050505050565b60006101608201905061444460008301876142b4565b6144516040830186614324565b61445e60c08301856142b4565b61446c6101008301846143d7565b95945050505050565b600081905092915050565b600061448b826139f3565b6144958185614475565b93506144a5818560208601613433565b80840191505092915050565b60006144bd8284614480565b915081905092915050565b7f696e76616c69642070726f6f6600000000000000000000000000000000000000600082015250565b60006144fe600d83613422565b9150614509826144c8565b602082019050919050565b6000602082019050818103600083015261452d816144f1565b9050919050565b600060608201905061454960008301866136fa565b61455660208301856133ed565b61456360408301846136fa565b949350505050565b60008151905061457a81613531565b92915050565b600060208284031215614596576145956134c9565b5b60006145a48482850161456b565b91505092915050565b60006040820190506145c260008301856136fa565b6145cf60208301846133ed565b9392505050565b6000815190506145e5816138b0565b92915050565b600060208284031215614601576146006134c9565b5b600061460f848285016145d6565b91505092915050565b7f76616c696420706572696f640000000000000000000000000000000000000000600082015250565b600061464e600c83613422565b915061465982614618565b602082019050919050565b6000602082019050818103600083015261467d81614641565b9050919050565b7f43616e6e6f74206465706f736974207a65726f20746f6b656e73000000000000600082015250565b60006146ba601a83613422565b91506146c582614684565b602082019050919050565b600060208201905081810360008301526146e9816146ad565b9050919050565b7f496e73756666696369656e742062616c616e6365000000000000000000000000600082015250565b6000614726601483613422565b9150614731826146f0565b602082019050919050565b6000602082019050818103600083015261475581614719565b9050919050565b600060408201905061477160008301856136fa565b61477e60208301846136fa565b9392505050565b7f496e73756666696369656e7420616c6c6f77616e636500000000000000000000600082015250565b60006147bb601683613422565b91506147c682614785565b602082019050919050565b600060208201905081810360008301526147ea816147ae565b9050919050565b7f6475706c696361746520636f6d6d69746d656e74206861736800000000000000600082015250565b6000614827601983613422565b9150614832826147f1565b602082019050919050565b600060208201905081810360008301526148568161481a565b9050919050565b60008160011c9050919050565b6000808291508390505b60018511156148b4578086048111156148905761488f613e07565b5b600185161561489f5780820291505b80810290506148ad8561485d565b9450614874565b94509492505050565b6000826148cd5760019050614989565b816148db5760009050614989565b81600181146148f157600281146148fb5761492a565b6001915050614989565b60ff84111561490d5761490c613e07565b5b8360020a91508482111561492457614923613e07565b5b50614989565b5060208310610133831016604e8410600b841016171561495f5782820a90508381111561495a57614959613e07565b5b614989565b61496c848484600161486a565b9250905081840481111561498357614982613e07565b5b81810290505b9392505050565b600061499b826133e3565b91506149a683613724565b92506149d37fffffffffffffffffffffffffffffffffffffffffffffffffffffffffffffffff84846148bd565b905092915050565b7f747265652066756c6c0000000000000000000000000000000000000000000000600082015250565b6000614a11600983613422565b9150614a1c826149db565b602082019050919050565b60006020820190508181036000830152614a4081614a04565b9050919050565b6000606082019050614a5c60008301866136fa565b614a6960208301856136fa565b614a7660408301846133ed565b949350505050565b6000819050919050565b600061ffff82169050919050565b6000614ab1614aac614aa784614a7e565b6135d3565b614a88565b9050919050565b614ac181614a96565b82525050565b6000608082019050614adc60008301876136fa565b614ae960208301866133ed565b614af660408301856136fa565b614b036060830184614ab8565b95945050505050565b6000614b17826133e3565b9150614b22836133e3565b925082614b3257614b31613e78565b5b828206905092915050565b600060029050919050565b600081905092915050565b6000819050919050565b6000602082019050919050565b614b7381614b3d565b614b7d8184614b48565b9250614b8882614b53565b8060005b83811015614bb9578151614ba087826143b2565b9650614bab83614b5d565b925050600181019050614b8c565b505050505050565b6000606082019050614bd66000830185614b6a565b614be360408301846133ed565b9392505050565b6000614bf582613724565b915060ff8203614c0857614c07613e07565b5b600182019050919050565b6000600a9050919050565b600081905092915050565b6000819050919050565b6000602082019050919050565b614c4981614c13565b614c538184614c1e565b9250614c5e82614c29565b8060005b83811015614c8f578151614c7687826143b2565b9650614c8183614c33565b925050600181019050614c62565b505050505050565b6000600a9050919050565b600081905092915050565b6000819050919050565b614cc081613724565b82525050565b6000614cd28383614cb7565b60208301905092915050565b6000602082019050919050565b614cf481614c97565b614cfe8184614ca2565b9250614d0982614cad565b8060005b83811015614d3a578151614d218782614cc6565b9650614d2c83614cde565b925050600181019050614d0d565b505050505050565b60006102c082019050614d586000830187614c40565b614d66610140830186614ceb565b614d746102808301856133ed565b614d826102a08301846133ed565b95945050505050565b6000606082019050614da060008301866136fa565b614dad60208301856133ed565b614dba60408301846133ed565b949350505050565b60008060008060008060c08789031215614ddf57614dde6134c9565b5b6000614ded89828a0161456b565b9650506020614dfe89828a0161456b565b9550506040614e0f89828a0161456b565b9450506060614e2089828a0161456b565b9350506080614e3189828a0161456b565b92505060a0614e4289828a0161456b565b915050929550929550929556fea2646970667358221220cc9ee24d3d1d8425b247123fc4dba18b6c9ac8a1e77ccf98839dd1d778cf0b1264736f6c63430008140033",
  "linkReferences": {},
  "deployedLinkReferences": {}
}